{
	"data": {
		"bytecode": {
			"linkReferences": {},
			"object": "60806040526011805461ffff191660011790555f6012819055601381905560145534801561002b575f80fd5b506040516156e53803806156e583398101604081905261004a916103b7565b8233805f816100a05760405162461bcd60e51b815260206004820152601860248201527f43616e6e6f7420736574206f776e657220746f207a65726f000000000000000060448201526064015b60405180910390fd5b5f80546001600160a01b0319166001600160a01b03848116919091179091558116156100cf576100cf8161025a565b5050506001600160a01b0381166100f95760405163d92e233d60e01b815260040160405180910390fd5b600280546001600160a01b0319166001600160a01b039290921691909117905560016003819055600583905560068290556004805460ff199081169091556040805160c08082018352610258808352603c602080850182905266038d7ea4c68000858701819052600a606080880182905260646080808a019190915260a0988901839052600996909655939055600b55600c8054620a640a62ffffff19909116179055855193840186526123288452610190848201526109c48487015260c884830152611388928401929092525f92909301829052600d80546001600160601b03191669138800c809c40190232817905583519283018452600f8084526014848301819052938501879052600e8190559290925560108054909416909417909255805192835290820190819052905161023491601591610302565b50604080515f815260208101918290525161025191601691610302565b505050506103f6565b336001600160a01b038216036102b25760405162461bcd60e51b815260206004820152601760248201527f43616e6e6f74207472616e7366657220746f2073656c660000000000000000006044820152606401610097565b600180546001600160a01b0319166001600160a01b038381169182179092555f8054604051929316917fed8889f560326eb138920d842192f0eb3dd22b4f139c87a2c57538e05bae12789190a350565b828054828255905f5260205f2090601f01602090048101928215610393579160200282015f5b8382111561036557835183826101000a81548160ff021916908360ff16021790555092602001926001016020815f01049283019260010302610328565b80156103915782816101000a81549060ff02191690556001016020815f01049283019260010302610365565b505b5061039f9291506103a3565b5090565b5b8082111561039f575f81556001016103a4565b5f805f606084860312156103c9575f80fd5b83516001600160a01b03811681146103df575f80fd5b602085015160409095015190969495509392505050565b6152e2806104035f395ff3fe6080604052600436106102cc575f3560e01c8063926eae5b11610174578063d40d17bc116100db578063e40205d611610094578063eb79f1ad1161006e578063eb79f1ad14610aae578063f020044f14610aed578063f2fde38b14610b06578063fed7467b14610b2557610309565b8063e40205d614610a3d578063e72ec30b14610a52578063e8a3898614610a8157610309565b8063d40d17bc14610994578063d46588bf146109b3578063db2e21bc146109e1578063dd191719146109f5578063dd4f8f7414610a09578063de8ebc5714610a1e57610309565b8063b7d0628b1161012d578063b7d0628b146108cc578063b8578e44146108f0578063bb486d751461090f578063c72187fd14610930578063ccc089741461094f578063d1f9c24d1461096e57610309565b8063926eae5b146107ba5780639c4780d8146107d95780639d5b1e72146107ee5780639eccacf614610827578063a7c0673214610846578063b1bc1b571461087457610309565b80634ad6562d1161023357806379ba5097116101ec57806388c3ffb0116101c657806388c3ffb0146106b05780638c65c81f146106e35780638da5cb5b1461077f5780638ea981171461079b57610309565b806379ba5097146106695780637b18de371461067d578063874369cf1461069c57610309565b80634ad6562d146105ae5780634e789a8b146105c15780636e04ff0d146105e05780636f9fb98a1461060d57806372bfbe861461061f578063784712f21461063e57610309565b80631fe543e3116102855780631fe543e3146104cd5780632daff459146104ec578063311e54921461050b57806333f707d1146105395780633b2786cb146105585780634585e33b1461058f57610309565b80630462d2911461033b5780630c8587e1146103625780630d578d18146103ec57806310ce1c5a1461040d5780631176829d146104215780631eaed4ff1461048f57610309565b366103095760405134815233907f0939f6f4877faf071412e527bc4c6d0bd65ad077e52b57334f7765265647a7f1906020015b60405180910390a2005b60405134815233907f0939f6f4877faf071412e527bc4c6d0bd65ad077e52b57334f7765265647a7f1906020016102ff565b348015610346575f80fd5b5061034f610b44565b6040519081526020015b60405180910390f35b34801561036d575f80fd5b50600d546103af9061ffff808216916201000081048216916401000000008204811691600160301b8104821691600160401b8204811691600160501b90041686565b6040805161ffff978816815295871660208701529386169385019390935290841660608401528316608083015290911660a082015260c001610359565b3480156103f7575f80fd5b5061040b6104063660046148ea565b610b6d565b005b348015610418575f80fd5b5061040b610c16565b34801561042c575f80fd5b50600954600a54600b54600c546104599392919060ff808216916101008104821691620100009091041686565b6040805196875260208701959095529385019290925260ff908116606085015290811660808401521660a082015260c001610359565b34801561049a575f80fd5b50600e54600f546010546104b092919060ff1683565b604080519384526020840192909252151590820152606001610359565b3480156104d8575f80fd5b5061040b6104e7366004614941565b610d15565b3480156104f7575f80fd5b5061040b61050636600461499c565b610d6a565b348015610516575f80fd5b5060115461052990610100900460ff1681565b6040519015158152602001610359565b348015610544575f80fd5b5061040b6105533660046148ea565b610e92565b348015610563575f80fd5b50600854610577906001600160a01b031681565b6040516001600160a01b039091168152602001610359565b34801561059a575f80fd5b5061040b6105a93660046149d2565b610fba565b61040b6105bc366004614a3e565b61131e565b3480156105cc575f80fd5b5061040b6105db366004614a7c565b611670565b3480156105eb575f80fd5b506105ff6105fa3660046149d2565b61176b565b604051610359929190614acb565b348015610618575f80fd5b504761034f565b34801561062a575f80fd5b5061040b610639366004614afd565b61196f565b348015610649575f80fd5b5061034f610658366004614b5f565b601c6020525f908152604090205481565b348015610674575f80fd5b5061040b611b8c565b348015610688575f80fd5b5061040b610697366004614b78565b611c35565b3480156106a7575f80fd5b5061040b611d27565b3480156106bb575f80fd5b506106cf6106ca3660046148ea565b611d97565b604051610359989796959493929190614bc3565b3480156106ee575f80fd5b506107416106fd3660046148ea565b60186020525f90815260409020805460018201546002830154600384015460069094015492939192909160ff808216926101009092046001600160a01b0316911686565b6040805196875260208701959095529385019290925260ff90811660608501526001600160a01b0390911660808401521660a082015260c001610359565b34801561078a575f80fd5b505f546001600160a01b0316610577565b3480156107a6575f80fd5b5061040b6107b5366004614b5f565b611e46565b3480156107c5575f80fd5b5061040b6107d4366004614c1a565b611f30565b3480156107e4575f80fd5b5061034f60125481565b3480156107f9575f80fd5b50610529610808366004614c33565b601960209081525f928352604080842090915290825290205460ff1681565b348015610832575f80fd5b50600254610577906001600160a01b031681565b348015610851575f80fd5b50610865610860366004614c54565b611fec565b60405161035993929190614cb9565b34801561087f575f80fd5b506108b761088e366004614ce2565b601b60209081525f92835260408084209091529082529020600181015460029091015460ff1682565b60408051928352901515602083015201610359565b3480156108d7575f80fd5b506108e0612099565b6040516103599493929190614d37565b3480156108fb575f80fd5b5061040b61090a366004614c1a565b61216d565b34801561091a575f80fd5b5061092361229d565b6040516103599190614d62565b34801561093b575f80fd5b5061040b61094a366004614b78565b6123cf565b34801561095a575f80fd5b5061040b610969366004614c1a565b612461565b348015610979575f80fd5b506004546109879060ff1681565b6040516103599190614d74565b34801561099f575f80fd5b5061040b6109ae366004614b5f565b612512565b3480156109be575f80fd5b506109d26109cd366004614d82565b6125b6565b60405161035993929190614de2565b3480156109ec575f80fd5b5061040b612817565b348015610a00575f80fd5b5061040b612901565b348015610a14575f80fd5b5061034f60135481565b348015610a29575f80fd5b5061040b610a38366004614e7b565b612a4c565b348015610a48575f80fd5b5061034f60145481565b348015610a5d575f80fd5b50610a71610a6c366004614eeb565b612e26565b6040516103599493929190614f04565b348015610a8c575f80fd5b50610aa0610a9b366004614eeb565b613094565b604051610359929190614f8b565b348015610ab9575f80fd5b50610577610ac8366004614c33565b601a60209081525f92835260408084209091529082529020546001600160a01b031681565b348015610af8575f80fd5b506011546105299060ff1681565b348015610b11575f80fd5b5061040b610b20366004614b5f565b61327e565b348015610b30575f80fd5b5061040b610b3f366004614a7c565b61328f565b5f610b686064610b62600e60010154476133e090919063ffffffff16565b906133f4565b905090565b610b756133ff565b601154610100900460ff1615610b9e5760405163eb1a381f60e01b815260040160405180910390fd5b601254811115610bc157604051630e0f29c960e21b815260040160405180910390fd5b610bca81613451565b60408051818152600f918101919091526e5377656570526f756e6446756e647360881b60608201524260208201525f8051602061526d833981519152906080015b60405180910390a150565b610c1e613533565b335f908152601c602052604081205490819003610c4e5760405163302a93a160e21b815260040160405180910390fd5b335f818152601c60205260408082208290555190919083908381818185875af1925050503d805f8114610c9c576040519150601f19603f3d011682016040523d82523d5f602084013e610ca1565b606091505b5050905080610cc3576040516312171d8360e31b815260040160405180910390fd5b60125460405133917f7472e24de4628e34b41a2aa1688ed4b46a9145b2de1cf93d74902473ccc1740d91610cff91868252602082015260400190565b60405180910390a25050610d136001600355565b565b6002546001600160a01b03163314610d5a5760025460405163073e64fd60e21b81523360048201526001600160a01b0390911660248201526044015b60405180910390fd5b610d6583838361358c565b505050565b610d726133ff565b601154610100900460ff1615610d9b5760405163eb1a381f60e01b815260040160405180910390fd5b808015610da957505f601254115b15610df9576012545f9081526018602052604090206006810154600216158015610dd657505f8160020154115b15610df7575f610de76012546135d6565b9050610df56012548261375f565b505b505b6004805460ff811691849160ff19166001836003811115610e1c57610e1c614d03565b02179055505f8051602061522d833981519152818442604051610e4193929190614faf565b60405180910390a160408051818152600a9181019190915269466f726365537461746560b01b60608201524260208201525f8051602061526d833981519152906080015b60405180910390a1505050565b610e9a6133ff565b610ea2613533565b5f610eab610b44565b9050475f82821115610ec457610ec18284613c4c565b90505b80841115610ee5576040516302c6f54760e21b815260040160405180910390fd5b835f03610f055760405163bd51224160e01b815260040160405180910390fd5b5f80546040516001600160a01b039091169086908381818185875af1925050503d805f8114610f4f576040519150601f19603f3d011682016040523d82523d5f602084013e610f54565b606091505b5050905080610f76576040516312171d8360e31b815260040160405180910390fd5b6040518581527f36a8cfbf7655e6019c9246e01ded1d727877ea135a5dcc275658e566fab1e9789060200160405180910390a150505050610fb76001600355565b50565b6008546001600160a01b031615801590610fdf57506008546001600160a01b03163314155b15611047575f8051602061528d833981519152604051611026906020808252601390820152722ab730baba3437b934bd32b21031b0b63632b960691b604082015260600190565b60405180910390a1604051630f7bb4ed60e01b815260040160405180910390fd5b5f611054828401846148ea565b604080513381524260208201529081018290529091507f6cf4520e53ba78bfdf634ba4615d156e0b6c6647b5da04c11831b6c99cf603449060600160405180910390a18060010361113957600160045460ff1660038111156110b8576110b8614d03565b1415806110c6575060145442105b15611131575f8051602061528d83398151915260405161111090602080825260169082015275149bdd5b99081b9bdd081c9958591e481d1bc8195b9960521b604082015260600190565b60405180910390a16040516393bdaa3960e01b815260040160405180910390fd5b610d65613c57565b8060020361120d576012545f908152601860205260409020600260045460ff16600381111561116a5761116a614d03565b14158061117c57506006810154600816155b8061118d5750600681015460041615155b156111ff575f8051602061528d8339815191526040516111de906020808252601f908201527f4e6f7420726561647920666f722072616e646f6d2067656e65726174696f6e00604082015260600190565b60405180910390a1604051630e4db23160e41b815260040160405180910390fd5b611207613d0c565b50505050565b80600303610d65576012545f908152601860205260409020600360045460ff16600381111561123e5761123e614d03565b14158061125a5750600a54600182015461125791613ebc565b42105b8061126a57506006810154600216155b156112dc575f8051602061528d8339815191526040516112bb9060208082526017908201527f4e6f7420726561647920666f72206e657720726f756e64000000000000000000604082015260600190565b60405180910390a16040516362c506ed60e01b815260040160405180910390fd5b6004805460ff19811690915560405160ff909116905f8051602061522d8339815191529061130f9083905f904290614faf565b60405180910390a15050505050565b611326613533565b60115460ff166113495760405163379a7ed960e01b815260040160405180910390fd5b5f60045460ff16600381111561136157611361614d03565b0361136f5761136f33613ec7565b600160045460ff16600381111561138857611388614d03565b146113a657604051633df07da560e01b815260040160405180910390fd5b600c546014546113be9162010000900460ff16613c4c565b42106113dd576040516311cce64560e11b815260040160405180910390fd5b5f8190036113fe5760405163a986a03560e01b815260040160405180910390fd5b600c5460ff16811115611424576040516338cc522b60e01b815260040160405180910390fd5b600b5461143190826133e0565b34146114505760405163569e8c1160e01b815260040160405180910390fd5b6012545f908152601b602090815260408083203384529091529020600c54815460ff909116906114809084613ebc565b111561149f576040516320dcad3360e01b815260040160405180910390fd5b5f5b828110156115d6575f8484838181106114bc576114bc614fd8565b90506020020160208101906114d19190614eeb565b905060018160ff1610806114f25750600c5460ff6101009091048116908216115b15611510576040516374cbd35f60e01b815260040160405180910390fd5b6012545f90815260196020908152604080832060ff8086168552925290912054161561154f5760405163c6ea461960e01b815260040160405180910390fd5b601280545f90815260196020908152604080832060ff958616808552908352818420805460ff1916600190811790915594548452601a8352818420818552835290832080546001600160a01b0319163317905586548085018855878452928290209183049091018054601f9093166101000a918202919094021990911617909155016114a1565b5060018101546115e69034613ebc565b60018201556012545f908152601860205260409020600201546116099034613ebc565b601280545f90815260186020526040908190206002019290925554905133907fa2da031af61b11e32eb2d9de4368cd1165e947468dc5713fa92e36c5f704028f9061165990879087903490614fec565b60405180910390a35061166c6001600355565b5050565b6116786133ff565b601154610100900460ff16156116a15760405163eb1a381f60e01b815260040160405180910390fd5b6012548211156116c457604051630e0f29c960e21b815260040160405180910390fd5b5f8281526018602052604090208180156116e357506006810154600216155b80156116f257505f8160020154115b15611713575f611701846135d6565b905061170d848261375f565b50611728565b6006810154600116611728576117288161404e565b60408051818152600d918101919091526c10dbdb5c1b195d19549bdd5b99609a1b60608201524260208201525f8051602061526d83398151915290608001610e85565b5f606081836001600160401b0381111561178757611787615039565b6040519080825280601f01601f1916602001820160405280156117b1576020820181803683370190505b5090508315611812575f5b84811015611810578585828181106117d6576117d6614fd8565b9050013560f81c60f81b8282815181106117f2576117f2614fd8565b60200101906001600160f81b03191690815f1a9053506001016117bc565b505b600160045460ff16600381111561182b5761182b614d03565b14801561183a57506014544210155b15611867576040805160016020820181905291016040516020818303038152906040529250925050611968565b600260045460ff16600381111561188057611880614d03565b036118e5576012545f9081526018602052604090206006810154600816151580156118b057506006810154600416155b156118df576040805160026020820152600191015b604051602081830303815290604052935093505050611968565b50611954565b600360045460ff1660038111156118fe576118fe614d03565b03611954576012545f908152601860205260409020600a54600182015461192491613ebc565b42101580156119395750600681015460021615155b15611952576040805160036020820152600191016118c5565b505b505060408051602081019091525f80825291505b9250929050565b6119776133ff565b601154610100900460ff16156119a05760405163eb1a381f60e01b815260040160405180910390fd5b600954604080516080808252600d908201526c3937bab732223ab930ba34b7b760991b60a0820152602081019290925281018690523360608201525f8051602061524d8339815191529060c00160405180910390a1600a8054604080516080808252810193909352691c995cdd14195c9a5bd960b21b60a0840152602083019190915281018590523360608201525f8051602061524d8339815191529060c00160405180910390a1600b54604080516080808252600d908201526c1cd95b1958dd1a5bdb90dbdcdd609a1b60a0820152602081019290925281018490523360608201525f8051602061524d8339815191529060c00160405180910390a1600c546040805160808082526016908201527536b0bc29b2b632b1ba34b7b739a832b9283630bcb2b960511b60a082015260ff928316602082015291841682820152336060830152515f8051602061524d8339815191529181900360c00190a1600c54604080516080808252600d908201526c636c6f73696e6757696e646f7760981b60a082015260ff620100009093048316602082015291831682820152336060830152515f8051602061524d8339815191529181900360c00190a1600994909455600a92909255600b55600c805460ff938416620100000262ff00ff199091169390921692909217179055565b6001546001600160a01b03163314611bdf5760405162461bcd60e51b815260206004820152601660248201527526bab9ba10313290383937b837b9b2b21037bbb732b960511b6044820152606401610d51565b5f8054336001600160a01b0319808316821784556001805490911690556040516001600160a01b0390921692909183917f8be0079c531659141344cd1fd0a4f28419497f9722a3daafe3b4186f6b6457e091a350565b611c3d6133ff565b601154610100900460ff1615611c665760405163eb1a381f60e01b815260040160405180910390fd5b600e546040805160808082526010908201526f3b39332932b8bab2b9ba213ab33332b960811b60a0820152602081019290925281018390523360608201525f8051602061524d8339815191529060c00160405180910390a1600f546040805160808082526016908201527573616665747942756666657250657263656e7461676560501b60a0820152602081019290925281018290523360608201525f8051602061524d8339815191529060c00160405180910390a1600e91909155600f55565b611d2f6133ff565b6011805461ff0019166101001790556040805160808082526013908201527218591b5a5b90dbdb9d1c9bdb1cd31bd8dad959606a1b60a08201525f602082015260018183015233606082015290515f8051602061524d8339815191529160c0908290030190a1565b5f805f805f611da46147a6565b5f87815260186020526040812080546001808301546002840154600385015460068601548796959460ff83169261010090046001600160a01b031691600488019116151560068801546002161515604080518082019182905290849060029082845b81546001600160a01b03168152600190910190602001808311611e0657505050505092509850985098509850985098509850985050919395975091939597565b5f546001600160a01b03163314801590611e6b57506002546001600160a01b03163314155b15611ebb5733611e825f546001600160a01b031690565b60025460405163061db9c160e01b81526001600160a01b0393841660048201529183166024830152919091166044820152606401610d51565b6001600160a01b038116611ee25760405163d92e233d60e01b815260040160405180910390fd5b600280546001600160a01b0319166001600160a01b0383169081179091556040519081527fd1a6a14209a385a964d036e404cb5cfb71f4000cdb03c9366292430787261be690602001610c0b565b611f386133ff565b601154610100900460ff1615611f615760405163eb1a381f60e01b815260040160405180910390fd5b6010805460ff19168215159081179091555f8051602061524d8339815191529060ff16611f8e575f611f91565b60015b82611f9c575f611f9f565b60015b60408051608080825260159082015274737461747356697369626c65546f506c617965727360581b60a082015260ff9384166020820152929091169082015233606082015260c001610c0b565b5f818152601b602090815260408083206001600160a01b0386168452825280832060018101546002820154825484518187028101870190955280855260609695869585949360ff1692909185919083018282801561208457602002820191905f5260205f20905f905b825461010083900a900460ff168152602060019283018181049485019490930390920291018084116120555790505b50505050509250935093509350509250925092565b6012545f8181526018602052604081206002015460045460ff1660018160038111156120c7576120c7614d03565b036120f05742601454116120db575f6120e9565b426014546120e99190615061565b9250612167565b600360045460ff16600381111561210957612109614d03565b03612163576012545f908152601860205260409020600a54600182015442916121329190613ebc565b1161213d575f61215b565b600a54600182015442916121519190613ebc565b61215b9190615061565b935050612167565b5f92505b90919293565b6121756133ff565b601154610100900460ff161561219e5760405163eb1a381f60e01b815260040160405180910390fd5b8080156121ac57505f601254115b156121fc576012545f90815260186020526040902060068101546002161580156121d957505f8160020154115b156121fa575f6121ea6012546135d6565b90506121f86012548261375f565b505b505b6004805460ff1916905560125415612235576012545f9081526018602052604090206006810154600116612233576122338161404e565b505b5f60138190556014556040805181815260098183015268526573657447616d6560b81b606082015242602082015290515f8051602061526d8339815191529181900360800190a15f8051602061522d83398151915260015f42604051610c0b93929190614faf565b60605f60015b600c5460ff6101009091048116908216116122fd576012545f90815260196020908152604080832060ff8086168552925290912054166122eb57816122e781615074565b9250505b806122f58161508c565b9150506122a3565b505f816001600160401b0381111561231757612317615039565b604051908082528060200260200182016040528015612340578160200160208202803683370190505b5090505f60015b600c5460ff6101009091048116908216116123c6576012545f90815260196020908152604080832060ff8086168552925290912054166123b4578083838151811061239457612394614fd8565b60ff90921660209283029190910190910152816123b081615074565b9250505b806123be8161508c565b915050612347565b50909392505050565b6123d76133ff565b601154610100900460ff16156124005760405163eb1a381f60e01b815260040160405180910390fd5b600554604080516080808252600e908201526d1cdd589cd8dc9a5c1d1a5bdb925960921b60a0820152602081019290925281018390523360608201525f8051602061524d8339815191529060c00160405180910390a1600591909155600655565b6124696133ff565b601154610100900460ff16156124925760405163eb1a381f60e01b815260040160405180910390fd5b6011805460ff19168215159081179091555f8051602061524d8339815191529060ff166124bf575f6124c2565b60015b826124cd575f6124d0565b60015b604080516080808252600a908201526967616d6541637469766560b01b60a082015260ff9384166020820152929091169082015233606082015260c001610c0b565b61251a6133ff565b601154610100900460ff16156125435760405163eb1a381f60e01b815260040160405180910390fd5b600880546001600160a01b0319166001600160a01b0383169081179091556040805160808082526013908201527230baba37b6b0ba34b7b72337b93bb0b93232b960691b60a08201525f6020820152908101919091523360608201525f8051602061524d8339815191529060c001610c0b565b6060806060838511156125dc57604051638d4ffd2760e01b815260040160405180910390fd5b6012548411156125ff57604051630e0f29c960e21b815260040160405180910390fd5b5f61260a8686615061565b6126159060016150aa565b9050806001600160401b0381111561262f5761262f615039565b604051908082528060200260200182016040528015612658578160200160208202803683370190505b509350806001600160401b0381111561267357612673615039565b6040519080825280602002602001820160405280156126a657816020015b60608152602001906001900390816126915790505b509250806001600160401b038111156126c1576126c1615039565b6040519080825280602002602001820160405280156126ea578160200160208202803683370190505b5091505f865b86811161280b575f818152601b602090815260408083206001600160a01b038d16845290915290208054156127f8578187848151811061273257612732614fd8565b602002602001018181525050805f018054806020026020016040519081016040528092919081815260200182805480156127a657602002820191905f5260205f20905f905b825461010083900a900460ff168152602060019283018181049485019490930390920291018084116127775790505b50505050508684815181106127bd576127bd614fd8565b602002602001018190525080600101548584815181106127df576127df614fd8565b6020908102919091010152826127f481615074565b9350505b508061280381615074565b9150506126f0565b50505093509350939050565b61281f6133ff565b601154610100900460ff16156128485760405163eb1a381f60e01b815260040160405180910390fd5b475f61285b5f546001600160a01b031690565b6001600160a01b0316826040515f6040518083038185875af1925050503d805f81146128a2576040519150601f19603f3d011682016040523d82523d5f602084013e6128a7565b606091505b50509050806128c9576040516312171d8360e31b815260040160405180910390fd5b6040518281527f36a8cfbf7655e6019c9246e01ded1d727877ea135a5dcc275658e566fab1e978906020015b60405180910390a15050565b6129096133ff565b612911613533565b601154610100900460ff161561293a5760405163eb1a381f60e01b815260040160405180910390fd5b475f81900361295c5760405163bd51224160e01b815260040160405180910390fd5b5f80546040516001600160a01b039091169083908381818185875af1925050503d805f81146129a6576040519150601f19603f3d011682016040523d82523d5f602084013e6129ab565b606091505b50509050806129cd576040516312171d8360e31b815260040160405180910390fd5b6040518281527f36a8cfbf7655e6019c9246e01ded1d727877ea135a5dcc275658e566fab1e9789060200160405180910390a160408051818152600b818301526a15da5d1a191c985dd05b1b60aa1b606082015242602082015290515f8051602061526d8339815191529181900360800190a15050610d136001600355565b612a546133ff565b601154610100900460ff1615612a7d5760405163eb1a381f60e01b815260040160405180910390fd5b82612a898660026150bd565b612a9390886150e1565b612a9d91906150e1565b61ffff1661271014612ac25760405163a4202c7560e01b815260040160405180910390fd5b81612ace8560026150bd565b612ad891906150e1565b61ffff1661271014612afd5760405163b98b646760e01b815260040160405180910390fd5b6127108161ffff161115612b2357604051623437bb60e11b815260040160405180910390fd5b600d546040805160808082526010908201526f77696e6e657250657263656e7461676560801b60a082015261ffff928316602082015291881682820152336060830152515f8051602061524d8339815191529181900360c00190a1600d546040805160808082526012908201527172756e6e6572557050657263656e7461676560701b60a082015261ffff620100009093048316602082015291871682820152336060830152515f8051602061524d8339815191529181900360c00190a1600d54604080516080808252601a908201527f6e6f57696e6e657252756e6e6572557050657263656e7461676500000000000060a082015261ffff6401000000009093048316602082015291861682820152336060830152515f8051602061524d8339815191529181900360c00190a1600d54604080516080808252601d908201527f686f75736557696e6e657253656c656374656450657263656e7461676500000060a082015261ffff600160301b9093048316602082015291851682820152336060830152515f8051602061524d8339815191529181900360c00190a1600d54604080516080808252601f908201527f686f7573654e6f57696e6e657253656c656374656450657263656e746167650060a082015261ffff600160401b9093048316602082015291841682820152336060830152515f8051602061524d8339815191529181900360c00190a1600d5460408051608080825260159082015274636f6e747261637446656550657263656e7461676560581b60a082015261ffff600160501b9093048316602082015291831682820152336060830152515f8051602061524d8339815191529181900360c00190a1600d805461ffff928316600160501b0261ffff60501b19948416600160401b02949094166bffffffff000000000000000019958416600160301b0267ffff00000000000019978516640100000000029790971667ffffffff0000000019988516620100000263ffffffff199093169490991693909317179590951695909517929092171692909217919091179055565b6060806060805f8560ff166012541015612e41576001612e5d565b8560ff16601254612e529190615061565b612e5d9060016150aa565b90505f8660ff166012541015612e7557601254612e7a565b8660ff165b9050806001600160401b03811115612e9457612e94615039565b604051908082528060200260200182016040528015612ebd578160200160208202803683370190505b509550806001600160401b03811115612ed857612ed8615039565b604051908082528060200260200182016040528015612f01578160200160208202803683370190505b509450806001600160401b03811115612f1c57612f1c615039565b604051908082528060200260200182016040528015612f45578160200160208202803683370190505b509350806001600160401b03811115612f6057612f60615039565b604051908082528060200260200182016040528015612f89578160200160208202803683370190505b5092505f825b6012548111613089575f8181526018602052604090206006810154600116156130765781898481518110612fc557612fc5614fd8565b60209081029190910101526003810154885160ff90911690899085908110612fef57612fef614fd8565b602002602001019060ff16908160ff1681525050806002015487848151811061301a5761301a614fd8565b6020026020010181815250508060030160019054906101000a90046001600160a01b031686848151811061305057613050614fd8565b6001600160a01b03909216602092830291909101909101528261307281615074565b9350505b508061308181615074565b915050612f8f565b505050509193509193565b601054606090819060ff161580156130b657505f546001600160a01b03163314155b156130d45760405163147f921960e21b815260040160405180910390fd5b60ff831615806130e75750601460ff8416115b1561310557604051631a49577b60e11b815260040160405180910390fd5b601554839060ff8216111561311957506015545b8060ff166001600160401b0381111561313457613134615039565b60405190808252806020026020018201604052801561315d578160200160208202803683370190505b5092508060ff166001600160401b0381111561317b5761317b615039565b6040519080825280602002602001820160405280156131a4578160200160208202803683370190505b5091505f5b8160ff168160ff1610156132775760158160ff16815481106131cd576131cd614fd8565b905f5260205f2090602091828204019190069054906101000a900460ff16848260ff168151811061320057613200614fd8565b602002602001019060ff16908160ff168152505060168160ff168154811061322a5761322a614fd8565b905f5260205f2090602091828204019190069054906101000a900460ff16838260ff168151811061325d5761325d614fd8565b60ff909216602092830291909101909101526001016131a9565b5050915091565b6132866133ff565b610fb781614065565b6132976133ff565b601154610100900460ff16156132c05760405163eb1a381f60e01b815260040160405180910390fd5b816001036132d5576132d0613c57565b61339d565b816002036132e5576132d0613d0c565b8160030361339d57600360045460ff16600381111561330657613306614d03565b1480156133105750805b15613360576012545f908152601860205260409020600681015460021615801561333d57505f8160020154115b1561335e575f61334e6012546135d6565b905061335c6012548261375f565b505b505b6004805460ff19811690915560405160ff909116905f8051602061522d833981519152906133939083905f904290614faf565b60405180910390a1505b60408051818152600d918101919091526c0506572666f726d55706b65657609c1b60608201524260208201525f8051602061526d833981519152906080016128f5565b5f6133eb82846150fb565b90505b92915050565b5f6133eb8284615126565b5f546001600160a01b03163314610d135760405162461bcd60e51b815260206004820152601660248201527527b7363c9031b0b63630b1363290313c9037bbb732b960511b6044820152606401610d51565b5f81815260186020526040902060028101541561166c576002810180545f91829055906134855f546001600160a01b031690565b6001600160a01b0316826040515f6040518083038185875af1925050503d805f81146134cc576040519150601f19603f3d011682016040523d82523d5f602084013e6134d1565b606091505b50509050806134f357604051633d64dc0760e21b815260040160405180910390fd5b837f9dda03189a87743efde5b387677904d053f74a1f0df131bad661de6fe841bda48360405161352591815260200190565b60405180910390a250505050565b6002600354036135855760405162461bcd60e51b815260206004820152601f60248201527f5265656e7472616e637947756172643a207265656e7472616e742063616c6c006044820152606401610d51565b6002600355565b610d65838383808060200260200160405190810160405280939291908181526020018383602002808284375f9201829052506040805160208101909152908152925061410d915050565b5f8115806135e5575060125482115b1561360357604051630e0f29c960e21b815260040160405180910390fd5b5f82815260186020526040902060068101546002161561362a576003015460ff1692915050565b600c545f90610100900460ff16613642600143615061565b604080519140602083015242908201524460608201526080810186905260a001604051602081830303815290604052805190602001205f1c6136849190615139565b61368f9060016150aa565b60038301805460ff831660ff1990911617905590506136bf82600601805460ff19811660ff909116176002179055565b6136c88161422f565b60405160ff8216815284907f523a23427aafe34095e33ba2702feaa83701e0aac1990f107796434f0263886c9060200160405180910390a26040805160ff831681526020810182905260098183015268456d657267656e637960b81b6060820152905185917fcc8842f120d538b92091ad9afb91b92274288f32fbd1ad2009af1483780d2b1f919081900360800190a29392505050565b5f82815260186020526040812060028101549091819003613783576112078261404e565b5f848152601a6020908152604080832060ff80881685529083528184205482518084018452858152808501959095528251808401909352818352928201526001600160a01b03909116919060015b600c5460ff61010090910481169082161161391c578660ff168160ff16031561390a575f888152601a6020908152604080832060ff851684529091529020546001600160a01b031680613824575061390a565b5f8860ff168360ff16111561386d576138666138408a8561514c565b600c54859061385790610100900460ff168d615165565b613861919061514c565b61471a565b9050613894565b61389161387a848b61514c565b600c548b9061385790610100900460ff1687615165565b90505b835160ff90811690821610156138d657835160ff90811660208087019190915286516001600160a01b0390811691880191909152908216855282168552613907565b836001602002015160ff168160ff1610156139075760ff81166020808601919091526001600160a01b038316908601525b50505b806139148161508c565b9150506137d1565b505f80806001600160a01b038616156139f257600d546139499061271090610b62908a9061ffff166133e0565b600d5490935061396c9061271090610b62908a9062010000900461ffff166133e0565b600d549092506139909061271090610b62908a90600160301b900461ffff166133e0565b6001600160a01b0387165f908152601c60205260409020549091506139b59084613ebc565b6001600160a01b0387165f818152601c6020526040902091909155600389018054610100600160a81b031916610100909202919091179055613a3e565b600d545f9350613a179061271090610b62908a90640100000000900461ffff166133e0565b600d54909250613a3b9061271090610b62908a90600160401b900461ffff166133e0565b90505b5f805b60028160ff161015613b24575f8760ff831660028110613a6357613a63614fd8565b60200201516001600160a01b031614613b0f57613ac584601c5f8a8560ff1660028110613a9257613a92614fd8565b60200201516001600160a01b03166001600160a01b031681526020019081526020015f2054613ebc90919063ffffffff16565b601c5f898460ff1660028110613add57613add614fd8565b602090810291909101516001600160a01b031682528101919091526040015f2055613b088285613ebc565b9150613b1c565b613b198385613ebc565b92505b600101613a41565b50613b3460048a018760026147c4565b508115613be957600d545f90613b5e9061271090610b62908690600160501b900461ffff166133e0565b90505f613b6b8483613c4c565b90508015613be6575f80546040516001600160a01b039091169083908381818185875af1925050503d805f8114613bbd576040519150601f19603f3d011682016040523d82523d5f602084013e613bc2565b606091505b5050905080613be4576040516327c94e2160e11b815260040160405180910390fd5b505b50505b613bf28961404e565b6040518b907f5e2a1d89766a75ce71edd56466e97b6f79ebd9b2900eac9da0808dc577412e3790613c37908a908a90899089906001600160a01b03851615159061517e565b60405180910390a25050505050505050505050565b5f6133eb8284615061565b6012545f908152601860205260409020426001820155613c8881600601805460ff19811660ff909116176008179055565b60048054600260ff198216811790925560405160ff909116915f8051602061522d83398151915291613cbd9184914290614faf565b60405180910390a160125460028301546040805142815260208101929092527fc5285db7d8a9c3a0ce0e8982ff9a84fe8df355101d9545735558c69efb4aad5791015b60405180910390a25050565b6012545f908152601860205260409020600281015415613e7e576002546040805160c0810182526006548152600554602080830191909152600382840152622625a060608301526001608083015282519081019092525f808352926001600160a01b031691639b1c385e919060a0820190613d8690614735565b8152506040518263ffffffff1660e01b8152600401613da591906151b9565b6020604051808303815f875af1158015613dc1573d5f803e3d5ffd5b505050506040513d601f19601f82011682018060405250810190613de59190615215565b6012545f828152600760205260409020559050613e1382600601805460ff19811660ff909116176004179055565b6012546040518281527f05a7714ffa9c24d72553c49c132db52354eb21df8a76cefa9def229b276feeb49060200160405180910390a260048054600360ff198216811790925560405160ff909116915f8051602061522d83398151915291610e859184914290614faf565b613e878161404e565b60048054600360ff198216811790925560405160ff909116915f8051602061522d833981519152916128f59184914290614faf565b5f6133eb82846150aa565b60048054600160ff198216811790925560405160ff909116915f8051602061522d83398151915291613efc9184914290614faf565b60405180910390a1601254613f12906001613ebc565b601255426013819055600954613f289190613ebc565b60148190556040805160e081018252601354815260208082019384525f82840181815260608401828152608085018381528651808801885284815280860185905260a0870190815260c087018590526012548552601890955295909220845181559551600187015551600280870191909155905160038601805495516001600160a01b0316610100026001600160a81b031990961660ff92909216919091179490941790935551909291613fe09160048401916147c4565b5060c091909101516006909101805460ff191660ff9092169190911790556012546013546014546040805192835260208301919091526001600160a01b038516908201527f193d08ee6856c7f1f6aeb8755e405619768fc664c613b4c793347f3bbe627b2590606001613d00565b600601805460ff19811660ff909116176001179055565b336001600160a01b038216036140bd5760405162461bcd60e51b815260206004820152601760248201527f43616e6e6f74207472616e7366657220746f2073656c660000000000000000006044820152606401610d51565b600180546001600160a01b0319166001600160a01b038381169182179092555f8054604051929316917fed8889f560326eb138920d842192f0eb3dd22b4f139c87a2c57538e05bae12789190a350565b5f838152600760205260408120549081900361413c576040516302e8145360e61b815260040160405180910390fd5b5f81815260186020526040902060068101546002161561416f576040516366b05b0760e11b815260040160405180910390fd5b600c5484515f91610100900460ff16908690839061418f5761418f614fd8565b60200260200101516141a19190615139565b6141ac9060016150aa565b60038301805460ff831660ff1990911617905590506141dc82600601805460ff19811660ff909116176002179055565b6141e58161422f565b60405160ff8216815283907f523a23427aafe34095e33ba2702feaa83701e0aac1990f107796434f0263886c9060200160405180910390a2614227838261375f565b505050505050565b60ff81165f9081526017602052604090205461424c906001613ebc565b60ff8083165f90815260176020526040812092909255600c546101009004166001600160401b0381111561428257614282615039565b6040519080825280602002602001820160405280156142ab578160200160208202803683370190505b50600c549091505f90610100900460ff166001600160401b038111156142d3576142d3615039565b6040519080825280602002602001820160405280156142fc578160200160208202803683370190505b50905060015b600c5460ff61010090910481169082161161439857808361432460018361514c565b60ff168151811061433757614337614fd8565b60ff9283166020918202929092018101919091529082165f908152601790915260409020548261436860018461514c565b60ff168151811061437b5761437b614fd8565b6020908102919091010152806143908161508c565b915050614302565b50600c545f90610100900460ff166014116143b45760146143c0565b600c54610100900460ff165b90505f5b8160ff1681101561454357805f6143dc8260016150aa565b90505b600c54610100900460ff168110156144375784828151811061440357614403614fd8565b602002602001015185828151811061441d5761441d614fd8565b6020026020010151111561442f578091505b6001016143df565b5081811461453a575f84838151811061445257614452614fd8565b6020026020010151905084828151811061446e5761446e614fd8565b602002602001015185848151811061448857614488614fd8565b602002602001018181525050808583815181106144a7576144a7614fd8565b6020026020010181815250505f8684815181106144c6576144c6614fd8565b602002602001015190508683815181106144e2576144e2614fd8565b60200260200101518785815181106144fc576144fc614fd8565b602002602001019060ff16908160ff16815250508087848151811061452357614523614fd8565b602002602001019060ff16908160ff168152505050505b506001016143c4565b5061454f60155f61481c565b8060ff166001600160401b0381111561456a5761456a615039565b604051908082528060200260200182016040528015614593578160200160208202803683370190505b5080516145a89160159160209091019061483e565b505f5b8160ff16811015614618578381815181106145c8576145c8614fd8565b6020026020010151601582815481106145e3576145e3614fd8565b905f5260205f2090602091828204019190066101000a81548160ff021916908360ff16021790555080806001019150506145ab565b5061462460165f61481c565b8060ff166001600160401b0381111561463f5761463f615039565b604051908082528060200260200182016040528015614668578160200160208202803683370190505b50805161467d9160169160209091019061483e565b505f5b8160ff1681101561471357600c54849082906146a690600190610100900460ff1661514c565b60ff166146b39190615061565b815181106146c3576146c3614fd8565b6020026020010151601682815481106146de576146de614fd8565b905f5260205f2090602091828204019190066101000a81548160ff021916908360ff1602179055508080600101915050614680565b5050505050565b5f8160ff168360ff161061472e57816133eb565b5090919050565b60607f92fd13387c7fe7befbc38d303d6468778fb9731bc4583f17d92989c6fcfdeaaa8260405160240161476e91511515815260200190565b60408051601f198184030181529190526020810180516001600160e01b03166001600160e01b03199093169290921790915292915050565b60405180604001604052806002906020820280368337509192915050565b826002810192821561480c579160200282015b8281111561480c57825182546001600160a01b0319166001600160a01b039091161782556020909201916001909101906147d7565b506148189291506148d6565b5090565b5080545f8255601f0160209004905f5260205f2090810190610fb791906148d6565b828054828255905f5260205f2090601f0160209004810192821561480c579160200282015f5b838211156148a157835183826101000a81548160ff021916908360ff16021790555092602001926001016020815f01049283019260010302614864565b80156148cd5782816101000a81549060ff02191690556001016020815f010492830192600103026148a1565b50506148189291505b5b80821115614818575f81556001016148d7565b5f602082840312156148fa575f80fd5b5035919050565b5f8083601f840112614911575f80fd5b5081356001600160401b03811115614927575f80fd5b6020830191508360208260051b8501011115611968575f80fd5b5f805f60408486031215614953575f80fd5b8335925060208401356001600160401b0381111561496f575f80fd5b61497b86828701614901565b9497909650939450505050565b80358015158114614997575f80fd5b919050565b5f80604083850312156149ad575f80fd5b8235600481106149bb575f80fd5b91506149c960208401614988565b90509250929050565b5f80602083850312156149e3575f80fd5b82356001600160401b038111156149f8575f80fd5b8301601f81018513614a08575f80fd5b80356001600160401b03811115614a1d575f80fd5b856020828401011115614a2e575f80fd5b6020919091019590945092505050565b5f8060208385031215614a4f575f80fd5b82356001600160401b03811115614a64575f80fd5b614a7085828601614901565b90969095509350505050565b5f8060408385031215614a8d575f80fd5b823591506149c960208401614988565b5f81518084528060208401602086015e5f602082860101526020601f19601f83011685010191505092915050565b8215158152604060208201525f614ae56040830184614a9d565b949350505050565b803560ff81168114614997575f80fd5b5f805f805f60a08688031215614b11575f80fd5b853594506020860135935060408601359250614b2f60608701614aed565b9150614b3d60808701614aed565b90509295509295909350565b80356001600160a01b0381168114614997575f80fd5b5f60208284031215614b6f575f80fd5b6133eb82614b49565b5f8060408385031215614b89575f80fd5b50508035926020909101359150565b805f5b60028110156112075781516001600160a01b0316845260209384019390910190600101614b9b565b888152602081018890526040810187905260ff861660608201526001600160a01b03851660808201526101208101614bfe60a0830186614b98565b92151560e0820152901515610100909101529695505050505050565b5f60208284031215614c2a575f80fd5b6133eb82614988565b5f8060408385031215614c44575f80fd5b823591506149c960208401614aed565b5f8060408385031215614c65575f80fd5b614c6e83614b49565b946020939093013593505050565b5f8151808452602084019350602083015f5b82811015614caf57815160ff16865260209586019590910190600101614c8e565b5093949350505050565b606081525f614ccb6060830186614c7c565b602083019490945250901515604090910152919050565b5f8060408385031215614cf3575f80fd5b823591506149c960208401614b49565b634e487b7160e01b5f52602160045260245ffd5b60048110614d3357634e487b7160e01b5f52602160045260245ffd5b9052565b848152602081018490526040810183905260808101614d596060830184614d17565b95945050505050565b602081525f6133eb6020830184614c7c565b602081016133ee8284614d17565b5f805f60608486031215614d94575f80fd5b614d9d84614b49565b95602085013595506040909401359392505050565b5f8151808452602084019350602083015f5b82811015614caf578151865260209586019590910190600101614dc4565b606081525f614df46060830186614db2565b828103602084015280855180835260208301915060208160051b840101602088015f5b83811015614e4957601f19868403018552614e33838351614c7c565b6020958601959093509190910190600101614e17565b50508581036040870152614e5d8188614db2565b9998505050505050505050565b803561ffff81168114614997575f80fd5b5f805f805f8060c08789031215614e90575f80fd5b614e9987614e6a565b9550614ea760208801614e6a565b9450614eb560408801614e6a565b9350614ec360608801614e6a565b9250614ed160808801614e6a565b9150614edf60a08801614e6a565b90509295509295509295565b5f60208284031215614efb575f80fd5b6133eb82614aed565b608081525f614f166080830187614db2565b8281036020840152614f288187614c7c565b90508281036040840152614f3c8186614db2565b8381036060850152845180825260208087019350909101905f5b81811015614f7d5783516001600160a01b0316835260209384019390920191600101614f56565b509098975050505050505050565b604081525f614f9d6040830185614c7c565b8281036020840152614d598185614c7c565b60608101614fbd8286614d17565b614fca6020830185614d17565b826040830152949350505050565b634e487b7160e01b5f52603260045260245ffd5b604080825281018390525f8460608301825b868110156150265760ff61501184614aed565b16825260209283019290910190600101614ffe565b5060209390930193909352509392505050565b634e487b7160e01b5f52604160045260245ffd5b634e487b7160e01b5f52601160045260245ffd5b818103818111156133ee576133ee61504d565b5f600182016150855761508561504d565b5060010190565b5f60ff821660ff81036150a1576150a161504d565b60010192915050565b808201808211156133ee576133ee61504d565b61ffff81811683821602908116908181146150da576150da61504d565b5092915050565b61ffff81811683821601908111156133ee576133ee61504d565b80820281158282048414176133ee576133ee61504d565b634e487b7160e01b5f52601260045260245ffd5b5f8261513457615134615112565b500490565b5f8261514757615147615112565b500690565b60ff82811682821603908111156133ee576133ee61504d565b60ff81811683821601908111156133ee576133ee61504d565b6001600160a01b038616815260c0810161519b6020830187614b98565b84606083015283608083015282151560a08301529695505050505050565b60208152815160208201526020820151604082015261ffff604083015116606082015263ffffffff606083015116608082015263ffffffff60808301511660a08201525f60a083015160c080840152614ae560e0840182614a9d565b5f60208284031215615225575f80fd5b505191905056fe6fbde3892af9ab6c926c43d926f872e5ffa09f06ffb3c950a72d705b1b70e36c85eef197750993023482cb89b09a15e97e7b33cfeebd3870ad19854a47b6759fccc094e5197cb87b7cce187295edfe462288810d012fdc4708cf6982cd1607d5a39c7eb3715d64e66fea8bbd1c52cae8eb91325e4de74e9e07cb7592fc25711ea26469706673582212202239eeae08db41230eabe5fddf4c62450df5d827c12cdfed1ae9df2da22027b464736f6c634300081a0033",
			"opcodes": "PUSH1 0x80 PUSH1 0x40 MSTORE PUSH1 0x11 DUP1 SLOAD PUSH2 0xFFFF NOT AND PUSH1 0x1 OR SWAP1 SSTORE PUSH0 PUSH1 0x12 DUP2 SWAP1 SSTORE PUSH1 0x13 DUP2 SWAP1 SSTORE PUSH1 0x14 SSTORE CALLVALUE DUP1 ISZERO PUSH2 0x2B JUMPI PUSH0 DUP1 REVERT JUMPDEST POP PUSH1 0x40 MLOAD PUSH2 0x56E5 CODESIZE SUB DUP1 PUSH2 0x56E5 DUP4 CODECOPY DUP2 ADD PUSH1 0x40 DUP2 SWAP1 MSTORE PUSH2 0x4A SWAP2 PUSH2 0x3B7 JUMP JUMPDEST DUP3 CALLER DUP1 PUSH0 DUP2 PUSH2 0xA0 JUMPI PUSH1 0x40 MLOAD PUSH3 0x461BCD PUSH1 0xE5 SHL DUP2 MSTORE PUSH1 0x20 PUSH1 0x4 DUP3 ADD MSTORE PUSH1 0x18 PUSH1 0x24 DUP3 ADD MSTORE PUSH32 0x43616E6E6F7420736574206F776E657220746F207A65726F0000000000000000 PUSH1 0x44 DUP3 ADD MSTORE PUSH1 0x64 ADD JUMPDEST PUSH1 0x40 MLOAD DUP1 SWAP2 SUB SWAP1 REVERT JUMPDEST PUSH0 DUP1 SLOAD PUSH1 0x1 PUSH1 0x1 PUSH1 0xA0 SHL SUB NOT AND PUSH1 0x1 PUSH1 0x1 PUSH1 0xA0 SHL SUB DUP5 DUP2 AND SWAP2 SWAP1 SWAP2 OR SWAP1 SWAP2 SSTORE DUP2 AND ISZERO PUSH2 0xCF JUMPI PUSH2 0xCF DUP2 PUSH2 0x25A JUMP JUMPDEST POP POP POP PUSH1 0x1 PUSH1 0x1 PUSH1 0xA0 SHL SUB DUP2 AND PUSH2 0xF9 JUMPI PUSH1 0x40 MLOAD PUSH4 0xD92E233D PUSH1 0xE0 SHL DUP2 MSTORE PUSH1 0x4 ADD PUSH1 0x40 MLOAD DUP1 SWAP2 SUB SWAP1 REVERT JUMPDEST PUSH1 0x2 DUP1 SLOAD PUSH1 0x1 PUSH1 0x1 PUSH1 0xA0 SHL SUB NOT AND PUSH1 0x1 PUSH1 0x1 PUSH1 0xA0 SHL SUB SWAP3 SWAP1 SWAP3 AND SWAP2 SWAP1 SWAP2 OR SWAP1 SSTORE PUSH1 0x1 PUSH1 0x3 DUP2 SWAP1 SSTORE PUSH1 0x5 DUP4 SWAP1 SSTORE PUSH1 0x6 DUP3 SWAP1 SSTORE PUSH1 0x4 DUP1 SLOAD PUSH1 0xFF NOT SWAP1 DUP2 AND SWAP1 SWAP2 SSTORE PUSH1 0x40 DUP1 MLOAD PUSH1 0xC0 DUP1 DUP3 ADD DUP4 MSTORE PUSH2 0x258 DUP1 DUP4 MSTORE PUSH1 0x3C PUSH1 0x20 DUP1 DUP6 ADD DUP3 SWAP1 MSTORE PUSH7 0x38D7EA4C68000 DUP6 DUP8 ADD DUP2 SWAP1 MSTORE PUSH1 0xA PUSH1 0x60 DUP1 DUP9 ADD DUP3 SWAP1 MSTORE PUSH1 0x64 PUSH1 0x80 DUP1 DUP11 ADD SWAP2 SWAP1 SWAP2 MSTORE PUSH1 0xA0 SWAP9 DUP10 ADD DUP4 SWAP1 MSTORE PUSH1 0x9 SWAP7 SWAP1 SWAP7 SSTORE SWAP4 SWAP1 SSTORE PUSH1 0xB SSTORE PUSH1 0xC DUP1 SLOAD PUSH3 0xA640A PUSH3 0xFFFFFF NOT SWAP1 SWAP2 AND OR SWAP1 SSTORE DUP6 MLOAD SWAP4 DUP5 ADD DUP7 MSTORE PUSH2 0x2328 DUP5 MSTORE PUSH2 0x190 DUP5 DUP3 ADD MSTORE PUSH2 0x9C4 DUP5 DUP8 ADD MSTORE PUSH1 0xC8 DUP5 DUP4 ADD MSTORE PUSH2 0x1388 SWAP3 DUP5 ADD SWAP3 SWAP1 SWAP3 MSTORE PUSH0 SWAP3 SWAP1 SWAP4 ADD DUP3 SWAP1 MSTORE PUSH1 0xD DUP1 SLOAD PUSH1 0x1 PUSH1 0x1 PUSH1 0x60 SHL SUB NOT AND PUSH10 0x138800C809C401902328 OR SWAP1 SSTORE DUP4 MLOAD SWAP3 DUP4 ADD DUP5 MSTORE PUSH1 0xF DUP1 DUP5 MSTORE PUSH1 0x14 DUP5 DUP4 ADD DUP2 SWAP1 MSTORE SWAP4 DUP6 ADD DUP8 SWAP1 MSTORE PUSH1 0xE DUP2 SWAP1 SSTORE SWAP3 SWAP1 SWAP3 SSTORE PUSH1 0x10 DUP1 SLOAD SWAP1 SWAP5 AND SWAP1 SWAP5 OR SWAP1 SWAP3 SSTORE DUP1 MLOAD SWAP3 DUP4 MSTORE SWAP1 DUP3 ADD SWAP1 DUP2 SWAP1 MSTORE SWAP1 MLOAD PUSH2 0x234 SWAP2 PUSH1 0x15 SWAP2 PUSH2 0x302 JUMP JUMPDEST POP PUSH1 0x40 DUP1 MLOAD PUSH0 DUP2 MSTORE PUSH1 0x20 DUP2 ADD SWAP2 DUP3 SWAP1 MSTORE MLOAD PUSH2 0x251 SWAP2 PUSH1 0x16 SWAP2 PUSH2 0x302 JUMP JUMPDEST POP POP POP POP PUSH2 0x3F6 JUMP JUMPDEST CALLER PUSH1 0x1 PUSH1 0x1 PUSH1 0xA0 SHL SUB DUP3 AND SUB PUSH2 0x2B2 JUMPI PUSH1 0x40 MLOAD PUSH3 0x461BCD PUSH1 0xE5 SHL DUP2 MSTORE PUSH1 0x20 PUSH1 0x4 DUP3 ADD MSTORE PUSH1 0x17 PUSH1 0x24 DUP3 ADD MSTORE PUSH32 0x43616E6E6F74207472616E7366657220746F2073656C66000000000000000000 PUSH1 0x44 DUP3 ADD MSTORE PUSH1 0x64 ADD PUSH2 0x97 JUMP JUMPDEST PUSH1 0x1 DUP1 SLOAD PUSH1 0x1 PUSH1 0x1 PUSH1 0xA0 SHL SUB NOT AND PUSH1 0x1 PUSH1 0x1 PUSH1 0xA0 SHL SUB DUP4 DUP2 AND SWAP2 DUP3 OR SWAP1 SWAP3 SSTORE PUSH0 DUP1 SLOAD PUSH1 0x40 MLOAD SWAP3 SWAP4 AND SWAP2 PUSH32 0xED8889F560326EB138920D842192F0EB3DD22B4F139C87A2C57538E05BAE1278 SWAP2 SWAP1 LOG3 POP JUMP JUMPDEST DUP3 DUP1 SLOAD DUP3 DUP3 SSTORE SWAP1 PUSH0 MSTORE PUSH1 0x20 PUSH0 KECCAK256 SWAP1 PUSH1 0x1F ADD PUSH1 0x20 SWAP1 DIV DUP2 ADD SWAP3 DUP3 ISZERO PUSH2 0x393 JUMPI SWAP2 PUSH1 0x20 MUL DUP3 ADD PUSH0 JUMPDEST DUP4 DUP3 GT ISZERO PUSH2 0x365 JUMPI DUP4 MLOAD DUP4 DUP3 PUSH2 0x100 EXP DUP2 SLOAD DUP2 PUSH1 0xFF MUL NOT AND SWAP1 DUP4 PUSH1 0xFF AND MUL OR SWAP1 SSTORE POP SWAP3 PUSH1 0x20 ADD SWAP3 PUSH1 0x1 ADD PUSH1 0x20 DUP2 PUSH0 ADD DIV SWAP3 DUP4 ADD SWAP3 PUSH1 0x1 SUB MUL PUSH2 0x328 JUMP JUMPDEST DUP1 ISZERO PUSH2 0x391 JUMPI DUP3 DUP2 PUSH2 0x100 EXP DUP2 SLOAD SWAP1 PUSH1 0xFF MUL NOT AND SWAP1 SSTORE PUSH1 0x1 ADD PUSH1 0x20 DUP2 PUSH0 ADD DIV SWAP3 DUP4 ADD SWAP3 PUSH1 0x1 SUB MUL PUSH2 0x365 JUMP JUMPDEST POP JUMPDEST POP PUSH2 0x39F SWAP3 SWAP2 POP PUSH2 0x3A3 JUMP JUMPDEST POP SWAP1 JUMP JUMPDEST JUMPDEST DUP1 DUP3 GT ISZERO PUSH2 0x39F JUMPI PUSH0 DUP2 SSTORE PUSH1 0x1 ADD PUSH2 0x3A4 JUMP JUMPDEST PUSH0 DUP1 PUSH0 PUSH1 0x60 DUP5 DUP7 SUB SLT ISZERO PUSH2 0x3C9 JUMPI PUSH0 DUP1 REVERT JUMPDEST DUP4 MLOAD PUSH1 0x1 PUSH1 0x1 PUSH1 0xA0 SHL SUB DUP2 AND DUP2 EQ PUSH2 0x3DF JUMPI PUSH0 DUP1 REVERT JUMPDEST PUSH1 0x20 DUP6 ADD MLOAD PUSH1 0x40 SWAP1 SWAP6 ADD MLOAD SWAP1 SWAP7 SWAP5 SWAP6 POP SWAP4 SWAP3 POP POP POP JUMP JUMPDEST PUSH2 0x52E2 DUP1 PUSH2 0x403 PUSH0 CODECOPY PUSH0 RETURN INVALID PUSH1 0x80 PUSH1 0x40 MSTORE PUSH1 0x4 CALLDATASIZE LT PUSH2 0x2CC JUMPI PUSH0 CALLDATALOAD PUSH1 0xE0 SHR DUP1 PUSH4 0x926EAE5B GT PUSH2 0x174 JUMPI DUP1 PUSH4 0xD40D17BC GT PUSH2 0xDB JUMPI DUP1 PUSH4 0xE40205D6 GT PUSH2 0x94 JUMPI DUP1 PUSH4 0xEB79F1AD GT PUSH2 0x6E JUMPI DUP1 PUSH4 0xEB79F1AD EQ PUSH2 0xAAE JUMPI DUP1 PUSH4 0xF020044F EQ PUSH2 0xAED JUMPI DUP1 PUSH4 0xF2FDE38B EQ PUSH2 0xB06 JUMPI DUP1 PUSH4 0xFED7467B EQ PUSH2 0xB25 JUMPI PUSH2 0x309 JUMP JUMPDEST DUP1 PUSH4 0xE40205D6 EQ PUSH2 0xA3D JUMPI DUP1 PUSH4 0xE72EC30B EQ PUSH2 0xA52 JUMPI DUP1 PUSH4 0xE8A38986 EQ PUSH2 0xA81 JUMPI PUSH2 0x309 JUMP JUMPDEST DUP1 PUSH4 0xD40D17BC EQ PUSH2 0x994 JUMPI DUP1 PUSH4 0xD46588BF EQ PUSH2 0x9B3 JUMPI DUP1 PUSH4 0xDB2E21BC EQ PUSH2 0x9E1 JUMPI DUP1 PUSH4 0xDD191719 EQ PUSH2 0x9F5 JUMPI DUP1 PUSH4 0xDD4F8F74 EQ PUSH2 0xA09 JUMPI DUP1 PUSH4 0xDE8EBC57 EQ PUSH2 0xA1E JUMPI PUSH2 0x309 JUMP JUMPDEST DUP1 PUSH4 0xB7D0628B GT PUSH2 0x12D JUMPI DUP1 PUSH4 0xB7D0628B EQ PUSH2 0x8CC JUMPI DUP1 PUSH4 0xB8578E44 EQ PUSH2 0x8F0 JUMPI DUP1 PUSH4 0xBB486D75 EQ PUSH2 0x90F JUMPI DUP1 PUSH4 0xC72187FD EQ PUSH2 0x930 JUMPI DUP1 PUSH4 0xCCC08974 EQ PUSH2 0x94F JUMPI DUP1 PUSH4 0xD1F9C24D EQ PUSH2 0x96E JUMPI PUSH2 0x309 JUMP JUMPDEST DUP1 PUSH4 0x926EAE5B EQ PUSH2 0x7BA JUMPI DUP1 PUSH4 0x9C4780D8 EQ PUSH2 0x7D9 JUMPI DUP1 PUSH4 0x9D5B1E72 EQ PUSH2 0x7EE JUMPI DUP1 PUSH4 0x9ECCACF6 EQ PUSH2 0x827 JUMPI DUP1 PUSH4 0xA7C06732 EQ PUSH2 0x846 JUMPI DUP1 PUSH4 0xB1BC1B57 EQ PUSH2 0x874 JUMPI PUSH2 0x309 JUMP JUMPDEST DUP1 PUSH4 0x4AD6562D GT PUSH2 0x233 JUMPI DUP1 PUSH4 0x79BA5097 GT PUSH2 0x1EC JUMPI DUP1 PUSH4 0x88C3FFB0 GT PUSH2 0x1C6 JUMPI DUP1 PUSH4 0x88C3FFB0 EQ PUSH2 0x6B0 JUMPI DUP1 PUSH4 0x8C65C81F EQ PUSH2 0x6E3 JUMPI DUP1 PUSH4 0x8DA5CB5B EQ PUSH2 0x77F JUMPI DUP1 PUSH4 0x8EA98117 EQ PUSH2 0x79B JUMPI PUSH2 0x309 JUMP JUMPDEST DUP1 PUSH4 0x79BA5097 EQ PUSH2 0x669 JUMPI DUP1 PUSH4 0x7B18DE37 EQ PUSH2 0x67D JUMPI DUP1 PUSH4 0x874369CF EQ PUSH2 0x69C JUMPI PUSH2 0x309 JUMP JUMPDEST DUP1 PUSH4 0x4AD6562D EQ PUSH2 0x5AE JUMPI DUP1 PUSH4 0x4E789A8B EQ PUSH2 0x5C1 JUMPI DUP1 PUSH4 0x6E04FF0D EQ PUSH2 0x5E0 JUMPI DUP1 PUSH4 0x6F9FB98A EQ PUSH2 0x60D JUMPI DUP1 PUSH4 0x72BFBE86 EQ PUSH2 0x61F JUMPI DUP1 PUSH4 0x784712F2 EQ PUSH2 0x63E JUMPI PUSH2 0x309 JUMP JUMPDEST DUP1 PUSH4 0x1FE543E3 GT PUSH2 0x285 JUMPI DUP1 PUSH4 0x1FE543E3 EQ PUSH2 0x4CD JUMPI DUP1 PUSH4 0x2DAFF459 EQ PUSH2 0x4EC JUMPI DUP1 PUSH4 0x311E5492 EQ PUSH2 0x50B JUMPI DUP1 PUSH4 0x33F707D1 EQ PUSH2 0x539 JUMPI DUP1 PUSH4 0x3B2786CB EQ PUSH2 0x558 JUMPI DUP1 PUSH4 0x4585E33B EQ PUSH2 0x58F JUMPI PUSH2 0x309 JUMP JUMPDEST DUP1 PUSH4 0x462D291 EQ PUSH2 0x33B JUMPI DUP1 PUSH4 0xC8587E1 EQ PUSH2 0x362 JUMPI DUP1 PUSH4 0xD578D18 EQ PUSH2 0x3EC JUMPI DUP1 PUSH4 0x10CE1C5A EQ PUSH2 0x40D JUMPI DUP1 PUSH4 0x1176829D EQ PUSH2 0x421 JUMPI DUP1 PUSH4 0x1EAED4FF EQ PUSH2 0x48F JUMPI PUSH2 0x309 JUMP JUMPDEST CALLDATASIZE PUSH2 0x309 JUMPI PUSH1 0x40 MLOAD CALLVALUE DUP2 MSTORE CALLER SWAP1 PUSH32 0x939F6F4877FAF071412E527BC4C6D0BD65AD077E52B57334F7765265647A7F1 SWAP1 PUSH1 0x20 ADD JUMPDEST PUSH1 0x40 MLOAD DUP1 SWAP2 SUB SWAP1 LOG2 STOP JUMPDEST PUSH1 0x40 MLOAD CALLVALUE DUP2 MSTORE CALLER SWAP1 PUSH32 0x939F6F4877FAF071412E527BC4C6D0BD65AD077E52B57334F7765265647A7F1 SWAP1 PUSH1 0x20 ADD PUSH2 0x2FF JUMP JUMPDEST CALLVALUE DUP1 ISZERO PUSH2 0x346 JUMPI PUSH0 DUP1 REVERT JUMPDEST POP PUSH2 0x34F PUSH2 0xB44 JUMP JUMPDEST PUSH1 0x40 MLOAD SWAP1 DUP2 MSTORE PUSH1 0x20 ADD JUMPDEST PUSH1 0x40 MLOAD DUP1 SWAP2 SUB SWAP1 RETURN JUMPDEST CALLVALUE DUP1 ISZERO PUSH2 0x36D JUMPI PUSH0 DUP1 REVERT JUMPDEST POP PUSH1 0xD SLOAD PUSH2 0x3AF SWAP1 PUSH2 0xFFFF DUP1 DUP3 AND SWAP2 PUSH3 0x10000 DUP2 DIV DUP3 AND SWAP2 PUSH5 0x100000000 DUP3 DIV DUP2 AND SWAP2 PUSH1 0x1 PUSH1 0x30 SHL DUP2 DIV DUP3 AND SWAP2 PUSH1 0x1 PUSH1 0x40 SHL DUP3 DIV DUP2 AND SWAP2 PUSH1 0x1 PUSH1 0x50 SHL SWAP1 DIV AND DUP7 JUMP JUMPDEST PUSH1 0x40 DUP1 MLOAD PUSH2 0xFFFF SWAP8 DUP9 AND DUP2 MSTORE SWAP6 DUP8 AND PUSH1 0x20 DUP8 ADD MSTORE SWAP4 DUP7 AND SWAP4 DUP6 ADD SWAP4 SWAP1 SWAP4 MSTORE SWAP1 DUP5 AND PUSH1 0x60 DUP5 ADD MSTORE DUP4 AND PUSH1 0x80 DUP4 ADD MSTORE SWAP1 SWAP2 AND PUSH1 0xA0 DUP3 ADD MSTORE PUSH1 0xC0 ADD PUSH2 0x359 JUMP JUMPDEST CALLVALUE DUP1 ISZERO PUSH2 0x3F7 JUMPI PUSH0 DUP1 REVERT JUMPDEST POP PUSH2 0x40B PUSH2 0x406 CALLDATASIZE PUSH1 0x4 PUSH2 0x48EA JUMP JUMPDEST PUSH2 0xB6D JUMP JUMPDEST STOP JUMPDEST CALLVALUE DUP1 ISZERO PUSH2 0x418 JUMPI PUSH0 DUP1 REVERT JUMPDEST POP PUSH2 0x40B PUSH2 0xC16 JUMP JUMPDEST CALLVALUE DUP1 ISZERO PUSH2 0x42C JUMPI PUSH0 DUP1 REVERT JUMPDEST POP PUSH1 0x9 SLOAD PUSH1 0xA SLOAD PUSH1 0xB SLOAD PUSH1 0xC SLOAD PUSH2 0x459 SWAP4 SWAP3 SWAP2 SWAP1 PUSH1 0xFF DUP1 DUP3 AND SWAP2 PUSH2 0x100 DUP2 DIV DUP3 AND SWAP2 PUSH3 0x10000 SWAP1 SWAP2 DIV AND DUP7 JUMP JUMPDEST PUSH1 0x40 DUP1 MLOAD SWAP7 DUP8 MSTORE PUSH1 0x20 DUP8 ADD SWAP6 SWAP1 SWAP6 MSTORE SWAP4 DUP6 ADD SWAP3 SWAP1 SWAP3 MSTORE PUSH1 0xFF SWAP1 DUP2 AND PUSH1 0x60 DUP6 ADD MSTORE SWAP1 DUP2 AND PUSH1 0x80 DUP5 ADD MSTORE AND PUSH1 0xA0 DUP3 ADD MSTORE PUSH1 0xC0 ADD PUSH2 0x359 JUMP JUMPDEST CALLVALUE DUP1 ISZERO PUSH2 0x49A JUMPI PUSH0 DUP1 REVERT JUMPDEST POP PUSH1 0xE SLOAD PUSH1 0xF SLOAD PUSH1 0x10 SLOAD PUSH2 0x4B0 SWAP3 SWAP2 SWAP1 PUSH1 0xFF AND DUP4 JUMP JUMPDEST PUSH1 0x40 DUP1 MLOAD SWAP4 DUP5 MSTORE PUSH1 0x20 DUP5 ADD SWAP3 SWAP1 SWAP3 MSTORE ISZERO ISZERO SWAP1 DUP3 ADD MSTORE PUSH1 0x60 ADD PUSH2 0x359 JUMP JUMPDEST CALLVALUE DUP1 ISZERO PUSH2 0x4D8 JUMPI PUSH0 DUP1 REVERT JUMPDEST POP PUSH2 0x40B PUSH2 0x4E7 CALLDATASIZE PUSH1 0x4 PUSH2 0x4941 JUMP JUMPDEST PUSH2 0xD15 JUMP JUMPDEST CALLVALUE DUP1 ISZERO PUSH2 0x4F7 JUMPI PUSH0 DUP1 REVERT JUMPDEST POP PUSH2 0x40B PUSH2 0x506 CALLDATASIZE PUSH1 0x4 PUSH2 0x499C JUMP JUMPDEST PUSH2 0xD6A JUMP JUMPDEST CALLVALUE DUP1 ISZERO PUSH2 0x516 JUMPI PUSH0 DUP1 REVERT JUMPDEST POP PUSH1 0x11 SLOAD PUSH2 0x529 SWAP1 PUSH2 0x100 SWAP1 DIV PUSH1 0xFF AND DUP2 JUMP JUMPDEST PUSH1 0x40 MLOAD SWAP1 ISZERO ISZERO DUP2 MSTORE PUSH1 0x20 ADD PUSH2 0x359 JUMP JUMPDEST CALLVALUE DUP1 ISZERO PUSH2 0x544 JUMPI PUSH0 DUP1 REVERT JUMPDEST POP PUSH2 0x40B PUSH2 0x553 CALLDATASIZE PUSH1 0x4 PUSH2 0x48EA JUMP JUMPDEST PUSH2 0xE92 JUMP JUMPDEST CALLVALUE DUP1 ISZERO PUSH2 0x563 JUMPI PUSH0 DUP1 REVERT JUMPDEST POP PUSH1 0x8 SLOAD PUSH2 0x577 SWAP1 PUSH1 0x1 PUSH1 0x1 PUSH1 0xA0 SHL SUB AND DUP2 JUMP JUMPDEST PUSH1 0x40 MLOAD PUSH1 0x1 PUSH1 0x1 PUSH1 0xA0 SHL SUB SWAP1 SWAP2 AND DUP2 MSTORE PUSH1 0x20 ADD PUSH2 0x359 JUMP JUMPDEST CALLVALUE DUP1 ISZERO PUSH2 0x59A JUMPI PUSH0 DUP1 REVERT JUMPDEST POP PUSH2 0x40B PUSH2 0x5A9 CALLDATASIZE PUSH1 0x4 PUSH2 0x49D2 JUMP JUMPDEST PUSH2 0xFBA JUMP JUMPDEST PUSH2 0x40B PUSH2 0x5BC CALLDATASIZE PUSH1 0x4 PUSH2 0x4A3E JUMP JUMPDEST PUSH2 0x131E JUMP JUMPDEST CALLVALUE DUP1 ISZERO PUSH2 0x5CC JUMPI PUSH0 DUP1 REVERT JUMPDEST POP PUSH2 0x40B PUSH2 0x5DB CALLDATASIZE PUSH1 0x4 PUSH2 0x4A7C JUMP JUMPDEST PUSH2 0x1670 JUMP JUMPDEST CALLVALUE DUP1 ISZERO PUSH2 0x5EB JUMPI PUSH0 DUP1 REVERT JUMPDEST POP PUSH2 0x5FF PUSH2 0x5FA CALLDATASIZE PUSH1 0x4 PUSH2 0x49D2 JUMP JUMPDEST PUSH2 0x176B JUMP JUMPDEST PUSH1 0x40 MLOAD PUSH2 0x359 SWAP3 SWAP2 SWAP1 PUSH2 0x4ACB JUMP JUMPDEST CALLVALUE DUP1 ISZERO PUSH2 0x618 JUMPI PUSH0 DUP1 REVERT JUMPDEST POP SELFBALANCE PUSH2 0x34F JUMP JUMPDEST CALLVALUE DUP1 ISZERO PUSH2 0x62A JUMPI PUSH0 DUP1 REVERT JUMPDEST POP PUSH2 0x40B PUSH2 0x639 CALLDATASIZE PUSH1 0x4 PUSH2 0x4AFD JUMP JUMPDEST PUSH2 0x196F JUMP JUMPDEST CALLVALUE DUP1 ISZERO PUSH2 0x649 JUMPI PUSH0 DUP1 REVERT JUMPDEST POP PUSH2 0x34F PUSH2 0x658 CALLDATASIZE PUSH1 0x4 PUSH2 0x4B5F JUMP JUMPDEST PUSH1 0x1C PUSH1 0x20 MSTORE PUSH0 SWAP1 DUP2 MSTORE PUSH1 0x40 SWAP1 KECCAK256 SLOAD DUP2 JUMP JUMPDEST CALLVALUE DUP1 ISZERO PUSH2 0x674 JUMPI PUSH0 DUP1 REVERT JUMPDEST POP PUSH2 0x40B PUSH2 0x1B8C JUMP JUMPDEST CALLVALUE DUP1 ISZERO PUSH2 0x688 JUMPI PUSH0 DUP1 REVERT JUMPDEST POP PUSH2 0x40B PUSH2 0x697 CALLDATASIZE PUSH1 0x4 PUSH2 0x4B78 JUMP JUMPDEST PUSH2 0x1C35 JUMP JUMPDEST CALLVALUE DUP1 ISZERO PUSH2 0x6A7 JUMPI PUSH0 DUP1 REVERT JUMPDEST POP PUSH2 0x40B PUSH2 0x1D27 JUMP JUMPDEST CALLVALUE DUP1 ISZERO PUSH2 0x6BB JUMPI PUSH0 DUP1 REVERT JUMPDEST POP PUSH2 0x6CF PUSH2 0x6CA CALLDATASIZE PUSH1 0x4 PUSH2 0x48EA JUMP JUMPDEST PUSH2 0x1D97 JUMP JUMPDEST PUSH1 0x40 MLOAD PUSH2 0x359 SWAP9 SWAP8 SWAP7 SWAP6 SWAP5 SWAP4 SWAP3 SWAP2 SWAP1 PUSH2 0x4BC3 JUMP JUMPDEST CALLVALUE DUP1 ISZERO PUSH2 0x6EE JUMPI PUSH0 DUP1 REVERT JUMPDEST POP PUSH2 0x741 PUSH2 0x6FD CALLDATASIZE PUSH1 0x4 PUSH2 0x48EA JUMP JUMPDEST PUSH1 0x18 PUSH1 0x20 MSTORE PUSH0 SWAP1 DUP2 MSTORE PUSH1 0x40 SWAP1 KECCAK256 DUP1 SLOAD PUSH1 0x1 DUP3 ADD SLOAD PUSH1 0x2 DUP4 ADD SLOAD PUSH1 0x3 DUP5 ADD SLOAD PUSH1 0x6 SWAP1 SWAP5 ADD SLOAD SWAP3 SWAP4 SWAP2 SWAP3 SWAP1 SWAP2 PUSH1 0xFF DUP1 DUP3 AND SWAP3 PUSH2 0x100 SWAP1 SWAP3 DIV PUSH1 0x1 PUSH1 0x1 PUSH1 0xA0 SHL SUB AND SWAP2 AND DUP7 JUMP JUMPDEST PUSH1 0x40 DUP1 MLOAD SWAP7 DUP8 MSTORE PUSH1 0x20 DUP8 ADD SWAP6 SWAP1 SWAP6 MSTORE SWAP4 DUP6 ADD SWAP3 SWAP1 SWAP3 MSTORE PUSH1 0xFF SWAP1 DUP2 AND PUSH1 0x60 DUP6 ADD MSTORE PUSH1 0x1 PUSH1 0x1 PUSH1 0xA0 SHL SUB SWAP1 SWAP2 AND PUSH1 0x80 DUP5 ADD MSTORE AND PUSH1 0xA0 DUP3 ADD MSTORE PUSH1 0xC0 ADD PUSH2 0x359 JUMP JUMPDEST CALLVALUE DUP1 ISZERO PUSH2 0x78A JUMPI PUSH0 DUP1 REVERT JUMPDEST POP PUSH0 SLOAD PUSH1 0x1 PUSH1 0x1 PUSH1 0xA0 SHL SUB AND PUSH2 0x577 JUMP JUMPDEST CALLVALUE DUP1 ISZERO PUSH2 0x7A6 JUMPI PUSH0 DUP1 REVERT JUMPDEST POP PUSH2 0x40B PUSH2 0x7B5 CALLDATASIZE PUSH1 0x4 PUSH2 0x4B5F JUMP JUMPDEST PUSH2 0x1E46 JUMP JUMPDEST CALLVALUE DUP1 ISZERO PUSH2 0x7C5 JUMPI PUSH0 DUP1 REVERT JUMPDEST POP PUSH2 0x40B PUSH2 0x7D4 CALLDATASIZE PUSH1 0x4 PUSH2 0x4C1A JUMP JUMPDEST PUSH2 0x1F30 JUMP JUMPDEST CALLVALUE DUP1 ISZERO PUSH2 0x7E4 JUMPI PUSH0 DUP1 REVERT JUMPDEST POP PUSH2 0x34F PUSH1 0x12 SLOAD DUP2 JUMP JUMPDEST CALLVALUE DUP1 ISZERO PUSH2 0x7F9 JUMPI PUSH0 DUP1 REVERT JUMPDEST POP PUSH2 0x529 PUSH2 0x808 CALLDATASIZE PUSH1 0x4 PUSH2 0x4C33 JUMP JUMPDEST PUSH1 0x19 PUSH1 0x20 SWAP1 DUP2 MSTORE PUSH0 SWAP3 DUP4 MSTORE PUSH1 0x40 DUP1 DUP5 KECCAK256 SWAP1 SWAP2 MSTORE SWAP1 DUP3 MSTORE SWAP1 KECCAK256 SLOAD PUSH1 0xFF AND DUP2 JUMP JUMPDEST CALLVALUE DUP1 ISZERO PUSH2 0x832 JUMPI PUSH0 DUP1 REVERT JUMPDEST POP PUSH1 0x2 SLOAD PUSH2 0x577 SWAP1 PUSH1 0x1 PUSH1 0x1 PUSH1 0xA0 SHL SUB AND DUP2 JUMP JUMPDEST CALLVALUE DUP1 ISZERO PUSH2 0x851 JUMPI PUSH0 DUP1 REVERT JUMPDEST POP PUSH2 0x865 PUSH2 0x860 CALLDATASIZE PUSH1 0x4 PUSH2 0x4C54 JUMP JUMPDEST PUSH2 0x1FEC JUMP JUMPDEST PUSH1 0x40 MLOAD PUSH2 0x359 SWAP4 SWAP3 SWAP2 SWAP1 PUSH2 0x4CB9 JUMP JUMPDEST CALLVALUE DUP1 ISZERO PUSH2 0x87F JUMPI PUSH0 DUP1 REVERT JUMPDEST POP PUSH2 0x8B7 PUSH2 0x88E CALLDATASIZE PUSH1 0x4 PUSH2 0x4CE2 JUMP JUMPDEST PUSH1 0x1B PUSH1 0x20 SWAP1 DUP2 MSTORE PUSH0 SWAP3 DUP4 MSTORE PUSH1 0x40 DUP1 DUP5 KECCAK256 SWAP1 SWAP2 MSTORE SWAP1 DUP3 MSTORE SWAP1 KECCAK256 PUSH1 0x1 DUP2 ADD SLOAD PUSH1 0x2 SWAP1 SWAP2 ADD SLOAD PUSH1 0xFF AND DUP3 JUMP JUMPDEST PUSH1 0x40 DUP1 MLOAD SWAP3 DUP4 MSTORE SWAP1 ISZERO ISZERO PUSH1 0x20 DUP4 ADD MSTORE ADD PUSH2 0x359 JUMP JUMPDEST CALLVALUE DUP1 ISZERO PUSH2 0x8D7 JUMPI PUSH0 DUP1 REVERT JUMPDEST POP PUSH2 0x8E0 PUSH2 0x2099 JUMP JUMPDEST PUSH1 0x40 MLOAD PUSH2 0x359 SWAP5 SWAP4 SWAP3 SWAP2 SWAP1 PUSH2 0x4D37 JUMP JUMPDEST CALLVALUE DUP1 ISZERO PUSH2 0x8FB JUMPI PUSH0 DUP1 REVERT JUMPDEST POP PUSH2 0x40B PUSH2 0x90A CALLDATASIZE PUSH1 0x4 PUSH2 0x4C1A JUMP JUMPDEST PUSH2 0x216D JUMP JUMPDEST CALLVALUE DUP1 ISZERO PUSH2 0x91A JUMPI PUSH0 DUP1 REVERT JUMPDEST POP PUSH2 0x923 PUSH2 0x229D JUMP JUMPDEST PUSH1 0x40 MLOAD PUSH2 0x359 SWAP2 SWAP1 PUSH2 0x4D62 JUMP JUMPDEST CALLVALUE DUP1 ISZERO PUSH2 0x93B JUMPI PUSH0 DUP1 REVERT JUMPDEST POP PUSH2 0x40B PUSH2 0x94A CALLDATASIZE PUSH1 0x4 PUSH2 0x4B78 JUMP JUMPDEST PUSH2 0x23CF JUMP JUMPDEST CALLVALUE DUP1 ISZERO PUSH2 0x95A JUMPI PUSH0 DUP1 REVERT JUMPDEST POP PUSH2 0x40B PUSH2 0x969 CALLDATASIZE PUSH1 0x4 PUSH2 0x4C1A JUMP JUMPDEST PUSH2 0x2461 JUMP JUMPDEST CALLVALUE DUP1 ISZERO PUSH2 0x979 JUMPI PUSH0 DUP1 REVERT JUMPDEST POP PUSH1 0x4 SLOAD PUSH2 0x987 SWAP1 PUSH1 0xFF AND DUP2 JUMP JUMPDEST PUSH1 0x40 MLOAD PUSH2 0x359 SWAP2 SWAP1 PUSH2 0x4D74 JUMP JUMPDEST CALLVALUE DUP1 ISZERO PUSH2 0x99F JUMPI PUSH0 DUP1 REVERT JUMPDEST POP PUSH2 0x40B PUSH2 0x9AE CALLDATASIZE PUSH1 0x4 PUSH2 0x4B5F JUMP JUMPDEST PUSH2 0x2512 JUMP JUMPDEST CALLVALUE DUP1 ISZERO PUSH2 0x9BE JUMPI PUSH0 DUP1 REVERT JUMPDEST POP PUSH2 0x9D2 PUSH2 0x9CD CALLDATASIZE PUSH1 0x4 PUSH2 0x4D82 JUMP JUMPDEST PUSH2 0x25B6 JUMP JUMPDEST PUSH1 0x40 MLOAD PUSH2 0x359 SWAP4 SWAP3 SWAP2 SWAP1 PUSH2 0x4DE2 JUMP JUMPDEST CALLVALUE DUP1 ISZERO PUSH2 0x9EC JUMPI PUSH0 DUP1 REVERT JUMPDEST POP PUSH2 0x40B PUSH2 0x2817 JUMP JUMPDEST CALLVALUE DUP1 ISZERO PUSH2 0xA00 JUMPI PUSH0 DUP1 REVERT JUMPDEST POP PUSH2 0x40B PUSH2 0x2901 JUMP JUMPDEST CALLVALUE DUP1 ISZERO PUSH2 0xA14 JUMPI PUSH0 DUP1 REVERT JUMPDEST POP PUSH2 0x34F PUSH1 0x13 SLOAD DUP2 JUMP JUMPDEST CALLVALUE DUP1 ISZERO PUSH2 0xA29 JUMPI PUSH0 DUP1 REVERT JUMPDEST POP PUSH2 0x40B PUSH2 0xA38 CALLDATASIZE PUSH1 0x4 PUSH2 0x4E7B JUMP JUMPDEST PUSH2 0x2A4C JUMP JUMPDEST CALLVALUE DUP1 ISZERO PUSH2 0xA48 JUMPI PUSH0 DUP1 REVERT JUMPDEST POP PUSH2 0x34F PUSH1 0x14 SLOAD DUP2 JUMP JUMPDEST CALLVALUE DUP1 ISZERO PUSH2 0xA5D JUMPI PUSH0 DUP1 REVERT JUMPDEST POP PUSH2 0xA71 PUSH2 0xA6C CALLDATASIZE PUSH1 0x4 PUSH2 0x4EEB JUMP JUMPDEST PUSH2 0x2E26 JUMP JUMPDEST PUSH1 0x40 MLOAD PUSH2 0x359 SWAP5 SWAP4 SWAP3 SWAP2 SWAP1 PUSH2 0x4F04 JUMP JUMPDEST CALLVALUE DUP1 ISZERO PUSH2 0xA8C JUMPI PUSH0 DUP1 REVERT JUMPDEST POP PUSH2 0xAA0 PUSH2 0xA9B CALLDATASIZE PUSH1 0x4 PUSH2 0x4EEB JUMP JUMPDEST PUSH2 0x3094 JUMP JUMPDEST PUSH1 0x40 MLOAD PUSH2 0x359 SWAP3 SWAP2 SWAP1 PUSH2 0x4F8B JUMP JUMPDEST CALLVALUE DUP1 ISZERO PUSH2 0xAB9 JUMPI PUSH0 DUP1 REVERT JUMPDEST POP PUSH2 0x577 PUSH2 0xAC8 CALLDATASIZE PUSH1 0x4 PUSH2 0x4C33 JUMP JUMPDEST PUSH1 0x1A PUSH1 0x20 SWAP1 DUP2 MSTORE PUSH0 SWAP3 DUP4 MSTORE PUSH1 0x40 DUP1 DUP5 KECCAK256 SWAP1 SWAP2 MSTORE SWAP1 DUP3 MSTORE SWAP1 KECCAK256 SLOAD PUSH1 0x1 PUSH1 0x1 PUSH1 0xA0 SHL SUB AND DUP2 JUMP JUMPDEST CALLVALUE DUP1 ISZERO PUSH2 0xAF8 JUMPI PUSH0 DUP1 REVERT JUMPDEST POP PUSH1 0x11 SLOAD PUSH2 0x529 SWAP1 PUSH1 0xFF AND DUP2 JUMP JUMPDEST CALLVALUE DUP1 ISZERO PUSH2 0xB11 JUMPI PUSH0 DUP1 REVERT JUMPDEST POP PUSH2 0x40B PUSH2 0xB20 CALLDATASIZE PUSH1 0x4 PUSH2 0x4B5F JUMP JUMPDEST PUSH2 0x327E JUMP JUMPDEST CALLVALUE DUP1 ISZERO PUSH2 0xB30 JUMPI PUSH0 DUP1 REVERT JUMPDEST POP PUSH2 0x40B PUSH2 0xB3F CALLDATASIZE PUSH1 0x4 PUSH2 0x4A7C JUMP JUMPDEST PUSH2 0x328F JUMP JUMPDEST PUSH0 PUSH2 0xB68 PUSH1 0x64 PUSH2 0xB62 PUSH1 0xE PUSH1 0x1 ADD SLOAD SELFBALANCE PUSH2 0x33E0 SWAP1 SWAP2 SWAP1 PUSH4 0xFFFFFFFF AND JUMP JUMPDEST SWAP1 PUSH2 0x33F4 JUMP JUMPDEST SWAP1 POP SWAP1 JUMP JUMPDEST PUSH2 0xB75 PUSH2 0x33FF JUMP JUMPDEST PUSH1 0x11 SLOAD PUSH2 0x100 SWAP1 DIV PUSH1 0xFF AND ISZERO PUSH2 0xB9E JUMPI PUSH1 0x40 MLOAD PUSH4 0xEB1A381F PUSH1 0xE0 SHL DUP2 MSTORE PUSH1 0x4 ADD PUSH1 0x40 MLOAD DUP1 SWAP2 SUB SWAP1 REVERT JUMPDEST PUSH1 0x12 SLOAD DUP2 GT ISZERO PUSH2 0xBC1 JUMPI PUSH1 0x40 MLOAD PUSH4 0xE0F29C9 PUSH1 0xE2 SHL DUP2 MSTORE PUSH1 0x4 ADD PUSH1 0x40 MLOAD DUP1 SWAP2 SUB SWAP1 REVERT JUMPDEST PUSH2 0xBCA DUP2 PUSH2 0x3451 JUMP JUMPDEST PUSH1 0x40 DUP1 MLOAD DUP2 DUP2 MSTORE PUSH1 0xF SWAP2 DUP2 ADD SWAP2 SWAP1 SWAP2 MSTORE PUSH15 0x5377656570526F756E6446756E6473 PUSH1 0x88 SHL PUSH1 0x60 DUP3 ADD MSTORE TIMESTAMP PUSH1 0x20 DUP3 ADD MSTORE PUSH0 DUP1 MLOAD PUSH1 0x20 PUSH2 0x526D DUP4 CODECOPY DUP2 MLOAD SWAP2 MSTORE SWAP1 PUSH1 0x80 ADD JUMPDEST PUSH1 0x40 MLOAD DUP1 SWAP2 SUB SWAP1 LOG1 POP JUMP JUMPDEST PUSH2 0xC1E PUSH2 0x3533 JUMP JUMPDEST CALLER PUSH0 SWAP1 DUP2 MSTORE PUSH1 0x1C PUSH1 0x20 MSTORE PUSH1 0x40 DUP2 KECCAK256 SLOAD SWAP1 DUP2 SWAP1 SUB PUSH2 0xC4E JUMPI PUSH1 0x40 MLOAD PUSH4 0x302A93A1 PUSH1 0xE2 SHL DUP2 MSTORE PUSH1 0x4 ADD PUSH1 0x40 MLOAD DUP1 SWAP2 SUB SWAP1 REVERT JUMPDEST CALLER PUSH0 DUP2 DUP2 MSTORE PUSH1 0x1C PUSH1 0x20 MSTORE PUSH1 0x40 DUP1 DUP3 KECCAK256 DUP3 SWAP1 SSTORE MLOAD SWAP1 SWAP2 SWAP1 DUP4 SWAP1 DUP4 DUP2 DUP2 DUP2 DUP6 DUP8 GAS CALL SWAP3 POP POP POP RETURNDATASIZE DUP1 PUSH0 DUP2 EQ PUSH2 0xC9C JUMPI PUSH1 0x40 MLOAD SWAP2 POP PUSH1 0x1F NOT PUSH1 0x3F RETURNDATASIZE ADD AND DUP3 ADD PUSH1 0x40 MSTORE RETURNDATASIZE DUP3 MSTORE RETURNDATASIZE PUSH0 PUSH1 0x20 DUP5 ADD RETURNDATACOPY PUSH2 0xCA1 JUMP JUMPDEST PUSH1 0x60 SWAP2 POP JUMPDEST POP POP SWAP1 POP DUP1 PUSH2 0xCC3 JUMPI PUSH1 0x40 MLOAD PUSH4 0x12171D83 PUSH1 0xE3 SHL DUP2 MSTORE PUSH1 0x4 ADD PUSH1 0x40 MLOAD DUP1 SWAP2 SUB SWAP1 REVERT JUMPDEST PUSH1 0x12 SLOAD PUSH1 0x40 MLOAD CALLER SWAP2 PUSH32 0x7472E24DE4628E34B41A2AA1688ED4B46A9145B2DE1CF93D74902473CCC1740D SWAP2 PUSH2 0xCFF SWAP2 DUP7 DUP3 MSTORE PUSH1 0x20 DUP3 ADD MSTORE PUSH1 0x40 ADD SWAP1 JUMP JUMPDEST PUSH1 0x40 MLOAD DUP1 SWAP2 SUB SWAP1 LOG2 POP POP PUSH2 0xD13 PUSH1 0x1 PUSH1 0x3 SSTORE JUMP JUMPDEST JUMP JUMPDEST PUSH1 0x2 SLOAD PUSH1 0x1 PUSH1 0x1 PUSH1 0xA0 SHL SUB AND CALLER EQ PUSH2 0xD5A JUMPI PUSH1 0x2 SLOAD PUSH1 0x40 MLOAD PUSH4 0x73E64FD PUSH1 0xE2 SHL DUP2 MSTORE CALLER PUSH1 0x4 DUP3 ADD MSTORE PUSH1 0x1 PUSH1 0x1 PUSH1 0xA0 SHL SUB SWAP1 SWAP2 AND PUSH1 0x24 DUP3 ADD MSTORE PUSH1 0x44 ADD JUMPDEST PUSH1 0x40 MLOAD DUP1 SWAP2 SUB SWAP1 REVERT JUMPDEST PUSH2 0xD65 DUP4 DUP4 DUP4 PUSH2 0x358C JUMP JUMPDEST POP POP POP JUMP JUMPDEST PUSH2 0xD72 PUSH2 0x33FF JUMP JUMPDEST PUSH1 0x11 SLOAD PUSH2 0x100 SWAP1 DIV PUSH1 0xFF AND ISZERO PUSH2 0xD9B JUMPI PUSH1 0x40 MLOAD PUSH4 0xEB1A381F PUSH1 0xE0 SHL DUP2 MSTORE PUSH1 0x4 ADD PUSH1 0x40 MLOAD DUP1 SWAP2 SUB SWAP1 REVERT JUMPDEST DUP1 DUP1 ISZERO PUSH2 0xDA9 JUMPI POP PUSH0 PUSH1 0x12 SLOAD GT JUMPDEST ISZERO PUSH2 0xDF9 JUMPI PUSH1 0x12 SLOAD PUSH0 SWAP1 DUP2 MSTORE PUSH1 0x18 PUSH1 0x20 MSTORE PUSH1 0x40 SWAP1 KECCAK256 PUSH1 0x6 DUP2 ADD SLOAD PUSH1 0x2 AND ISZERO DUP1 ISZERO PUSH2 0xDD6 JUMPI POP PUSH0 DUP2 PUSH1 0x2 ADD SLOAD GT JUMPDEST ISZERO PUSH2 0xDF7 JUMPI PUSH0 PUSH2 0xDE7 PUSH1 0x12 SLOAD PUSH2 0x35D6 JUMP JUMPDEST SWAP1 POP PUSH2 0xDF5 PUSH1 0x12 SLOAD DUP3 PUSH2 0x375F JUMP JUMPDEST POP JUMPDEST POP JUMPDEST PUSH1 0x4 DUP1 SLOAD PUSH1 0xFF DUP2 AND SWAP2 DUP5 SWAP2 PUSH1 0xFF NOT AND PUSH1 0x1 DUP4 PUSH1 0x3 DUP2 GT ISZERO PUSH2 0xE1C JUMPI PUSH2 0xE1C PUSH2 0x4D03 JUMP JUMPDEST MUL OR SWAP1 SSTORE POP PUSH0 DUP1 MLOAD PUSH1 0x20 PUSH2 0x522D DUP4 CODECOPY DUP2 MLOAD SWAP2 MSTORE DUP2 DUP5 TIMESTAMP PUSH1 0x40 MLOAD PUSH2 0xE41 SWAP4 SWAP3 SWAP2 SWAP1 PUSH2 0x4FAF JUMP JUMPDEST PUSH1 0x40 MLOAD DUP1 SWAP2 SUB SWAP1 LOG1 PUSH1 0x40 DUP1 MLOAD DUP2 DUP2 MSTORE PUSH1 0xA SWAP2 DUP2 ADD SWAP2 SWAP1 SWAP2 MSTORE PUSH10 0x466F7263655374617465 PUSH1 0xB0 SHL PUSH1 0x60 DUP3 ADD MSTORE TIMESTAMP PUSH1 0x20 DUP3 ADD MSTORE PUSH0 DUP1 MLOAD PUSH1 0x20 PUSH2 0x526D DUP4 CODECOPY DUP2 MLOAD SWAP2 MSTORE SWAP1 PUSH1 0x80 ADD JUMPDEST PUSH1 0x40 MLOAD DUP1 SWAP2 SUB SWAP1 LOG1 POP POP POP JUMP JUMPDEST PUSH2 0xE9A PUSH2 0x33FF JUMP JUMPDEST PUSH2 0xEA2 PUSH2 0x3533 JUMP JUMPDEST PUSH0 PUSH2 0xEAB PUSH2 0xB44 JUMP JUMPDEST SWAP1 POP SELFBALANCE PUSH0 DUP3 DUP3 GT ISZERO PUSH2 0xEC4 JUMPI PUSH2 0xEC1 DUP3 DUP5 PUSH2 0x3C4C JUMP JUMPDEST SWAP1 POP JUMPDEST DUP1 DUP5 GT ISZERO PUSH2 0xEE5 JUMPI PUSH1 0x40 MLOAD PUSH4 0x2C6F547 PUSH1 0xE2 SHL DUP2 MSTORE PUSH1 0x4 ADD PUSH1 0x40 MLOAD DUP1 SWAP2 SUB SWAP1 REVERT JUMPDEST DUP4 PUSH0 SUB PUSH2 0xF05 JUMPI PUSH1 0x40 MLOAD PUSH4 0xBD512241 PUSH1 0xE0 SHL DUP2 MSTORE PUSH1 0x4 ADD PUSH1 0x40 MLOAD DUP1 SWAP2 SUB SWAP1 REVERT JUMPDEST PUSH0 DUP1 SLOAD PUSH1 0x40 MLOAD PUSH1 0x1 PUSH1 0x1 PUSH1 0xA0 SHL SUB SWAP1 SWAP2 AND SWAP1 DUP7 SWAP1 DUP4 DUP2 DUP2 DUP2 DUP6 DUP8 GAS CALL SWAP3 POP POP POP RETURNDATASIZE DUP1 PUSH0 DUP2 EQ PUSH2 0xF4F JUMPI PUSH1 0x40 MLOAD SWAP2 POP PUSH1 0x1F NOT PUSH1 0x3F RETURNDATASIZE ADD AND DUP3 ADD PUSH1 0x40 MSTORE RETURNDATASIZE DUP3 MSTORE RETURNDATASIZE PUSH0 PUSH1 0x20 DUP5 ADD RETURNDATACOPY PUSH2 0xF54 JUMP JUMPDEST PUSH1 0x60 SWAP2 POP JUMPDEST POP POP SWAP1 POP DUP1 PUSH2 0xF76 JUMPI PUSH1 0x40 MLOAD PUSH4 0x12171D83 PUSH1 0xE3 SHL DUP2 MSTORE PUSH1 0x4 ADD PUSH1 0x40 MLOAD DUP1 SWAP2 SUB SWAP1 REVERT JUMPDEST PUSH1 0x40 MLOAD DUP6 DUP2 MSTORE PUSH32 0x36A8CFBF7655E6019C9246E01DED1D727877EA135A5DCC275658E566FAB1E978 SWAP1 PUSH1 0x20 ADD PUSH1 0x40 MLOAD DUP1 SWAP2 SUB SWAP1 LOG1 POP POP POP POP PUSH2 0xFB7 PUSH1 0x1 PUSH1 0x3 SSTORE JUMP JUMPDEST POP JUMP JUMPDEST PUSH1 0x8 SLOAD PUSH1 0x1 PUSH1 0x1 PUSH1 0xA0 SHL SUB AND ISZERO DUP1 ISZERO SWAP1 PUSH2 0xFDF JUMPI POP PUSH1 0x8 SLOAD PUSH1 0x1 PUSH1 0x1 PUSH1 0xA0 SHL SUB AND CALLER EQ ISZERO JUMPDEST ISZERO PUSH2 0x1047 JUMPI PUSH0 DUP1 MLOAD PUSH1 0x20 PUSH2 0x528D DUP4 CODECOPY DUP2 MLOAD SWAP2 MSTORE PUSH1 0x40 MLOAD PUSH2 0x1026 SWAP1 PUSH1 0x20 DUP1 DUP3 MSTORE PUSH1 0x13 SWAP1 DUP3 ADD MSTORE PUSH19 0x2AB730BABA3437B934BD32B21031B0B63632B9 PUSH1 0x69 SHL PUSH1 0x40 DUP3 ADD MSTORE PUSH1 0x60 ADD SWAP1 JUMP JUMPDEST PUSH1 0x40 MLOAD DUP1 SWAP2 SUB SWAP1 LOG1 PUSH1 0x40 MLOAD PUSH4 0xF7BB4ED PUSH1 0xE0 SHL DUP2 MSTORE PUSH1 0x4 ADD PUSH1 0x40 MLOAD DUP1 SWAP2 SUB SWAP1 REVERT JUMPDEST PUSH0 PUSH2 0x1054 DUP3 DUP5 ADD DUP5 PUSH2 0x48EA JUMP JUMPDEST PUSH1 0x40 DUP1 MLOAD CALLER DUP2 MSTORE TIMESTAMP PUSH1 0x20 DUP3 ADD MSTORE SWAP1 DUP2 ADD DUP3 SWAP1 MSTORE SWAP1 SWAP2 POP PUSH32 0x6CF4520E53BA78BFDF634BA4615D156E0B6C6647B5DA04C11831B6C99CF60344 SWAP1 PUSH1 0x60 ADD PUSH1 0x40 MLOAD DUP1 SWAP2 SUB SWAP1 LOG1 DUP1 PUSH1 0x1 SUB PUSH2 0x1139 JUMPI PUSH1 0x1 PUSH1 0x4 SLOAD PUSH1 0xFF AND PUSH1 0x3 DUP2 GT ISZERO PUSH2 0x10B8 JUMPI PUSH2 0x10B8 PUSH2 0x4D03 JUMP JUMPDEST EQ ISZERO DUP1 PUSH2 0x10C6 JUMPI POP PUSH1 0x14 SLOAD TIMESTAMP LT JUMPDEST ISZERO PUSH2 0x1131 JUMPI PUSH0 DUP1 MLOAD PUSH1 0x20 PUSH2 0x528D DUP4 CODECOPY DUP2 MLOAD SWAP2 MSTORE PUSH1 0x40 MLOAD PUSH2 0x1110 SWAP1 PUSH1 0x20 DUP1 DUP3 MSTORE PUSH1 0x16 SWAP1 DUP3 ADD MSTORE PUSH22 0x149BDD5B99081B9BDD081C9958591E481D1BC8195B99 PUSH1 0x52 SHL PUSH1 0x40 DUP3 ADD MSTORE PUSH1 0x60 ADD SWAP1 JUMP JUMPDEST PUSH1 0x40 MLOAD DUP1 SWAP2 SUB SWAP1 LOG1 PUSH1 0x40 MLOAD PUSH4 0x93BDAA39 PUSH1 0xE0 SHL DUP2 MSTORE PUSH1 0x4 ADD PUSH1 0x40 MLOAD DUP1 SWAP2 SUB SWAP1 REVERT JUMPDEST PUSH2 0xD65 PUSH2 0x3C57 JUMP JUMPDEST DUP1 PUSH1 0x2 SUB PUSH2 0x120D JUMPI PUSH1 0x12 SLOAD PUSH0 SWAP1 DUP2 MSTORE PUSH1 0x18 PUSH1 0x20 MSTORE PUSH1 0x40 SWAP1 KECCAK256 PUSH1 0x2 PUSH1 0x4 SLOAD PUSH1 0xFF AND PUSH1 0x3 DUP2 GT ISZERO PUSH2 0x116A JUMPI PUSH2 0x116A PUSH2 0x4D03 JUMP JUMPDEST EQ ISZERO DUP1 PUSH2 0x117C JUMPI POP PUSH1 0x6 DUP2 ADD SLOAD PUSH1 0x8 AND ISZERO JUMPDEST DUP1 PUSH2 0x118D JUMPI POP PUSH1 0x6 DUP2 ADD SLOAD PUSH1 0x4 AND ISZERO ISZERO JUMPDEST ISZERO PUSH2 0x11FF JUMPI PUSH0 DUP1 MLOAD PUSH1 0x20 PUSH2 0x528D DUP4 CODECOPY DUP2 MLOAD SWAP2 MSTORE PUSH1 0x40 MLOAD PUSH2 0x11DE SWAP1 PUSH1 0x20 DUP1 DUP3 MSTORE PUSH1 0x1F SWAP1 DUP3 ADD MSTORE PUSH32 0x4E6F7420726561647920666F722072616E646F6D2067656E65726174696F6E00 PUSH1 0x40 DUP3 ADD MSTORE PUSH1 0x60 ADD SWAP1 JUMP JUMPDEST PUSH1 0x40 MLOAD DUP1 SWAP2 SUB SWAP1 LOG1 PUSH1 0x40 MLOAD PUSH4 0xE4DB231 PUSH1 0xE4 SHL DUP2 MSTORE PUSH1 0x4 ADD PUSH1 0x40 MLOAD DUP1 SWAP2 SUB SWAP1 REVERT JUMPDEST PUSH2 0x1207 PUSH2 0x3D0C JUMP JUMPDEST POP POP POP POP JUMP JUMPDEST DUP1 PUSH1 0x3 SUB PUSH2 0xD65 JUMPI PUSH1 0x12 SLOAD PUSH0 SWAP1 DUP2 MSTORE PUSH1 0x18 PUSH1 0x20 MSTORE PUSH1 0x40 SWAP1 KECCAK256 PUSH1 0x3 PUSH1 0x4 SLOAD PUSH1 0xFF AND PUSH1 0x3 DUP2 GT ISZERO PUSH2 0x123E JUMPI PUSH2 0x123E PUSH2 0x4D03 JUMP JUMPDEST EQ ISZERO DUP1 PUSH2 0x125A JUMPI POP PUSH1 0xA SLOAD PUSH1 0x1 DUP3 ADD SLOAD PUSH2 0x1257 SWAP2 PUSH2 0x3EBC JUMP JUMPDEST TIMESTAMP LT JUMPDEST DUP1 PUSH2 0x126A JUMPI POP PUSH1 0x6 DUP2 ADD SLOAD PUSH1 0x2 AND ISZERO JUMPDEST ISZERO PUSH2 0x12DC JUMPI PUSH0 DUP1 MLOAD PUSH1 0x20 PUSH2 0x528D DUP4 CODECOPY DUP2 MLOAD SWAP2 MSTORE PUSH1 0x40 MLOAD PUSH2 0x12BB SWAP1 PUSH1 0x20 DUP1 DUP3 MSTORE PUSH1 0x17 SWAP1 DUP3 ADD MSTORE PUSH32 0x4E6F7420726561647920666F72206E657720726F756E64000000000000000000 PUSH1 0x40 DUP3 ADD MSTORE PUSH1 0x60 ADD SWAP1 JUMP JUMPDEST PUSH1 0x40 MLOAD DUP1 SWAP2 SUB SWAP1 LOG1 PUSH1 0x40 MLOAD PUSH4 0x62C506ED PUSH1 0xE0 SHL DUP2 MSTORE PUSH1 0x4 ADD PUSH1 0x40 MLOAD DUP1 SWAP2 SUB SWAP1 REVERT JUMPDEST PUSH1 0x4 DUP1 SLOAD PUSH1 0xFF NOT DUP2 AND SWAP1 SWAP2 SSTORE PUSH1 0x40 MLOAD PUSH1 0xFF SWAP1 SWAP2 AND SWAP1 PUSH0 DUP1 MLOAD PUSH1 0x20 PUSH2 0x522D DUP4 CODECOPY DUP2 MLOAD SWAP2 MSTORE SWAP1 PUSH2 0x130F SWAP1 DUP4 SWAP1 PUSH0 SWAP1 TIMESTAMP SWAP1 PUSH2 0x4FAF JUMP JUMPDEST PUSH1 0x40 MLOAD DUP1 SWAP2 SUB SWAP1 LOG1 POP POP POP POP POP JUMP JUMPDEST PUSH2 0x1326 PUSH2 0x3533 JUMP JUMPDEST PUSH1 0x11 SLOAD PUSH1 0xFF AND PUSH2 0x1349 JUMPI PUSH1 0x40 MLOAD PUSH4 0x379A7ED9 PUSH1 0xE0 SHL DUP2 MSTORE PUSH1 0x4 ADD PUSH1 0x40 MLOAD DUP1 SWAP2 SUB SWAP1 REVERT JUMPDEST PUSH0 PUSH1 0x4 SLOAD PUSH1 0xFF AND PUSH1 0x3 DUP2 GT ISZERO PUSH2 0x1361 JUMPI PUSH2 0x1361 PUSH2 0x4D03 JUMP JUMPDEST SUB PUSH2 0x136F JUMPI PUSH2 0x136F CALLER PUSH2 0x3EC7 JUMP JUMPDEST PUSH1 0x1 PUSH1 0x4 SLOAD PUSH1 0xFF AND PUSH1 0x3 DUP2 GT ISZERO PUSH2 0x1388 JUMPI PUSH2 0x1388 PUSH2 0x4D03 JUMP JUMPDEST EQ PUSH2 0x13A6 JUMPI PUSH1 0x40 MLOAD PUSH4 0x3DF07DA5 PUSH1 0xE0 SHL DUP2 MSTORE PUSH1 0x4 ADD PUSH1 0x40 MLOAD DUP1 SWAP2 SUB SWAP1 REVERT JUMPDEST PUSH1 0xC SLOAD PUSH1 0x14 SLOAD PUSH2 0x13BE SWAP2 PUSH3 0x10000 SWAP1 DIV PUSH1 0xFF AND PUSH2 0x3C4C JUMP JUMPDEST TIMESTAMP LT PUSH2 0x13DD JUMPI PUSH1 0x40 MLOAD PUSH4 0x11CCE645 PUSH1 0xE1 SHL DUP2 MSTORE PUSH1 0x4 ADD PUSH1 0x40 MLOAD DUP1 SWAP2 SUB SWAP1 REVERT JUMPDEST PUSH0 DUP2 SWAP1 SUB PUSH2 0x13FE JUMPI PUSH1 0x40 MLOAD PUSH4 0xA986A035 PUSH1 0xE0 SHL DUP2 MSTORE PUSH1 0x4 ADD PUSH1 0x40 MLOAD DUP1 SWAP2 SUB SWAP1 REVERT JUMPDEST PUSH1 0xC SLOAD PUSH1 0xFF AND DUP2 GT ISZERO PUSH2 0x1424 JUMPI PUSH1 0x40 MLOAD PUSH4 0x38CC522B PUSH1 0xE0 SHL DUP2 MSTORE PUSH1 0x4 ADD PUSH1 0x40 MLOAD DUP1 SWAP2 SUB SWAP1 REVERT JUMPDEST PUSH1 0xB SLOAD PUSH2 0x1431 SWAP1 DUP3 PUSH2 0x33E0 JUMP JUMPDEST CALLVALUE EQ PUSH2 0x1450 JUMPI PUSH1 0x40 MLOAD PUSH4 0x569E8C11 PUSH1 0xE0 SHL DUP2 MSTORE PUSH1 0x4 ADD PUSH1 0x40 MLOAD DUP1 SWAP2 SUB SWAP1 REVERT JUMPDEST PUSH1 0x12 SLOAD PUSH0 SWAP1 DUP2 MSTORE PUSH1 0x1B PUSH1 0x20 SWAP1 DUP2 MSTORE PUSH1 0x40 DUP1 DUP4 KECCAK256 CALLER DUP5 MSTORE SWAP1 SWAP2 MSTORE SWAP1 KECCAK256 PUSH1 0xC SLOAD DUP2 SLOAD PUSH1 0xFF SWAP1 SWAP2 AND SWAP1 PUSH2 0x1480 SWAP1 DUP5 PUSH2 0x3EBC JUMP JUMPDEST GT ISZERO PUSH2 0x149F JUMPI PUSH1 0x40 MLOAD PUSH4 0x20DCAD33 PUSH1 0xE0 SHL DUP2 MSTORE PUSH1 0x4 ADD PUSH1 0x40 MLOAD DUP1 SWAP2 SUB SWAP1 REVERT JUMPDEST PUSH0 JUMPDEST DUP3 DUP2 LT ISZERO PUSH2 0x15D6 JUMPI PUSH0 DUP5 DUP5 DUP4 DUP2 DUP2 LT PUSH2 0x14BC JUMPI PUSH2 0x14BC PUSH2 0x4FD8 JUMP JUMPDEST SWAP1 POP PUSH1 0x20 MUL ADD PUSH1 0x20 DUP2 ADD SWAP1 PUSH2 0x14D1 SWAP2 SWAP1 PUSH2 0x4EEB JUMP JUMPDEST SWAP1 POP PUSH1 0x1 DUP2 PUSH1 0xFF AND LT DUP1 PUSH2 0x14F2 JUMPI POP PUSH1 0xC SLOAD PUSH1 0xFF PUSH2 0x100 SWAP1 SWAP2 DIV DUP2 AND SWAP1 DUP3 AND GT JUMPDEST ISZERO PUSH2 0x1510 JUMPI PUSH1 0x40 MLOAD PUSH4 0x74CBD35F PUSH1 0xE0 SHL DUP2 MSTORE PUSH1 0x4 ADD PUSH1 0x40 MLOAD DUP1 SWAP2 SUB SWAP1 REVERT JUMPDEST PUSH1 0x12 SLOAD PUSH0 SWAP1 DUP2 MSTORE PUSH1 0x19 PUSH1 0x20 SWAP1 DUP2 MSTORE PUSH1 0x40 DUP1 DUP4 KECCAK256 PUSH1 0xFF DUP1 DUP7 AND DUP6 MSTORE SWAP3 MSTORE SWAP1 SWAP2 KECCAK256 SLOAD AND ISZERO PUSH2 0x154F JUMPI PUSH1 0x40 MLOAD PUSH4 0xC6EA4619 PUSH1 0xE0 SHL DUP2 MSTORE PUSH1 0x4 ADD PUSH1 0x40 MLOAD DUP1 SWAP2 SUB SWAP1 REVERT JUMPDEST PUSH1 0x12 DUP1 SLOAD PUSH0 SWAP1 DUP2 MSTORE PUSH1 0x19 PUSH1 0x20 SWAP1 DUP2 MSTORE PUSH1 0x40 DUP1 DUP4 KECCAK256 PUSH1 0xFF SWAP6 DUP7 AND DUP1 DUP6 MSTORE SWAP1 DUP4 MSTORE DUP2 DUP5 KECCAK256 DUP1 SLOAD PUSH1 0xFF NOT AND PUSH1 0x1 SWAP1 DUP2 OR SWAP1 SWAP2 SSTORE SWAP5 SLOAD DUP5 MSTORE PUSH1 0x1A DUP4 MSTORE DUP2 DUP5 KECCAK256 DUP2 DUP6 MSTORE DUP4 MSTORE SWAP1 DUP4 KECCAK256 DUP1 SLOAD PUSH1 0x1 PUSH1 0x1 PUSH1 0xA0 SHL SUB NOT AND CALLER OR SWAP1 SSTORE DUP7 SLOAD DUP1 DUP6 ADD DUP9 SSTORE DUP8 DUP5 MSTORE SWAP3 DUP3 SWAP1 KECCAK256 SWAP2 DUP4 DIV SWAP1 SWAP2 ADD DUP1 SLOAD PUSH1 0x1F SWAP1 SWAP4 AND PUSH2 0x100 EXP SWAP2 DUP3 MUL SWAP2 SWAP1 SWAP5 MUL NOT SWAP1 SWAP2 AND OR SWAP1 SWAP2 SSTORE ADD PUSH2 0x14A1 JUMP JUMPDEST POP PUSH1 0x1 DUP2 ADD SLOAD PUSH2 0x15E6 SWAP1 CALLVALUE PUSH2 0x3EBC JUMP JUMPDEST PUSH1 0x1 DUP3 ADD SSTORE PUSH1 0x12 SLOAD PUSH0 SWAP1 DUP2 MSTORE PUSH1 0x18 PUSH1 0x20 MSTORE PUSH1 0x40 SWAP1 KECCAK256 PUSH1 0x2 ADD SLOAD PUSH2 0x1609 SWAP1 CALLVALUE PUSH2 0x3EBC JUMP JUMPDEST PUSH1 0x12 DUP1 SLOAD PUSH0 SWAP1 DUP2 MSTORE PUSH1 0x18 PUSH1 0x20 MSTORE PUSH1 0x40 SWAP1 DUP2 SWAP1 KECCAK256 PUSH1 0x2 ADD SWAP3 SWAP1 SWAP3 SSTORE SLOAD SWAP1 MLOAD CALLER SWAP1 PUSH32 0xA2DA031AF61B11E32EB2D9DE4368CD1165E947468DC5713FA92E36C5F704028F SWAP1 PUSH2 0x1659 SWAP1 DUP8 SWAP1 DUP8 SWAP1 CALLVALUE SWAP1 PUSH2 0x4FEC JUMP JUMPDEST PUSH1 0x40 MLOAD DUP1 SWAP2 SUB SWAP1 LOG3 POP PUSH2 0x166C PUSH1 0x1 PUSH1 0x3 SSTORE JUMP JUMPDEST POP POP JUMP JUMPDEST PUSH2 0x1678 PUSH2 0x33FF JUMP JUMPDEST PUSH1 0x11 SLOAD PUSH2 0x100 SWAP1 DIV PUSH1 0xFF AND ISZERO PUSH2 0x16A1 JUMPI PUSH1 0x40 MLOAD PUSH4 0xEB1A381F PUSH1 0xE0 SHL DUP2 MSTORE PUSH1 0x4 ADD PUSH1 0x40 MLOAD DUP1 SWAP2 SUB SWAP1 REVERT JUMPDEST PUSH1 0x12 SLOAD DUP3 GT ISZERO PUSH2 0x16C4 JUMPI PUSH1 0x40 MLOAD PUSH4 0xE0F29C9 PUSH1 0xE2 SHL DUP2 MSTORE PUSH1 0x4 ADD PUSH1 0x40 MLOAD DUP1 SWAP2 SUB SWAP1 REVERT JUMPDEST PUSH0 DUP3 DUP2 MSTORE PUSH1 0x18 PUSH1 0x20 MSTORE PUSH1 0x40 SWAP1 KECCAK256 DUP2 DUP1 ISZERO PUSH2 0x16E3 JUMPI POP PUSH1 0x6 DUP2 ADD SLOAD PUSH1 0x2 AND ISZERO JUMPDEST DUP1 ISZERO PUSH2 0x16F2 JUMPI POP PUSH0 DUP2 PUSH1 0x2 ADD SLOAD GT JUMPDEST ISZERO PUSH2 0x1713 JUMPI PUSH0 PUSH2 0x1701 DUP5 PUSH2 0x35D6 JUMP JUMPDEST SWAP1 POP PUSH2 0x170D DUP5 DUP3 PUSH2 0x375F JUMP JUMPDEST POP PUSH2 0x1728 JUMP JUMPDEST PUSH1 0x6 DUP2 ADD SLOAD PUSH1 0x1 AND PUSH2 0x1728 JUMPI PUSH2 0x1728 DUP2 PUSH2 0x404E JUMP JUMPDEST PUSH1 0x40 DUP1 MLOAD DUP2 DUP2 MSTORE PUSH1 0xD SWAP2 DUP2 ADD SWAP2 SWAP1 SWAP2 MSTORE PUSH13 0x10DBDB5C1B195D19549BDD5B99 PUSH1 0x9A SHL PUSH1 0x60 DUP3 ADD MSTORE TIMESTAMP PUSH1 0x20 DUP3 ADD MSTORE PUSH0 DUP1 MLOAD PUSH1 0x20 PUSH2 0x526D DUP4 CODECOPY DUP2 MLOAD SWAP2 MSTORE SWAP1 PUSH1 0x80 ADD PUSH2 0xE85 JUMP JUMPDEST PUSH0 PUSH1 0x60 DUP2 DUP4 PUSH1 0x1 PUSH1 0x1 PUSH1 0x40 SHL SUB DUP2 GT ISZERO PUSH2 0x1787 JUMPI PUSH2 0x1787 PUSH2 0x5039 JUMP JUMPDEST PUSH1 0x40 MLOAD SWAP1 DUP1 DUP3 MSTORE DUP1 PUSH1 0x1F ADD PUSH1 0x1F NOT AND PUSH1 0x20 ADD DUP3 ADD PUSH1 0x40 MSTORE DUP1 ISZERO PUSH2 0x17B1 JUMPI PUSH1 0x20 DUP3 ADD DUP2 DUP1 CALLDATASIZE DUP4 CALLDATACOPY ADD SWAP1 POP JUMPDEST POP SWAP1 POP DUP4 ISZERO PUSH2 0x1812 JUMPI PUSH0 JUMPDEST DUP5 DUP2 LT ISZERO PUSH2 0x1810 JUMPI DUP6 DUP6 DUP3 DUP2 DUP2 LT PUSH2 0x17D6 JUMPI PUSH2 0x17D6 PUSH2 0x4FD8 JUMP JUMPDEST SWAP1 POP ADD CALLDATALOAD PUSH1 0xF8 SHR PUSH1 0xF8 SHL DUP3 DUP3 DUP2 MLOAD DUP2 LT PUSH2 0x17F2 JUMPI PUSH2 0x17F2 PUSH2 0x4FD8 JUMP JUMPDEST PUSH1 0x20 ADD ADD SWAP1 PUSH1 0x1 PUSH1 0x1 PUSH1 0xF8 SHL SUB NOT AND SWAP1 DUP2 PUSH0 BYTE SWAP1 MSTORE8 POP PUSH1 0x1 ADD PUSH2 0x17BC JUMP JUMPDEST POP JUMPDEST PUSH1 0x1 PUSH1 0x4 SLOAD PUSH1 0xFF AND PUSH1 0x3 DUP2 GT ISZERO PUSH2 0x182B JUMPI PUSH2 0x182B PUSH2 0x4D03 JUMP JUMPDEST EQ DUP1 ISZERO PUSH2 0x183A JUMPI POP PUSH1 0x14 SLOAD TIMESTAMP LT ISZERO JUMPDEST ISZERO PUSH2 0x1867 JUMPI PUSH1 0x40 DUP1 MLOAD PUSH1 0x1 PUSH1 0x20 DUP3 ADD DUP2 SWAP1 MSTORE SWAP2 ADD PUSH1 0x40 MLOAD PUSH1 0x20 DUP2 DUP4 SUB SUB DUP2 MSTORE SWAP1 PUSH1 0x40 MSTORE SWAP3 POP SWAP3 POP POP PUSH2 0x1968 JUMP JUMPDEST PUSH1 0x2 PUSH1 0x4 SLOAD PUSH1 0xFF AND PUSH1 0x3 DUP2 GT ISZERO PUSH2 0x1880 JUMPI PUSH2 0x1880 PUSH2 0x4D03 JUMP JUMPDEST SUB PUSH2 0x18E5 JUMPI PUSH1 0x12 SLOAD PUSH0 SWAP1 DUP2 MSTORE PUSH1 0x18 PUSH1 0x20 MSTORE PUSH1 0x40 SWAP1 KECCAK256 PUSH1 0x6 DUP2 ADD SLOAD PUSH1 0x8 AND ISZERO ISZERO DUP1 ISZERO PUSH2 0x18B0 JUMPI POP PUSH1 0x6 DUP2 ADD SLOAD PUSH1 0x4 AND ISZERO JUMPDEST ISZERO PUSH2 0x18DF JUMPI PUSH1 0x40 DUP1 MLOAD PUSH1 0x2 PUSH1 0x20 DUP3 ADD MSTORE PUSH1 0x1 SWAP2 ADD JUMPDEST PUSH1 0x40 MLOAD PUSH1 0x20 DUP2 DUP4 SUB SUB DUP2 MSTORE SWAP1 PUSH1 0x40 MSTORE SWAP4 POP SWAP4 POP POP POP PUSH2 0x1968 JUMP JUMPDEST POP PUSH2 0x1954 JUMP JUMPDEST PUSH1 0x3 PUSH1 0x4 SLOAD PUSH1 0xFF AND PUSH1 0x3 DUP2 GT ISZERO PUSH2 0x18FE JUMPI PUSH2 0x18FE PUSH2 0x4D03 JUMP JUMPDEST SUB PUSH2 0x1954 JUMPI PUSH1 0x12 SLOAD PUSH0 SWAP1 DUP2 MSTORE PUSH1 0x18 PUSH1 0x20 MSTORE PUSH1 0x40 SWAP1 KECCAK256 PUSH1 0xA SLOAD PUSH1 0x1 DUP3 ADD SLOAD PUSH2 0x1924 SWAP2 PUSH2 0x3EBC JUMP JUMPDEST TIMESTAMP LT ISZERO DUP1 ISZERO PUSH2 0x1939 JUMPI POP PUSH1 0x6 DUP2 ADD SLOAD PUSH1 0x2 AND ISZERO ISZERO JUMPDEST ISZERO PUSH2 0x1952 JUMPI PUSH1 0x40 DUP1 MLOAD PUSH1 0x3 PUSH1 0x20 DUP3 ADD MSTORE PUSH1 0x1 SWAP2 ADD PUSH2 0x18C5 JUMP JUMPDEST POP JUMPDEST POP POP PUSH1 0x40 DUP1 MLOAD PUSH1 0x20 DUP2 ADD SWAP1 SWAP2 MSTORE PUSH0 DUP1 DUP3 MSTORE SWAP2 POP JUMPDEST SWAP3 POP SWAP3 SWAP1 POP JUMP JUMPDEST PUSH2 0x1977 PUSH2 0x33FF JUMP JUMPDEST PUSH1 0x11 SLOAD PUSH2 0x100 SWAP1 DIV PUSH1 0xFF AND ISZERO PUSH2 0x19A0 JUMPI PUSH1 0x40 MLOAD PUSH4 0xEB1A381F PUSH1 0xE0 SHL DUP2 MSTORE PUSH1 0x4 ADD PUSH1 0x40 MLOAD DUP1 SWAP2 SUB SWAP1 REVERT JUMPDEST PUSH1 0x9 SLOAD PUSH1 0x40 DUP1 MLOAD PUSH1 0x80 DUP1 DUP3 MSTORE PUSH1 0xD SWAP1 DUP3 ADD MSTORE PUSH13 0x3937BAB732223AB930BA34B7B7 PUSH1 0x99 SHL PUSH1 0xA0 DUP3 ADD MSTORE PUSH1 0x20 DUP2 ADD SWAP3 SWAP1 SWAP3 MSTORE DUP2 ADD DUP7 SWAP1 MSTORE CALLER PUSH1 0x60 DUP3 ADD MSTORE PUSH0 DUP1 MLOAD PUSH1 0x20 PUSH2 0x524D DUP4 CODECOPY DUP2 MLOAD SWAP2 MSTORE SWAP1 PUSH1 0xC0 ADD PUSH1 0x40 MLOAD DUP1 SWAP2 SUB SWAP1 LOG1 PUSH1 0xA DUP1 SLOAD PUSH1 0x40 DUP1 MLOAD PUSH1 0x80 DUP1 DUP3 MSTORE DUP2 ADD SWAP4 SWAP1 SWAP4 MSTORE PUSH10 0x1C995CDD14195C9A5BD9 PUSH1 0xB2 SHL PUSH1 0xA0 DUP5 ADD MSTORE PUSH1 0x20 DUP4 ADD SWAP2 SWAP1 SWAP2 MSTORE DUP2 ADD DUP6 SWAP1 MSTORE CALLER PUSH1 0x60 DUP3 ADD MSTORE PUSH0 DUP1 MLOAD PUSH1 0x20 PUSH2 0x524D DUP4 CODECOPY DUP2 MLOAD SWAP2 MSTORE SWAP1 PUSH1 0xC0 ADD PUSH1 0x40 MLOAD DUP1 SWAP2 SUB SWAP1 LOG1 PUSH1 0xB SLOAD PUSH1 0x40 DUP1 MLOAD PUSH1 0x80 DUP1 DUP3 MSTORE PUSH1 0xD SWAP1 DUP3 ADD MSTORE PUSH13 0x1CD95B1958DD1A5BDB90DBDCDD PUSH1 0x9A SHL PUSH1 0xA0 DUP3 ADD MSTORE PUSH1 0x20 DUP2 ADD SWAP3 SWAP1 SWAP3 MSTORE DUP2 ADD DUP5 SWAP1 MSTORE CALLER PUSH1 0x60 DUP3 ADD MSTORE PUSH0 DUP1 MLOAD PUSH1 0x20 PUSH2 0x524D DUP4 CODECOPY DUP2 MLOAD SWAP2 MSTORE SWAP1 PUSH1 0xC0 ADD PUSH1 0x40 MLOAD DUP1 SWAP2 SUB SWAP1 LOG1 PUSH1 0xC SLOAD PUSH1 0x40 DUP1 MLOAD PUSH1 0x80 DUP1 DUP3 MSTORE PUSH1 0x16 SWAP1 DUP3 ADD MSTORE PUSH22 0x36B0BC29B2B632B1BA34B7B739A832B9283630BCB2B9 PUSH1 0x51 SHL PUSH1 0xA0 DUP3 ADD MSTORE PUSH1 0xFF SWAP3 DUP4 AND PUSH1 0x20 DUP3 ADD MSTORE SWAP2 DUP5 AND DUP3 DUP3 ADD MSTORE CALLER PUSH1 0x60 DUP4 ADD MSTORE MLOAD PUSH0 DUP1 MLOAD PUSH1 0x20 PUSH2 0x524D DUP4 CODECOPY DUP2 MLOAD SWAP2 MSTORE SWAP2 DUP2 SWAP1 SUB PUSH1 0xC0 ADD SWAP1 LOG1 PUSH1 0xC SLOAD PUSH1 0x40 DUP1 MLOAD PUSH1 0x80 DUP1 DUP3 MSTORE PUSH1 0xD SWAP1 DUP3 ADD MSTORE PUSH13 0x636C6F73696E6757696E646F77 PUSH1 0x98 SHL PUSH1 0xA0 DUP3 ADD MSTORE PUSH1 0xFF PUSH3 0x10000 SWAP1 SWAP4 DIV DUP4 AND PUSH1 0x20 DUP3 ADD MSTORE SWAP2 DUP4 AND DUP3 DUP3 ADD MSTORE CALLER PUSH1 0x60 DUP4 ADD MSTORE MLOAD PUSH0 DUP1 MLOAD PUSH1 0x20 PUSH2 0x524D DUP4 CODECOPY DUP2 MLOAD SWAP2 MSTORE SWAP2 DUP2 SWAP1 SUB PUSH1 0xC0 ADD SWAP1 LOG1 PUSH1 0x9 SWAP5 SWAP1 SWAP5 SSTORE PUSH1 0xA SWAP3 SWAP1 SWAP3 SSTORE PUSH1 0xB SSTORE PUSH1 0xC DUP1 SLOAD PUSH1 0xFF SWAP4 DUP5 AND PUSH3 0x10000 MUL PUSH3 0xFF00FF NOT SWAP1 SWAP2 AND SWAP4 SWAP1 SWAP3 AND SWAP3 SWAP1 SWAP3 OR OR SWAP1 SSTORE JUMP JUMPDEST PUSH1 0x1 SLOAD PUSH1 0x1 PUSH1 0x1 PUSH1 0xA0 SHL SUB AND CALLER EQ PUSH2 0x1BDF JUMPI PUSH1 0x40 MLOAD PUSH3 0x461BCD PUSH1 0xE5 SHL DUP2 MSTORE PUSH1 0x20 PUSH1 0x4 DUP3 ADD MSTORE PUSH1 0x16 PUSH1 0x24 DUP3 ADD MSTORE PUSH22 0x26BAB9BA10313290383937B837B9B2B21037BBB732B9 PUSH1 0x51 SHL PUSH1 0x44 DUP3 ADD MSTORE PUSH1 0x64 ADD PUSH2 0xD51 JUMP JUMPDEST PUSH0 DUP1 SLOAD CALLER PUSH1 0x1 PUSH1 0x1 PUSH1 0xA0 SHL SUB NOT DUP1 DUP4 AND DUP3 OR DUP5 SSTORE PUSH1 0x1 DUP1 SLOAD SWAP1 SWAP2 AND SWAP1 SSTORE PUSH1 0x40 MLOAD PUSH1 0x1 PUSH1 0x1 PUSH1 0xA0 SHL SUB SWAP1 SWAP3 AND SWAP3 SWAP1 SWAP2 DUP4 SWAP2 PUSH32 0x8BE0079C531659141344CD1FD0A4F28419497F9722A3DAAFE3B4186F6B6457E0 SWAP2 LOG3 POP JUMP JUMPDEST PUSH2 0x1C3D PUSH2 0x33FF JUMP JUMPDEST PUSH1 0x11 SLOAD PUSH2 0x100 SWAP1 DIV PUSH1 0xFF AND ISZERO PUSH2 0x1C66 JUMPI PUSH1 0x40 MLOAD PUSH4 0xEB1A381F PUSH1 0xE0 SHL DUP2 MSTORE PUSH1 0x4 ADD PUSH1 0x40 MLOAD DUP1 SWAP2 SUB SWAP1 REVERT JUMPDEST PUSH1 0xE SLOAD PUSH1 0x40 DUP1 MLOAD PUSH1 0x80 DUP1 DUP3 MSTORE PUSH1 0x10 SWAP1 DUP3 ADD MSTORE PUSH16 0x3B39332932B8BAB2B9BA213AB33332B9 PUSH1 0x81 SHL PUSH1 0xA0 DUP3 ADD MSTORE PUSH1 0x20 DUP2 ADD SWAP3 SWAP1 SWAP3 MSTORE DUP2 ADD DUP4 SWAP1 MSTORE CALLER PUSH1 0x60 DUP3 ADD MSTORE PUSH0 DUP1 MLOAD PUSH1 0x20 PUSH2 0x524D DUP4 CODECOPY DUP2 MLOAD SWAP2 MSTORE SWAP1 PUSH1 0xC0 ADD PUSH1 0x40 MLOAD DUP1 SWAP2 SUB SWAP1 LOG1 PUSH1 0xF SLOAD PUSH1 0x40 DUP1 MLOAD PUSH1 0x80 DUP1 DUP3 MSTORE PUSH1 0x16 SWAP1 DUP3 ADD MSTORE PUSH22 0x73616665747942756666657250657263656E74616765 PUSH1 0x50 SHL PUSH1 0xA0 DUP3 ADD MSTORE PUSH1 0x20 DUP2 ADD SWAP3 SWAP1 SWAP3 MSTORE DUP2 ADD DUP3 SWAP1 MSTORE CALLER PUSH1 0x60 DUP3 ADD MSTORE PUSH0 DUP1 MLOAD PUSH1 0x20 PUSH2 0x524D DUP4 CODECOPY DUP2 MLOAD SWAP2 MSTORE SWAP1 PUSH1 0xC0 ADD PUSH1 0x40 MLOAD DUP1 SWAP2 SUB SWAP1 LOG1 PUSH1 0xE SWAP2 SWAP1 SWAP2 SSTORE PUSH1 0xF SSTORE JUMP JUMPDEST PUSH2 0x1D2F PUSH2 0x33FF JUMP JUMPDEST PUSH1 0x11 DUP1 SLOAD PUSH2 0xFF00 NOT AND PUSH2 0x100 OR SWAP1 SSTORE PUSH1 0x40 DUP1 MLOAD PUSH1 0x80 DUP1 DUP3 MSTORE PUSH1 0x13 SWAP1 DUP3 ADD MSTORE PUSH19 0x18591B5A5B90DBDB9D1C9BDB1CD31BD8DAD959 PUSH1 0x6A SHL PUSH1 0xA0 DUP3 ADD MSTORE PUSH0 PUSH1 0x20 DUP3 ADD MSTORE PUSH1 0x1 DUP2 DUP4 ADD MSTORE CALLER PUSH1 0x60 DUP3 ADD MSTORE SWAP1 MLOAD PUSH0 DUP1 MLOAD PUSH1 0x20 PUSH2 0x524D DUP4 CODECOPY DUP2 MLOAD SWAP2 MSTORE SWAP2 PUSH1 0xC0 SWAP1 DUP3 SWAP1 SUB ADD SWAP1 LOG1 JUMP JUMPDEST PUSH0 DUP1 PUSH0 DUP1 PUSH0 PUSH2 0x1DA4 PUSH2 0x47A6 JUMP JUMPDEST PUSH0 DUP8 DUP2 MSTORE PUSH1 0x18 PUSH1 0x20 MSTORE PUSH1 0x40 DUP2 KECCAK256 DUP1 SLOAD PUSH1 0x1 DUP1 DUP4 ADD SLOAD PUSH1 0x2 DUP5 ADD SLOAD PUSH1 0x3 DUP6 ADD SLOAD PUSH1 0x6 DUP7 ADD SLOAD DUP8 SWAP7 SWAP6 SWAP5 PUSH1 0xFF DUP4 AND SWAP3 PUSH2 0x100 SWAP1 DIV PUSH1 0x1 PUSH1 0x1 PUSH1 0xA0 SHL SUB AND SWAP2 PUSH1 0x4 DUP9 ADD SWAP2 AND ISZERO ISZERO PUSH1 0x6 DUP9 ADD SLOAD PUSH1 0x2 AND ISZERO ISZERO PUSH1 0x40 DUP1 MLOAD DUP1 DUP3 ADD SWAP2 DUP3 SWAP1 MSTORE SWAP1 DUP5 SWAP1 PUSH1 0x2 SWAP1 DUP3 DUP5 JUMPDEST DUP2 SLOAD PUSH1 0x1 PUSH1 0x1 PUSH1 0xA0 SHL SUB AND DUP2 MSTORE PUSH1 0x1 SWAP1 SWAP2 ADD SWAP1 PUSH1 0x20 ADD DUP1 DUP4 GT PUSH2 0x1E06 JUMPI POP POP POP POP POP SWAP3 POP SWAP9 POP SWAP9 POP SWAP9 POP SWAP9 POP SWAP9 POP SWAP9 POP SWAP9 POP SWAP9 POP POP SWAP2 SWAP4 SWAP6 SWAP8 POP SWAP2 SWAP4 SWAP6 SWAP8 JUMP JUMPDEST PUSH0 SLOAD PUSH1 0x1 PUSH1 0x1 PUSH1 0xA0 SHL SUB AND CALLER EQ DUP1 ISZERO SWAP1 PUSH2 0x1E6B JUMPI POP PUSH1 0x2 SLOAD PUSH1 0x1 PUSH1 0x1 PUSH1 0xA0 SHL SUB AND CALLER EQ ISZERO JUMPDEST ISZERO PUSH2 0x1EBB JUMPI CALLER PUSH2 0x1E82 PUSH0 SLOAD PUSH1 0x1 PUSH1 0x1 PUSH1 0xA0 SHL SUB AND SWAP1 JUMP JUMPDEST PUSH1 0x2 SLOAD PUSH1 0x40 MLOAD PUSH4 0x61DB9C1 PUSH1 0xE0 SHL DUP2 MSTORE PUSH1 0x1 PUSH1 0x1 PUSH1 0xA0 SHL SUB SWAP4 DUP5 AND PUSH1 0x4 DUP3 ADD MSTORE SWAP2 DUP4 AND PUSH1 0x24 DUP4 ADD MSTORE SWAP2 SWAP1 SWAP2 AND PUSH1 0x44 DUP3 ADD MSTORE PUSH1 0x64 ADD PUSH2 0xD51 JUMP JUMPDEST PUSH1 0x1 PUSH1 0x1 PUSH1 0xA0 SHL SUB DUP2 AND PUSH2 0x1EE2 JUMPI PUSH1 0x40 MLOAD PUSH4 0xD92E233D PUSH1 0xE0 SHL DUP2 MSTORE PUSH1 0x4 ADD PUSH1 0x40 MLOAD DUP1 SWAP2 SUB SWAP1 REVERT JUMPDEST PUSH1 0x2 DUP1 SLOAD PUSH1 0x1 PUSH1 0x1 PUSH1 0xA0 SHL SUB NOT AND PUSH1 0x1 PUSH1 0x1 PUSH1 0xA0 SHL SUB DUP4 AND SWAP1 DUP2 OR SWAP1 SWAP2 SSTORE PUSH1 0x40 MLOAD SWAP1 DUP2 MSTORE PUSH32 0xD1A6A14209A385A964D036E404CB5CFB71F4000CDB03C9366292430787261BE6 SWAP1 PUSH1 0x20 ADD PUSH2 0xC0B JUMP JUMPDEST PUSH2 0x1F38 PUSH2 0x33FF JUMP JUMPDEST PUSH1 0x11 SLOAD PUSH2 0x100 SWAP1 DIV PUSH1 0xFF AND ISZERO PUSH2 0x1F61 JUMPI PUSH1 0x40 MLOAD PUSH4 0xEB1A381F PUSH1 0xE0 SHL DUP2 MSTORE PUSH1 0x4 ADD PUSH1 0x40 MLOAD DUP1 SWAP2 SUB SWAP1 REVERT JUMPDEST PUSH1 0x10 DUP1 SLOAD PUSH1 0xFF NOT AND DUP3 ISZERO ISZERO SWAP1 DUP2 OR SWAP1 SWAP2 SSTORE PUSH0 DUP1 MLOAD PUSH1 0x20 PUSH2 0x524D DUP4 CODECOPY DUP2 MLOAD SWAP2 MSTORE SWAP1 PUSH1 0xFF AND PUSH2 0x1F8E JUMPI PUSH0 PUSH2 0x1F91 JUMP JUMPDEST PUSH1 0x1 JUMPDEST DUP3 PUSH2 0x1F9C JUMPI PUSH0 PUSH2 0x1F9F JUMP JUMPDEST PUSH1 0x1 JUMPDEST PUSH1 0x40 DUP1 MLOAD PUSH1 0x80 DUP1 DUP3 MSTORE PUSH1 0x15 SWAP1 DUP3 ADD MSTORE PUSH21 0x737461747356697369626C65546F506C6179657273 PUSH1 0x58 SHL PUSH1 0xA0 DUP3 ADD MSTORE PUSH1 0xFF SWAP4 DUP5 AND PUSH1 0x20 DUP3 ADD MSTORE SWAP3 SWAP1 SWAP2 AND SWAP1 DUP3 ADD MSTORE CALLER PUSH1 0x60 DUP3 ADD MSTORE PUSH1 0xC0 ADD PUSH2 0xC0B JUMP JUMPDEST PUSH0 DUP2 DUP2 MSTORE PUSH1 0x1B PUSH1 0x20 SWAP1 DUP2 MSTORE PUSH1 0x40 DUP1 DUP4 KECCAK256 PUSH1 0x1 PUSH1 0x1 PUSH1 0xA0 SHL SUB DUP7 AND DUP5 MSTORE DUP3 MSTORE DUP1 DUP4 KECCAK256 PUSH1 0x1 DUP2 ADD SLOAD PUSH1 0x2 DUP3 ADD SLOAD DUP3 SLOAD DUP5 MLOAD DUP2 DUP8 MUL DUP2 ADD DUP8 ADD SWAP1 SWAP6 MSTORE DUP1 DUP6 MSTORE PUSH1 0x60 SWAP7 SWAP6 DUP7 SWAP6 DUP6 SWAP5 SWAP4 PUSH1 0xFF AND SWAP3 SWAP1 SWAP2 DUP6 SWAP2 SWAP1 DUP4 ADD DUP3 DUP3 DUP1 ISZERO PUSH2 0x2084 JUMPI PUSH1 0x20 MUL DUP3 ADD SWAP2 SWAP1 PUSH0 MSTORE PUSH1 0x20 PUSH0 KECCAK256 SWAP1 PUSH0 SWAP1 JUMPDEST DUP3 SLOAD PUSH2 0x100 DUP4 SWAP1 EXP SWAP1 DIV PUSH1 0xFF AND DUP2 MSTORE PUSH1 0x20 PUSH1 0x1 SWAP3 DUP4 ADD DUP2 DUP2 DIV SWAP5 DUP6 ADD SWAP5 SWAP1 SWAP4 SUB SWAP1 SWAP3 MUL SWAP2 ADD DUP1 DUP5 GT PUSH2 0x2055 JUMPI SWAP1 POP JUMPDEST POP POP POP POP POP SWAP3 POP SWAP4 POP SWAP4 POP SWAP4 POP POP SWAP3 POP SWAP3 POP SWAP3 JUMP JUMPDEST PUSH1 0x12 SLOAD PUSH0 DUP2 DUP2 MSTORE PUSH1 0x18 PUSH1 0x20 MSTORE PUSH1 0x40 DUP2 KECCAK256 PUSH1 0x2 ADD SLOAD PUSH1 0x4 SLOAD PUSH1 0xFF AND PUSH1 0x1 DUP2 PUSH1 0x3 DUP2 GT ISZERO PUSH2 0x20C7 JUMPI PUSH2 0x20C7 PUSH2 0x4D03 JUMP JUMPDEST SUB PUSH2 0x20F0 JUMPI TIMESTAMP PUSH1 0x14 SLOAD GT PUSH2 0x20DB JUMPI PUSH0 PUSH2 0x20E9 JUMP JUMPDEST TIMESTAMP PUSH1 0x14 SLOAD PUSH2 0x20E9 SWAP2 SWAP1 PUSH2 0x5061 JUMP JUMPDEST SWAP3 POP PUSH2 0x2167 JUMP JUMPDEST PUSH1 0x3 PUSH1 0x4 SLOAD PUSH1 0xFF AND PUSH1 0x3 DUP2 GT ISZERO PUSH2 0x2109 JUMPI PUSH2 0x2109 PUSH2 0x4D03 JUMP JUMPDEST SUB PUSH2 0x2163 JUMPI PUSH1 0x12 SLOAD PUSH0 SWAP1 DUP2 MSTORE PUSH1 0x18 PUSH1 0x20 MSTORE PUSH1 0x40 SWAP1 KECCAK256 PUSH1 0xA SLOAD PUSH1 0x1 DUP3 ADD SLOAD TIMESTAMP SWAP2 PUSH2 0x2132 SWAP2 SWAP1 PUSH2 0x3EBC JUMP JUMPDEST GT PUSH2 0x213D JUMPI PUSH0 PUSH2 0x215B JUMP JUMPDEST PUSH1 0xA SLOAD PUSH1 0x1 DUP3 ADD SLOAD TIMESTAMP SWAP2 PUSH2 0x2151 SWAP2 SWAP1 PUSH2 0x3EBC JUMP JUMPDEST PUSH2 0x215B SWAP2 SWAP1 PUSH2 0x5061 JUMP JUMPDEST SWAP4 POP POP PUSH2 0x2167 JUMP JUMPDEST PUSH0 SWAP3 POP JUMPDEST SWAP1 SWAP2 SWAP3 SWAP4 JUMP JUMPDEST PUSH2 0x2175 PUSH2 0x33FF JUMP JUMPDEST PUSH1 0x11 SLOAD PUSH2 0x100 SWAP1 DIV PUSH1 0xFF AND ISZERO PUSH2 0x219E JUMPI PUSH1 0x40 MLOAD PUSH4 0xEB1A381F PUSH1 0xE0 SHL DUP2 MSTORE PUSH1 0x4 ADD PUSH1 0x40 MLOAD DUP1 SWAP2 SUB SWAP1 REVERT JUMPDEST DUP1 DUP1 ISZERO PUSH2 0x21AC JUMPI POP PUSH0 PUSH1 0x12 SLOAD GT JUMPDEST ISZERO PUSH2 0x21FC JUMPI PUSH1 0x12 SLOAD PUSH0 SWAP1 DUP2 MSTORE PUSH1 0x18 PUSH1 0x20 MSTORE PUSH1 0x40 SWAP1 KECCAK256 PUSH1 0x6 DUP2 ADD SLOAD PUSH1 0x2 AND ISZERO DUP1 ISZERO PUSH2 0x21D9 JUMPI POP PUSH0 DUP2 PUSH1 0x2 ADD SLOAD GT JUMPDEST ISZERO PUSH2 0x21FA JUMPI PUSH0 PUSH2 0x21EA PUSH1 0x12 SLOAD PUSH2 0x35D6 JUMP JUMPDEST SWAP1 POP PUSH2 0x21F8 PUSH1 0x12 SLOAD DUP3 PUSH2 0x375F JUMP JUMPDEST POP JUMPDEST POP JUMPDEST PUSH1 0x4 DUP1 SLOAD PUSH1 0xFF NOT AND SWAP1 SSTORE PUSH1 0x12 SLOAD ISZERO PUSH2 0x2235 JUMPI PUSH1 0x12 SLOAD PUSH0 SWAP1 DUP2 MSTORE PUSH1 0x18 PUSH1 0x20 MSTORE PUSH1 0x40 SWAP1 KECCAK256 PUSH1 0x6 DUP2 ADD SLOAD PUSH1 0x1 AND PUSH2 0x2233 JUMPI PUSH2 0x2233 DUP2 PUSH2 0x404E JUMP JUMPDEST POP JUMPDEST PUSH0 PUSH1 0x13 DUP2 SWAP1 SSTORE PUSH1 0x14 SSTORE PUSH1 0x40 DUP1 MLOAD DUP2 DUP2 MSTORE PUSH1 0x9 DUP2 DUP4 ADD MSTORE PUSH9 0x526573657447616D65 PUSH1 0xB8 SHL PUSH1 0x60 DUP3 ADD MSTORE TIMESTAMP PUSH1 0x20 DUP3 ADD MSTORE SWAP1 MLOAD PUSH0 DUP1 MLOAD PUSH1 0x20 PUSH2 0x526D DUP4 CODECOPY DUP2 MLOAD SWAP2 MSTORE SWAP2 DUP2 SWAP1 SUB PUSH1 0x80 ADD SWAP1 LOG1 PUSH0 DUP1 MLOAD PUSH1 0x20 PUSH2 0x522D DUP4 CODECOPY DUP2 MLOAD SWAP2 MSTORE PUSH1 0x1 PUSH0 TIMESTAMP PUSH1 0x40 MLOAD PUSH2 0xC0B SWAP4 SWAP3 SWAP2 SWAP1 PUSH2 0x4FAF JUMP JUMPDEST PUSH1 0x60 PUSH0 PUSH1 0x1 JUMPDEST PUSH1 0xC SLOAD PUSH1 0xFF PUSH2 0x100 SWAP1 SWAP2 DIV DUP2 AND SWAP1 DUP3 AND GT PUSH2 0x22FD JUMPI PUSH1 0x12 SLOAD PUSH0 SWAP1 DUP2 MSTORE PUSH1 0x19 PUSH1 0x20 SWAP1 DUP2 MSTORE PUSH1 0x40 DUP1 DUP4 KECCAK256 PUSH1 0xFF DUP1 DUP7 AND DUP6 MSTORE SWAP3 MSTORE SWAP1 SWAP2 KECCAK256 SLOAD AND PUSH2 0x22EB JUMPI DUP2 PUSH2 0x22E7 DUP2 PUSH2 0x5074 JUMP JUMPDEST SWAP3 POP POP JUMPDEST DUP1 PUSH2 0x22F5 DUP2 PUSH2 0x508C JUMP JUMPDEST SWAP2 POP POP PUSH2 0x22A3 JUMP JUMPDEST POP PUSH0 DUP2 PUSH1 0x1 PUSH1 0x1 PUSH1 0x40 SHL SUB DUP2 GT ISZERO PUSH2 0x2317 JUMPI PUSH2 0x2317 PUSH2 0x5039 JUMP JUMPDEST PUSH1 0x40 MLOAD SWAP1 DUP1 DUP3 MSTORE DUP1 PUSH1 0x20 MUL PUSH1 0x20 ADD DUP3 ADD PUSH1 0x40 MSTORE DUP1 ISZERO PUSH2 0x2340 JUMPI DUP2 PUSH1 0x20 ADD PUSH1 0x20 DUP3 MUL DUP1 CALLDATASIZE DUP4 CALLDATACOPY ADD SWAP1 POP JUMPDEST POP SWAP1 POP PUSH0 PUSH1 0x1 JUMPDEST PUSH1 0xC SLOAD PUSH1 0xFF PUSH2 0x100 SWAP1 SWAP2 DIV DUP2 AND SWAP1 DUP3 AND GT PUSH2 0x23C6 JUMPI PUSH1 0x12 SLOAD PUSH0 SWAP1 DUP2 MSTORE PUSH1 0x19 PUSH1 0x20 SWAP1 DUP2 MSTORE PUSH1 0x40 DUP1 DUP4 KECCAK256 PUSH1 0xFF DUP1 DUP7 AND DUP6 MSTORE SWAP3 MSTORE SWAP1 SWAP2 KECCAK256 SLOAD AND PUSH2 0x23B4 JUMPI DUP1 DUP4 DUP4 DUP2 MLOAD DUP2 LT PUSH2 0x2394 JUMPI PUSH2 0x2394 PUSH2 0x4FD8 JUMP JUMPDEST PUSH1 0xFF SWAP1 SWAP3 AND PUSH1 0x20 SWAP3 DUP4 MUL SWAP2 SWAP1 SWAP2 ADD SWAP1 SWAP2 ADD MSTORE DUP2 PUSH2 0x23B0 DUP2 PUSH2 0x5074 JUMP JUMPDEST SWAP3 POP POP JUMPDEST DUP1 PUSH2 0x23BE DUP2 PUSH2 0x508C JUMP JUMPDEST SWAP2 POP POP PUSH2 0x2347 JUMP JUMPDEST POP SWAP1 SWAP4 SWAP3 POP POP POP JUMP JUMPDEST PUSH2 0x23D7 PUSH2 0x33FF JUMP JUMPDEST PUSH1 0x11 SLOAD PUSH2 0x100 SWAP1 DIV PUSH1 0xFF AND ISZERO PUSH2 0x2400 JUMPI PUSH1 0x40 MLOAD PUSH4 0xEB1A381F PUSH1 0xE0 SHL DUP2 MSTORE PUSH1 0x4 ADD PUSH1 0x40 MLOAD DUP1 SWAP2 SUB SWAP1 REVERT JUMPDEST PUSH1 0x5 SLOAD PUSH1 0x40 DUP1 MLOAD PUSH1 0x80 DUP1 DUP3 MSTORE PUSH1 0xE SWAP1 DUP3 ADD MSTORE PUSH14 0x1CDD589CD8DC9A5C1D1A5BDB9259 PUSH1 0x92 SHL PUSH1 0xA0 DUP3 ADD MSTORE PUSH1 0x20 DUP2 ADD SWAP3 SWAP1 SWAP3 MSTORE DUP2 ADD DUP4 SWAP1 MSTORE CALLER PUSH1 0x60 DUP3 ADD MSTORE PUSH0 DUP1 MLOAD PUSH1 0x20 PUSH2 0x524D DUP4 CODECOPY DUP2 MLOAD SWAP2 MSTORE SWAP1 PUSH1 0xC0 ADD PUSH1 0x40 MLOAD DUP1 SWAP2 SUB SWAP1 LOG1 PUSH1 0x5 SWAP2 SWAP1 SWAP2 SSTORE PUSH1 0x6 SSTORE JUMP JUMPDEST PUSH2 0x2469 PUSH2 0x33FF JUMP JUMPDEST PUSH1 0x11 SLOAD PUSH2 0x100 SWAP1 DIV PUSH1 0xFF AND ISZERO PUSH2 0x2492 JUMPI PUSH1 0x40 MLOAD PUSH4 0xEB1A381F PUSH1 0xE0 SHL DUP2 MSTORE PUSH1 0x4 ADD PUSH1 0x40 MLOAD DUP1 SWAP2 SUB SWAP1 REVERT JUMPDEST PUSH1 0x11 DUP1 SLOAD PUSH1 0xFF NOT AND DUP3 ISZERO ISZERO SWAP1 DUP2 OR SWAP1 SWAP2 SSTORE PUSH0 DUP1 MLOAD PUSH1 0x20 PUSH2 0x524D DUP4 CODECOPY DUP2 MLOAD SWAP2 MSTORE SWAP1 PUSH1 0xFF AND PUSH2 0x24BF JUMPI PUSH0 PUSH2 0x24C2 JUMP JUMPDEST PUSH1 0x1 JUMPDEST DUP3 PUSH2 0x24CD JUMPI PUSH0 PUSH2 0x24D0 JUMP JUMPDEST PUSH1 0x1 JUMPDEST PUSH1 0x40 DUP1 MLOAD PUSH1 0x80 DUP1 DUP3 MSTORE PUSH1 0xA SWAP1 DUP3 ADD MSTORE PUSH10 0x67616D65416374697665 PUSH1 0xB0 SHL PUSH1 0xA0 DUP3 ADD MSTORE PUSH1 0xFF SWAP4 DUP5 AND PUSH1 0x20 DUP3 ADD MSTORE SWAP3 SWAP1 SWAP2 AND SWAP1 DUP3 ADD MSTORE CALLER PUSH1 0x60 DUP3 ADD MSTORE PUSH1 0xC0 ADD PUSH2 0xC0B JUMP JUMPDEST PUSH2 0x251A PUSH2 0x33FF JUMP JUMPDEST PUSH1 0x11 SLOAD PUSH2 0x100 SWAP1 DIV PUSH1 0xFF AND ISZERO PUSH2 0x2543 JUMPI PUSH1 0x40 MLOAD PUSH4 0xEB1A381F PUSH1 0xE0 SHL DUP2 MSTORE PUSH1 0x4 ADD PUSH1 0x40 MLOAD DUP1 SWAP2 SUB SWAP1 REVERT JUMPDEST PUSH1 0x8 DUP1 SLOAD PUSH1 0x1 PUSH1 0x1 PUSH1 0xA0 SHL SUB NOT AND PUSH1 0x1 PUSH1 0x1 PUSH1 0xA0 SHL SUB DUP4 AND SWAP1 DUP2 OR SWAP1 SWAP2 SSTORE PUSH1 0x40 DUP1 MLOAD PUSH1 0x80 DUP1 DUP3 MSTORE PUSH1 0x13 SWAP1 DUP3 ADD MSTORE PUSH19 0x30BABA37B6B0BA34B7B72337B93BB0B93232B9 PUSH1 0x69 SHL PUSH1 0xA0 DUP3 ADD MSTORE PUSH0 PUSH1 0x20 DUP3 ADD MSTORE SWAP1 DUP2 ADD SWAP2 SWAP1 SWAP2 MSTORE CALLER PUSH1 0x60 DUP3 ADD MSTORE PUSH0 DUP1 MLOAD PUSH1 0x20 PUSH2 0x524D DUP4 CODECOPY DUP2 MLOAD SWAP2 MSTORE SWAP1 PUSH1 0xC0 ADD PUSH2 0xC0B JUMP JUMPDEST PUSH1 0x60 DUP1 PUSH1 0x60 DUP4 DUP6 GT ISZERO PUSH2 0x25DC JUMPI PUSH1 0x40 MLOAD PUSH4 0x8D4FFD27 PUSH1 0xE0 SHL DUP2 MSTORE PUSH1 0x4 ADD PUSH1 0x40 MLOAD DUP1 SWAP2 SUB SWAP1 REVERT JUMPDEST PUSH1 0x12 SLOAD DUP5 GT ISZERO PUSH2 0x25FF JUMPI PUSH1 0x40 MLOAD PUSH4 0xE0F29C9 PUSH1 0xE2 SHL DUP2 MSTORE PUSH1 0x4 ADD PUSH1 0x40 MLOAD DUP1 SWAP2 SUB SWAP1 REVERT JUMPDEST PUSH0 PUSH2 0x260A DUP7 DUP7 PUSH2 0x5061 JUMP JUMPDEST PUSH2 0x2615 SWAP1 PUSH1 0x1 PUSH2 0x50AA JUMP JUMPDEST SWAP1 POP DUP1 PUSH1 0x1 PUSH1 0x1 PUSH1 0x40 SHL SUB DUP2 GT ISZERO PUSH2 0x262F JUMPI PUSH2 0x262F PUSH2 0x5039 JUMP JUMPDEST PUSH1 0x40 MLOAD SWAP1 DUP1 DUP3 MSTORE DUP1 PUSH1 0x20 MUL PUSH1 0x20 ADD DUP3 ADD PUSH1 0x40 MSTORE DUP1 ISZERO PUSH2 0x2658 JUMPI DUP2 PUSH1 0x20 ADD PUSH1 0x20 DUP3 MUL DUP1 CALLDATASIZE DUP4 CALLDATACOPY ADD SWAP1 POP JUMPDEST POP SWAP4 POP DUP1 PUSH1 0x1 PUSH1 0x1 PUSH1 0x40 SHL SUB DUP2 GT ISZERO PUSH2 0x2673 JUMPI PUSH2 0x2673 PUSH2 0x5039 JUMP JUMPDEST PUSH1 0x40 MLOAD SWAP1 DUP1 DUP3 MSTORE DUP1 PUSH1 0x20 MUL PUSH1 0x20 ADD DUP3 ADD PUSH1 0x40 MSTORE DUP1 ISZERO PUSH2 0x26A6 JUMPI DUP2 PUSH1 0x20 ADD JUMPDEST PUSH1 0x60 DUP2 MSTORE PUSH1 0x20 ADD SWAP1 PUSH1 0x1 SWAP1 SUB SWAP1 DUP2 PUSH2 0x2691 JUMPI SWAP1 POP JUMPDEST POP SWAP3 POP DUP1 PUSH1 0x1 PUSH1 0x1 PUSH1 0x40 SHL SUB DUP2 GT ISZERO PUSH2 0x26C1 JUMPI PUSH2 0x26C1 PUSH2 0x5039 JUMP JUMPDEST PUSH1 0x40 MLOAD SWAP1 DUP1 DUP3 MSTORE DUP1 PUSH1 0x20 MUL PUSH1 0x20 ADD DUP3 ADD PUSH1 0x40 MSTORE DUP1 ISZERO PUSH2 0x26EA JUMPI DUP2 PUSH1 0x20 ADD PUSH1 0x20 DUP3 MUL DUP1 CALLDATASIZE DUP4 CALLDATACOPY ADD SWAP1 POP JUMPDEST POP SWAP2 POP PUSH0 DUP7 JUMPDEST DUP7 DUP2 GT PUSH2 0x280B JUMPI PUSH0 DUP2 DUP2 MSTORE PUSH1 0x1B PUSH1 0x20 SWAP1 DUP2 MSTORE PUSH1 0x40 DUP1 DUP4 KECCAK256 PUSH1 0x1 PUSH1 0x1 PUSH1 0xA0 SHL SUB DUP14 AND DUP5 MSTORE SWAP1 SWAP2 MSTORE SWAP1 KECCAK256 DUP1 SLOAD ISZERO PUSH2 0x27F8 JUMPI DUP2 DUP8 DUP5 DUP2 MLOAD DUP2 LT PUSH2 0x2732 JUMPI PUSH2 0x2732 PUSH2 0x4FD8 JUMP JUMPDEST PUSH1 0x20 MUL PUSH1 0x20 ADD ADD DUP2 DUP2 MSTORE POP POP DUP1 PUSH0 ADD DUP1 SLOAD DUP1 PUSH1 0x20 MUL PUSH1 0x20 ADD PUSH1 0x40 MLOAD SWAP1 DUP2 ADD PUSH1 0x40 MSTORE DUP1 SWAP3 SWAP2 SWAP1 DUP2 DUP2 MSTORE PUSH1 0x20 ADD DUP3 DUP1 SLOAD DUP1 ISZERO PUSH2 0x27A6 JUMPI PUSH1 0x20 MUL DUP3 ADD SWAP2 SWAP1 PUSH0 MSTORE PUSH1 0x20 PUSH0 KECCAK256 SWAP1 PUSH0 SWAP1 JUMPDEST DUP3 SLOAD PUSH2 0x100 DUP4 SWAP1 EXP SWAP1 DIV PUSH1 0xFF AND DUP2 MSTORE PUSH1 0x20 PUSH1 0x1 SWAP3 DUP4 ADD DUP2 DUP2 DIV SWAP5 DUP6 ADD SWAP5 SWAP1 SWAP4 SUB SWAP1 SWAP3 MUL SWAP2 ADD DUP1 DUP5 GT PUSH2 0x2777 JUMPI SWAP1 POP JUMPDEST POP POP POP POP POP DUP7 DUP5 DUP2 MLOAD DUP2 LT PUSH2 0x27BD JUMPI PUSH2 0x27BD PUSH2 0x4FD8 JUMP JUMPDEST PUSH1 0x20 MUL PUSH1 0x20 ADD ADD DUP2 SWAP1 MSTORE POP DUP1 PUSH1 0x1 ADD SLOAD DUP6 DUP5 DUP2 MLOAD DUP2 LT PUSH2 0x27DF JUMPI PUSH2 0x27DF PUSH2 0x4FD8 JUMP JUMPDEST PUSH1 0x20 SWAP1 DUP2 MUL SWAP2 SWAP1 SWAP2 ADD ADD MSTORE DUP3 PUSH2 0x27F4 DUP2 PUSH2 0x5074 JUMP JUMPDEST SWAP4 POP POP JUMPDEST POP DUP1 PUSH2 0x2803 DUP2 PUSH2 0x5074 JUMP JUMPDEST SWAP2 POP POP PUSH2 0x26F0 JUMP JUMPDEST POP POP POP SWAP4 POP SWAP4 POP SWAP4 SWAP1 POP JUMP JUMPDEST PUSH2 0x281F PUSH2 0x33FF JUMP JUMPDEST PUSH1 0x11 SLOAD PUSH2 0x100 SWAP1 DIV PUSH1 0xFF AND ISZERO PUSH2 0x2848 JUMPI PUSH1 0x40 MLOAD PUSH4 0xEB1A381F PUSH1 0xE0 SHL DUP2 MSTORE PUSH1 0x4 ADD PUSH1 0x40 MLOAD DUP1 SWAP2 SUB SWAP1 REVERT JUMPDEST SELFBALANCE PUSH0 PUSH2 0x285B PUSH0 SLOAD PUSH1 0x1 PUSH1 0x1 PUSH1 0xA0 SHL SUB AND SWAP1 JUMP JUMPDEST PUSH1 0x1 PUSH1 0x1 PUSH1 0xA0 SHL SUB AND DUP3 PUSH1 0x40 MLOAD PUSH0 PUSH1 0x40 MLOAD DUP1 DUP4 SUB DUP2 DUP6 DUP8 GAS CALL SWAP3 POP POP POP RETURNDATASIZE DUP1 PUSH0 DUP2 EQ PUSH2 0x28A2 JUMPI PUSH1 0x40 MLOAD SWAP2 POP PUSH1 0x1F NOT PUSH1 0x3F RETURNDATASIZE ADD AND DUP3 ADD PUSH1 0x40 MSTORE RETURNDATASIZE DUP3 MSTORE RETURNDATASIZE PUSH0 PUSH1 0x20 DUP5 ADD RETURNDATACOPY PUSH2 0x28A7 JUMP JUMPDEST PUSH1 0x60 SWAP2 POP JUMPDEST POP POP SWAP1 POP DUP1 PUSH2 0x28C9 JUMPI PUSH1 0x40 MLOAD PUSH4 0x12171D83 PUSH1 0xE3 SHL DUP2 MSTORE PUSH1 0x4 ADD PUSH1 0x40 MLOAD DUP1 SWAP2 SUB SWAP1 REVERT JUMPDEST PUSH1 0x40 MLOAD DUP3 DUP2 MSTORE PUSH32 0x36A8CFBF7655E6019C9246E01DED1D727877EA135A5DCC275658E566FAB1E978 SWAP1 PUSH1 0x20 ADD JUMPDEST PUSH1 0x40 MLOAD DUP1 SWAP2 SUB SWAP1 LOG1 POP POP JUMP JUMPDEST PUSH2 0x2909 PUSH2 0x33FF JUMP JUMPDEST PUSH2 0x2911 PUSH2 0x3533 JUMP JUMPDEST PUSH1 0x11 SLOAD PUSH2 0x100 SWAP1 DIV PUSH1 0xFF AND ISZERO PUSH2 0x293A JUMPI PUSH1 0x40 MLOAD PUSH4 0xEB1A381F PUSH1 0xE0 SHL DUP2 MSTORE PUSH1 0x4 ADD PUSH1 0x40 MLOAD DUP1 SWAP2 SUB SWAP1 REVERT JUMPDEST SELFBALANCE PUSH0 DUP2 SWAP1 SUB PUSH2 0x295C JUMPI PUSH1 0x40 MLOAD PUSH4 0xBD512241 PUSH1 0xE0 SHL DUP2 MSTORE PUSH1 0x4 ADD PUSH1 0x40 MLOAD DUP1 SWAP2 SUB SWAP1 REVERT JUMPDEST PUSH0 DUP1 SLOAD PUSH1 0x40 MLOAD PUSH1 0x1 PUSH1 0x1 PUSH1 0xA0 SHL SUB SWAP1 SWAP2 AND SWAP1 DUP4 SWAP1 DUP4 DUP2 DUP2 DUP2 DUP6 DUP8 GAS CALL SWAP3 POP POP POP RETURNDATASIZE DUP1 PUSH0 DUP2 EQ PUSH2 0x29A6 JUMPI PUSH1 0x40 MLOAD SWAP2 POP PUSH1 0x1F NOT PUSH1 0x3F RETURNDATASIZE ADD AND DUP3 ADD PUSH1 0x40 MSTORE RETURNDATASIZE DUP3 MSTORE RETURNDATASIZE PUSH0 PUSH1 0x20 DUP5 ADD RETURNDATACOPY PUSH2 0x29AB JUMP JUMPDEST PUSH1 0x60 SWAP2 POP JUMPDEST POP POP SWAP1 POP DUP1 PUSH2 0x29CD JUMPI PUSH1 0x40 MLOAD PUSH4 0x12171D83 PUSH1 0xE3 SHL DUP2 MSTORE PUSH1 0x4 ADD PUSH1 0x40 MLOAD DUP1 SWAP2 SUB SWAP1 REVERT JUMPDEST PUSH1 0x40 MLOAD DUP3 DUP2 MSTORE PUSH32 0x36A8CFBF7655E6019C9246E01DED1D727877EA135A5DCC275658E566FAB1E978 SWAP1 PUSH1 0x20 ADD PUSH1 0x40 MLOAD DUP1 SWAP2 SUB SWAP1 LOG1 PUSH1 0x40 DUP1 MLOAD DUP2 DUP2 MSTORE PUSH1 0xB DUP2 DUP4 ADD MSTORE PUSH11 0x15DA5D1A191C985DD05B1B PUSH1 0xAA SHL PUSH1 0x60 DUP3 ADD MSTORE TIMESTAMP PUSH1 0x20 DUP3 ADD MSTORE SWAP1 MLOAD PUSH0 DUP1 MLOAD PUSH1 0x20 PUSH2 0x526D DUP4 CODECOPY DUP2 MLOAD SWAP2 MSTORE SWAP2 DUP2 SWAP1 SUB PUSH1 0x80 ADD SWAP1 LOG1 POP POP PUSH2 0xD13 PUSH1 0x1 PUSH1 0x3 SSTORE JUMP JUMPDEST PUSH2 0x2A54 PUSH2 0x33FF JUMP JUMPDEST PUSH1 0x11 SLOAD PUSH2 0x100 SWAP1 DIV PUSH1 0xFF AND ISZERO PUSH2 0x2A7D JUMPI PUSH1 0x40 MLOAD PUSH4 0xEB1A381F PUSH1 0xE0 SHL DUP2 MSTORE PUSH1 0x4 ADD PUSH1 0x40 MLOAD DUP1 SWAP2 SUB SWAP1 REVERT JUMPDEST DUP3 PUSH2 0x2A89 DUP7 PUSH1 0x2 PUSH2 0x50BD JUMP JUMPDEST PUSH2 0x2A93 SWAP1 DUP9 PUSH2 0x50E1 JUMP JUMPDEST PUSH2 0x2A9D SWAP2 SWAP1 PUSH2 0x50E1 JUMP JUMPDEST PUSH2 0xFFFF AND PUSH2 0x2710 EQ PUSH2 0x2AC2 JUMPI PUSH1 0x40 MLOAD PUSH4 0xA4202C75 PUSH1 0xE0 SHL DUP2 MSTORE PUSH1 0x4 ADD PUSH1 0x40 MLOAD DUP1 SWAP2 SUB SWAP1 REVERT JUMPDEST DUP2 PUSH2 0x2ACE DUP6 PUSH1 0x2 PUSH2 0x50BD JUMP JUMPDEST PUSH2 0x2AD8 SWAP2 SWAP1 PUSH2 0x50E1 JUMP JUMPDEST PUSH2 0xFFFF AND PUSH2 0x2710 EQ PUSH2 0x2AFD JUMPI PUSH1 0x40 MLOAD PUSH4 0xB98B6467 PUSH1 0xE0 SHL DUP2 MSTORE PUSH1 0x4 ADD PUSH1 0x40 MLOAD DUP1 SWAP2 SUB SWAP1 REVERT JUMPDEST PUSH2 0x2710 DUP2 PUSH2 0xFFFF AND GT ISZERO PUSH2 0x2B23 JUMPI PUSH1 0x40 MLOAD PUSH3 0x3437BB PUSH1 0xE1 SHL DUP2 MSTORE PUSH1 0x4 ADD PUSH1 0x40 MLOAD DUP1 SWAP2 SUB SWAP1 REVERT JUMPDEST PUSH1 0xD SLOAD PUSH1 0x40 DUP1 MLOAD PUSH1 0x80 DUP1 DUP3 MSTORE PUSH1 0x10 SWAP1 DUP3 ADD MSTORE PUSH16 0x77696E6E657250657263656E74616765 PUSH1 0x80 SHL PUSH1 0xA0 DUP3 ADD MSTORE PUSH2 0xFFFF SWAP3 DUP4 AND PUSH1 0x20 DUP3 ADD MSTORE SWAP2 DUP9 AND DUP3 DUP3 ADD MSTORE CALLER PUSH1 0x60 DUP4 ADD MSTORE MLOAD PUSH0 DUP1 MLOAD PUSH1 0x20 PUSH2 0x524D DUP4 CODECOPY DUP2 MLOAD SWAP2 MSTORE SWAP2 DUP2 SWAP1 SUB PUSH1 0xC0 ADD SWAP1 LOG1 PUSH1 0xD SLOAD PUSH1 0x40 DUP1 MLOAD PUSH1 0x80 DUP1 DUP3 MSTORE PUSH1 0x12 SWAP1 DUP3 ADD MSTORE PUSH18 0x72756E6E6572557050657263656E74616765 PUSH1 0x70 SHL PUSH1 0xA0 DUP3 ADD MSTORE PUSH2 0xFFFF PUSH3 0x10000 SWAP1 SWAP4 DIV DUP4 AND PUSH1 0x20 DUP3 ADD MSTORE SWAP2 DUP8 AND DUP3 DUP3 ADD MSTORE CALLER PUSH1 0x60 DUP4 ADD MSTORE MLOAD PUSH0 DUP1 MLOAD PUSH1 0x20 PUSH2 0x524D DUP4 CODECOPY DUP2 MLOAD SWAP2 MSTORE SWAP2 DUP2 SWAP1 SUB PUSH1 0xC0 ADD SWAP1 LOG1 PUSH1 0xD SLOAD PUSH1 0x40 DUP1 MLOAD PUSH1 0x80 DUP1 DUP3 MSTORE PUSH1 0x1A SWAP1 DUP3 ADD MSTORE PUSH32 0x6E6F57696E6E657252756E6E6572557050657263656E74616765000000000000 PUSH1 0xA0 DUP3 ADD MSTORE PUSH2 0xFFFF PUSH5 0x100000000 SWAP1 SWAP4 DIV DUP4 AND PUSH1 0x20 DUP3 ADD MSTORE SWAP2 DUP7 AND DUP3 DUP3 ADD MSTORE CALLER PUSH1 0x60 DUP4 ADD MSTORE MLOAD PUSH0 DUP1 MLOAD PUSH1 0x20 PUSH2 0x524D DUP4 CODECOPY DUP2 MLOAD SWAP2 MSTORE SWAP2 DUP2 SWAP1 SUB PUSH1 0xC0 ADD SWAP1 LOG1 PUSH1 0xD SLOAD PUSH1 0x40 DUP1 MLOAD PUSH1 0x80 DUP1 DUP3 MSTORE PUSH1 0x1D SWAP1 DUP3 ADD MSTORE PUSH32 0x686F75736557696E6E657253656C656374656450657263656E74616765000000 PUSH1 0xA0 DUP3 ADD MSTORE PUSH2 0xFFFF PUSH1 0x1 PUSH1 0x30 SHL SWAP1 SWAP4 DIV DUP4 AND PUSH1 0x20 DUP3 ADD MSTORE SWAP2 DUP6 AND DUP3 DUP3 ADD MSTORE CALLER PUSH1 0x60 DUP4 ADD MSTORE MLOAD PUSH0 DUP1 MLOAD PUSH1 0x20 PUSH2 0x524D DUP4 CODECOPY DUP2 MLOAD SWAP2 MSTORE SWAP2 DUP2 SWAP1 SUB PUSH1 0xC0 ADD SWAP1 LOG1 PUSH1 0xD SLOAD PUSH1 0x40 DUP1 MLOAD PUSH1 0x80 DUP1 DUP3 MSTORE PUSH1 0x1F SWAP1 DUP3 ADD MSTORE PUSH32 0x686F7573654E6F57696E6E657253656C656374656450657263656E7461676500 PUSH1 0xA0 DUP3 ADD MSTORE PUSH2 0xFFFF PUSH1 0x1 PUSH1 0x40 SHL SWAP1 SWAP4 DIV DUP4 AND PUSH1 0x20 DUP3 ADD MSTORE SWAP2 DUP5 AND DUP3 DUP3 ADD MSTORE CALLER PUSH1 0x60 DUP4 ADD MSTORE MLOAD PUSH0 DUP1 MLOAD PUSH1 0x20 PUSH2 0x524D DUP4 CODECOPY DUP2 MLOAD SWAP2 MSTORE SWAP2 DUP2 SWAP1 SUB PUSH1 0xC0 ADD SWAP1 LOG1 PUSH1 0xD SLOAD PUSH1 0x40 DUP1 MLOAD PUSH1 0x80 DUP1 DUP3 MSTORE PUSH1 0x15 SWAP1 DUP3 ADD MSTORE PUSH21 0x636F6E747261637446656550657263656E74616765 PUSH1 0x58 SHL PUSH1 0xA0 DUP3 ADD MSTORE PUSH2 0xFFFF PUSH1 0x1 PUSH1 0x50 SHL SWAP1 SWAP4 DIV DUP4 AND PUSH1 0x20 DUP3 ADD MSTORE SWAP2 DUP4 AND DUP3 DUP3 ADD MSTORE CALLER PUSH1 0x60 DUP4 ADD MSTORE MLOAD PUSH0 DUP1 MLOAD PUSH1 0x20 PUSH2 0x524D DUP4 CODECOPY DUP2 MLOAD SWAP2 MSTORE SWAP2 DUP2 SWAP1 SUB PUSH1 0xC0 ADD SWAP1 LOG1 PUSH1 0xD DUP1 SLOAD PUSH2 0xFFFF SWAP3 DUP4 AND PUSH1 0x1 PUSH1 0x50 SHL MUL PUSH2 0xFFFF PUSH1 0x50 SHL NOT SWAP5 DUP5 AND PUSH1 0x1 PUSH1 0x40 SHL MUL SWAP5 SWAP1 SWAP5 AND PUSH12 0xFFFFFFFF0000000000000000 NOT SWAP6 DUP5 AND PUSH1 0x1 PUSH1 0x30 SHL MUL PUSH8 0xFFFF000000000000 NOT SWAP8 DUP6 AND PUSH5 0x100000000 MUL SWAP8 SWAP1 SWAP8 AND PUSH8 0xFFFFFFFF00000000 NOT SWAP9 DUP6 AND PUSH3 0x10000 MUL PUSH4 0xFFFFFFFF NOT SWAP1 SWAP4 AND SWAP5 SWAP1 SWAP10 AND SWAP4 SWAP1 SWAP4 OR OR SWAP6 SWAP1 SWAP6 AND SWAP6 SWAP1 SWAP6 OR SWAP3 SWAP1 SWAP3 OR AND SWAP3 SWAP1 SWAP3 OR SWAP2 SWAP1 SWAP2 OR SWAP1 SSTORE JUMP JUMPDEST PUSH1 0x60 DUP1 PUSH1 0x60 DUP1 PUSH0 DUP6 PUSH1 0xFF AND PUSH1 0x12 SLOAD LT ISZERO PUSH2 0x2E41 JUMPI PUSH1 0x1 PUSH2 0x2E5D JUMP JUMPDEST DUP6 PUSH1 0xFF AND PUSH1 0x12 SLOAD PUSH2 0x2E52 SWAP2 SWAP1 PUSH2 0x5061 JUMP JUMPDEST PUSH2 0x2E5D SWAP1 PUSH1 0x1 PUSH2 0x50AA JUMP JUMPDEST SWAP1 POP PUSH0 DUP7 PUSH1 0xFF AND PUSH1 0x12 SLOAD LT ISZERO PUSH2 0x2E75 JUMPI PUSH1 0x12 SLOAD PUSH2 0x2E7A JUMP JUMPDEST DUP7 PUSH1 0xFF AND JUMPDEST SWAP1 POP DUP1 PUSH1 0x1 PUSH1 0x1 PUSH1 0x40 SHL SUB DUP2 GT ISZERO PUSH2 0x2E94 JUMPI PUSH2 0x2E94 PUSH2 0x5039 JUMP JUMPDEST PUSH1 0x40 MLOAD SWAP1 DUP1 DUP3 MSTORE DUP1 PUSH1 0x20 MUL PUSH1 0x20 ADD DUP3 ADD PUSH1 0x40 MSTORE DUP1 ISZERO PUSH2 0x2EBD JUMPI DUP2 PUSH1 0x20 ADD PUSH1 0x20 DUP3 MUL DUP1 CALLDATASIZE DUP4 CALLDATACOPY ADD SWAP1 POP JUMPDEST POP SWAP6 POP DUP1 PUSH1 0x1 PUSH1 0x1 PUSH1 0x40 SHL SUB DUP2 GT ISZERO PUSH2 0x2ED8 JUMPI PUSH2 0x2ED8 PUSH2 0x5039 JUMP JUMPDEST PUSH1 0x40 MLOAD SWAP1 DUP1 DUP3 MSTORE DUP1 PUSH1 0x20 MUL PUSH1 0x20 ADD DUP3 ADD PUSH1 0x40 MSTORE DUP1 ISZERO PUSH2 0x2F01 JUMPI DUP2 PUSH1 0x20 ADD PUSH1 0x20 DUP3 MUL DUP1 CALLDATASIZE DUP4 CALLDATACOPY ADD SWAP1 POP JUMPDEST POP SWAP5 POP DUP1 PUSH1 0x1 PUSH1 0x1 PUSH1 0x40 SHL SUB DUP2 GT ISZERO PUSH2 0x2F1C JUMPI PUSH2 0x2F1C PUSH2 0x5039 JUMP JUMPDEST PUSH1 0x40 MLOAD SWAP1 DUP1 DUP3 MSTORE DUP1 PUSH1 0x20 MUL PUSH1 0x20 ADD DUP3 ADD PUSH1 0x40 MSTORE DUP1 ISZERO PUSH2 0x2F45 JUMPI DUP2 PUSH1 0x20 ADD PUSH1 0x20 DUP3 MUL DUP1 CALLDATASIZE DUP4 CALLDATACOPY ADD SWAP1 POP JUMPDEST POP SWAP4 POP DUP1 PUSH1 0x1 PUSH1 0x1 PUSH1 0x40 SHL SUB DUP2 GT ISZERO PUSH2 0x2F60 JUMPI PUSH2 0x2F60 PUSH2 0x5039 JUMP JUMPDEST PUSH1 0x40 MLOAD SWAP1 DUP1 DUP3 MSTORE DUP1 PUSH1 0x20 MUL PUSH1 0x20 ADD DUP3 ADD PUSH1 0x40 MSTORE DUP1 ISZERO PUSH2 0x2F89 JUMPI DUP2 PUSH1 0x20 ADD PUSH1 0x20 DUP3 MUL DUP1 CALLDATASIZE DUP4 CALLDATACOPY ADD SWAP1 POP JUMPDEST POP SWAP3 POP PUSH0 DUP3 JUMPDEST PUSH1 0x12 SLOAD DUP2 GT PUSH2 0x3089 JUMPI PUSH0 DUP2 DUP2 MSTORE PUSH1 0x18 PUSH1 0x20 MSTORE PUSH1 0x40 SWAP1 KECCAK256 PUSH1 0x6 DUP2 ADD SLOAD PUSH1 0x1 AND ISZERO PUSH2 0x3076 JUMPI DUP2 DUP10 DUP5 DUP2 MLOAD DUP2 LT PUSH2 0x2FC5 JUMPI PUSH2 0x2FC5 PUSH2 0x4FD8 JUMP JUMPDEST PUSH1 0x20 SWAP1 DUP2 MUL SWAP2 SWAP1 SWAP2 ADD ADD MSTORE PUSH1 0x3 DUP2 ADD SLOAD DUP9 MLOAD PUSH1 0xFF SWAP1 SWAP2 AND SWAP1 DUP10 SWAP1 DUP6 SWAP1 DUP2 LT PUSH2 0x2FEF JUMPI PUSH2 0x2FEF PUSH2 0x4FD8 JUMP JUMPDEST PUSH1 0x20 MUL PUSH1 0x20 ADD ADD SWAP1 PUSH1 0xFF AND SWAP1 DUP2 PUSH1 0xFF AND DUP2 MSTORE POP POP DUP1 PUSH1 0x2 ADD SLOAD DUP8 DUP5 DUP2 MLOAD DUP2 LT PUSH2 0x301A JUMPI PUSH2 0x301A PUSH2 0x4FD8 JUMP JUMPDEST PUSH1 0x20 MUL PUSH1 0x20 ADD ADD DUP2 DUP2 MSTORE POP POP DUP1 PUSH1 0x3 ADD PUSH1 0x1 SWAP1 SLOAD SWAP1 PUSH2 0x100 EXP SWAP1 DIV PUSH1 0x1 PUSH1 0x1 PUSH1 0xA0 SHL SUB AND DUP7 DUP5 DUP2 MLOAD DUP2 LT PUSH2 0x3050 JUMPI PUSH2 0x3050 PUSH2 0x4FD8 JUMP JUMPDEST PUSH1 0x1 PUSH1 0x1 PUSH1 0xA0 SHL SUB SWAP1 SWAP3 AND PUSH1 0x20 SWAP3 DUP4 MUL SWAP2 SWAP1 SWAP2 ADD SWAP1 SWAP2 ADD MSTORE DUP3 PUSH2 0x3072 DUP2 PUSH2 0x5074 JUMP JUMPDEST SWAP4 POP POP JUMPDEST POP DUP1 PUSH2 0x3081 DUP2 PUSH2 0x5074 JUMP JUMPDEST SWAP2 POP POP PUSH2 0x2F8F JUMP JUMPDEST POP POP POP POP SWAP2 SWAP4 POP SWAP2 SWAP4 JUMP JUMPDEST PUSH1 0x10 SLOAD PUSH1 0x60 SWAP1 DUP2 SWAP1 PUSH1 0xFF AND ISZERO DUP1 ISZERO PUSH2 0x30B6 JUMPI POP PUSH0 SLOAD PUSH1 0x1 PUSH1 0x1 PUSH1 0xA0 SHL SUB AND CALLER EQ ISZERO JUMPDEST ISZERO PUSH2 0x30D4 JUMPI PUSH1 0x40 MLOAD PUSH4 0x147F9219 PUSH1 0xE2 SHL DUP2 MSTORE PUSH1 0x4 ADD PUSH1 0x40 MLOAD DUP1 SWAP2 SUB SWAP1 REVERT JUMPDEST PUSH1 0xFF DUP4 AND ISZERO DUP1 PUSH2 0x30E7 JUMPI POP PUSH1 0x14 PUSH1 0xFF DUP5 AND GT JUMPDEST ISZERO PUSH2 0x3105 JUMPI PUSH1 0x40 MLOAD PUSH4 0x1A49577B PUSH1 0xE1 SHL DUP2 MSTORE PUSH1 0x4 ADD PUSH1 0x40 MLOAD DUP1 SWAP2 SUB SWAP1 REVERT JUMPDEST PUSH1 0x15 SLOAD DUP4 SWAP1 PUSH1 0xFF DUP3 AND GT ISZERO PUSH2 0x3119 JUMPI POP PUSH1 0x15 SLOAD JUMPDEST DUP1 PUSH1 0xFF AND PUSH1 0x1 PUSH1 0x1 PUSH1 0x40 SHL SUB DUP2 GT ISZERO PUSH2 0x3134 JUMPI PUSH2 0x3134 PUSH2 0x5039 JUMP JUMPDEST PUSH1 0x40 MLOAD SWAP1 DUP1 DUP3 MSTORE DUP1 PUSH1 0x20 MUL PUSH1 0x20 ADD DUP3 ADD PUSH1 0x40 MSTORE DUP1 ISZERO PUSH2 0x315D JUMPI DUP2 PUSH1 0x20 ADD PUSH1 0x20 DUP3 MUL DUP1 CALLDATASIZE DUP4 CALLDATACOPY ADD SWAP1 POP JUMPDEST POP SWAP3 POP DUP1 PUSH1 0xFF AND PUSH1 0x1 PUSH1 0x1 PUSH1 0x40 SHL SUB DUP2 GT ISZERO PUSH2 0x317B JUMPI PUSH2 0x317B PUSH2 0x5039 JUMP JUMPDEST PUSH1 0x40 MLOAD SWAP1 DUP1 DUP3 MSTORE DUP1 PUSH1 0x20 MUL PUSH1 0x20 ADD DUP3 ADD PUSH1 0x40 MSTORE DUP1 ISZERO PUSH2 0x31A4 JUMPI DUP2 PUSH1 0x20 ADD PUSH1 0x20 DUP3 MUL DUP1 CALLDATASIZE DUP4 CALLDATACOPY ADD SWAP1 POP JUMPDEST POP SWAP2 POP PUSH0 JUMPDEST DUP2 PUSH1 0xFF AND DUP2 PUSH1 0xFF AND LT ISZERO PUSH2 0x3277 JUMPI PUSH1 0x15 DUP2 PUSH1 0xFF AND DUP2 SLOAD DUP2 LT PUSH2 0x31CD JUMPI PUSH2 0x31CD PUSH2 0x4FD8 JUMP JUMPDEST SWAP1 PUSH0 MSTORE PUSH1 0x20 PUSH0 KECCAK256 SWAP1 PUSH1 0x20 SWAP2 DUP3 DUP3 DIV ADD SWAP2 SWAP1 MOD SWAP1 SLOAD SWAP1 PUSH2 0x100 EXP SWAP1 DIV PUSH1 0xFF AND DUP5 DUP3 PUSH1 0xFF AND DUP2 MLOAD DUP2 LT PUSH2 0x3200 JUMPI PUSH2 0x3200 PUSH2 0x4FD8 JUMP JUMPDEST PUSH1 0x20 MUL PUSH1 0x20 ADD ADD SWAP1 PUSH1 0xFF AND SWAP1 DUP2 PUSH1 0xFF AND DUP2 MSTORE POP POP PUSH1 0x16 DUP2 PUSH1 0xFF AND DUP2 SLOAD DUP2 LT PUSH2 0x322A JUMPI PUSH2 0x322A PUSH2 0x4FD8 JUMP JUMPDEST SWAP1 PUSH0 MSTORE PUSH1 0x20 PUSH0 KECCAK256 SWAP1 PUSH1 0x20 SWAP2 DUP3 DUP3 DIV ADD SWAP2 SWAP1 MOD SWAP1 SLOAD SWAP1 PUSH2 0x100 EXP SWAP1 DIV PUSH1 0xFF AND DUP4 DUP3 PUSH1 0xFF AND DUP2 MLOAD DUP2 LT PUSH2 0x325D JUMPI PUSH2 0x325D PUSH2 0x4FD8 JUMP JUMPDEST PUSH1 0xFF SWAP1 SWAP3 AND PUSH1 0x20 SWAP3 DUP4 MUL SWAP2 SWAP1 SWAP2 ADD SWAP1 SWAP2 ADD MSTORE PUSH1 0x1 ADD PUSH2 0x31A9 JUMP JUMPDEST POP POP SWAP2 POP SWAP2 JUMP JUMPDEST PUSH2 0x3286 PUSH2 0x33FF JUMP JUMPDEST PUSH2 0xFB7 DUP2 PUSH2 0x4065 JUMP JUMPDEST PUSH2 0x3297 PUSH2 0x33FF JUMP JUMPDEST PUSH1 0x11 SLOAD PUSH2 0x100 SWAP1 DIV PUSH1 0xFF AND ISZERO PUSH2 0x32C0 JUMPI PUSH1 0x40 MLOAD PUSH4 0xEB1A381F PUSH1 0xE0 SHL DUP2 MSTORE PUSH1 0x4 ADD PUSH1 0x40 MLOAD DUP1 SWAP2 SUB SWAP1 REVERT JUMPDEST DUP2 PUSH1 0x1 SUB PUSH2 0x32D5 JUMPI PUSH2 0x32D0 PUSH2 0x3C57 JUMP JUMPDEST PUSH2 0x339D JUMP JUMPDEST DUP2 PUSH1 0x2 SUB PUSH2 0x32E5 JUMPI PUSH2 0x32D0 PUSH2 0x3D0C JUMP JUMPDEST DUP2 PUSH1 0x3 SUB PUSH2 0x339D JUMPI PUSH1 0x3 PUSH1 0x4 SLOAD PUSH1 0xFF AND PUSH1 0x3 DUP2 GT ISZERO PUSH2 0x3306 JUMPI PUSH2 0x3306 PUSH2 0x4D03 JUMP JUMPDEST EQ DUP1 ISZERO PUSH2 0x3310 JUMPI POP DUP1 JUMPDEST ISZERO PUSH2 0x3360 JUMPI PUSH1 0x12 SLOAD PUSH0 SWAP1 DUP2 MSTORE PUSH1 0x18 PUSH1 0x20 MSTORE PUSH1 0x40 SWAP1 KECCAK256 PUSH1 0x6 DUP2 ADD SLOAD PUSH1 0x2 AND ISZERO DUP1 ISZERO PUSH2 0x333D JUMPI POP PUSH0 DUP2 PUSH1 0x2 ADD SLOAD GT JUMPDEST ISZERO PUSH2 0x335E JUMPI PUSH0 PUSH2 0x334E PUSH1 0x12 SLOAD PUSH2 0x35D6 JUMP JUMPDEST SWAP1 POP PUSH2 0x335C PUSH1 0x12 SLOAD DUP3 PUSH2 0x375F JUMP JUMPDEST POP JUMPDEST POP JUMPDEST PUSH1 0x4 DUP1 SLOAD PUSH1 0xFF NOT DUP2 AND SWAP1 SWAP2 SSTORE PUSH1 0x40 MLOAD PUSH1 0xFF SWAP1 SWAP2 AND SWAP1 PUSH0 DUP1 MLOAD PUSH1 0x20 PUSH2 0x522D DUP4 CODECOPY DUP2 MLOAD SWAP2 MSTORE SWAP1 PUSH2 0x3393 SWAP1 DUP4 SWAP1 PUSH0 SWAP1 TIMESTAMP SWAP1 PUSH2 0x4FAF JUMP JUMPDEST PUSH1 0x40 MLOAD DUP1 SWAP2 SUB SWAP1 LOG1 POP JUMPDEST PUSH1 0x40 DUP1 MLOAD DUP2 DUP2 MSTORE PUSH1 0xD SWAP2 DUP2 ADD SWAP2 SWAP1 SWAP2 MSTORE PUSH13 0x506572666F726D55706B65657 PUSH1 0x9C SHL PUSH1 0x60 DUP3 ADD MSTORE TIMESTAMP PUSH1 0x20 DUP3 ADD MSTORE PUSH0 DUP1 MLOAD PUSH1 0x20 PUSH2 0x526D DUP4 CODECOPY DUP2 MLOAD SWAP2 MSTORE SWAP1 PUSH1 0x80 ADD PUSH2 0x28F5 JUMP JUMPDEST PUSH0 PUSH2 0x33EB DUP3 DUP5 PUSH2 0x50FB JUMP JUMPDEST SWAP1 POP JUMPDEST SWAP3 SWAP2 POP POP JUMP JUMPDEST PUSH0 PUSH2 0x33EB DUP3 DUP5 PUSH2 0x5126 JUMP JUMPDEST PUSH0 SLOAD PUSH1 0x1 PUSH1 0x1 PUSH1 0xA0 SHL SUB AND CALLER EQ PUSH2 0xD13 JUMPI PUSH1 0x40 MLOAD PUSH3 0x461BCD PUSH1 0xE5 SHL DUP2 MSTORE PUSH1 0x20 PUSH1 0x4 DUP3 ADD MSTORE PUSH1 0x16 PUSH1 0x24 DUP3 ADD MSTORE PUSH22 0x27B7363C9031B0B63630B1363290313C9037BBB732B9 PUSH1 0x51 SHL PUSH1 0x44 DUP3 ADD MSTORE PUSH1 0x64 ADD PUSH2 0xD51 JUMP JUMPDEST PUSH0 DUP2 DUP2 MSTORE PUSH1 0x18 PUSH1 0x20 MSTORE PUSH1 0x40 SWAP1 KECCAK256 PUSH1 0x2 DUP2 ADD SLOAD ISZERO PUSH2 0x166C JUMPI PUSH1 0x2 DUP2 ADD DUP1 SLOAD PUSH0 SWAP2 DUP3 SWAP1 SSTORE SWAP1 PUSH2 0x3485 PUSH0 SLOAD PUSH1 0x1 PUSH1 0x1 PUSH1 0xA0 SHL SUB AND SWAP1 JUMP JUMPDEST PUSH1 0x1 PUSH1 0x1 PUSH1 0xA0 SHL SUB AND DUP3 PUSH1 0x40 MLOAD PUSH0 PUSH1 0x40 MLOAD DUP1 DUP4 SUB DUP2 DUP6 DUP8 GAS CALL SWAP3 POP POP POP RETURNDATASIZE DUP1 PUSH0 DUP2 EQ PUSH2 0x34CC JUMPI PUSH1 0x40 MLOAD SWAP2 POP PUSH1 0x1F NOT PUSH1 0x3F RETURNDATASIZE ADD AND DUP3 ADD PUSH1 0x40 MSTORE RETURNDATASIZE DUP3 MSTORE RETURNDATASIZE PUSH0 PUSH1 0x20 DUP5 ADD RETURNDATACOPY PUSH2 0x34D1 JUMP JUMPDEST PUSH1 0x60 SWAP2 POP JUMPDEST POP POP SWAP1 POP DUP1 PUSH2 0x34F3 JUMPI PUSH1 0x40 MLOAD PUSH4 0x3D64DC07 PUSH1 0xE2 SHL DUP2 MSTORE PUSH1 0x4 ADD PUSH1 0x40 MLOAD DUP1 SWAP2 SUB SWAP1 REVERT JUMPDEST DUP4 PUSH32 0x9DDA03189A87743EFDE5B387677904D053F74A1F0DF131BAD661DE6FE841BDA4 DUP4 PUSH1 0x40 MLOAD PUSH2 0x3525 SWAP2 DUP2 MSTORE PUSH1 0x20 ADD SWAP1 JUMP JUMPDEST PUSH1 0x40 MLOAD DUP1 SWAP2 SUB SWAP1 LOG2 POP POP POP POP JUMP JUMPDEST PUSH1 0x2 PUSH1 0x3 SLOAD SUB PUSH2 0x3585 JUMPI PUSH1 0x40 MLOAD PUSH3 0x461BCD PUSH1 0xE5 SHL DUP2 MSTORE PUSH1 0x20 PUSH1 0x4 DUP3 ADD MSTORE PUSH1 0x1F PUSH1 0x24 DUP3 ADD MSTORE PUSH32 0x5265656E7472616E637947756172643A207265656E7472616E742063616C6C00 PUSH1 0x44 DUP3 ADD MSTORE PUSH1 0x64 ADD PUSH2 0xD51 JUMP JUMPDEST PUSH1 0x2 PUSH1 0x3 SSTORE JUMP JUMPDEST PUSH2 0xD65 DUP4 DUP4 DUP4 DUP1 DUP1 PUSH1 0x20 MUL PUSH1 0x20 ADD PUSH1 0x40 MLOAD SWAP1 DUP2 ADD PUSH1 0x40 MSTORE DUP1 SWAP4 SWAP3 SWAP2 SWAP1 DUP2 DUP2 MSTORE PUSH1 0x20 ADD DUP4 DUP4 PUSH1 0x20 MUL DUP1 DUP3 DUP5 CALLDATACOPY PUSH0 SWAP3 ADD DUP3 SWAP1 MSTORE POP PUSH1 0x40 DUP1 MLOAD PUSH1 0x20 DUP2 ADD SWAP1 SWAP2 MSTORE SWAP1 DUP2 MSTORE SWAP3 POP PUSH2 0x410D SWAP2 POP POP JUMP JUMPDEST PUSH0 DUP2 ISZERO DUP1 PUSH2 0x35E5 JUMPI POP PUSH1 0x12 SLOAD DUP3 GT JUMPDEST ISZERO PUSH2 0x3603 JUMPI PUSH1 0x40 MLOAD PUSH4 0xE0F29C9 PUSH1 0xE2 SHL DUP2 MSTORE PUSH1 0x4 ADD PUSH1 0x40 MLOAD DUP1 SWAP2 SUB SWAP1 REVERT JUMPDEST PUSH0 DUP3 DUP2 MSTORE PUSH1 0x18 PUSH1 0x20 MSTORE PUSH1 0x40 SWAP1 KECCAK256 PUSH1 0x6 DUP2 ADD SLOAD PUSH1 0x2 AND ISZERO PUSH2 0x362A JUMPI PUSH1 0x3 ADD SLOAD PUSH1 0xFF AND SWAP3 SWAP2 POP POP JUMP JUMPDEST PUSH1 0xC SLOAD PUSH0 SWAP1 PUSH2 0x100 SWAP1 DIV PUSH1 0xFF AND PUSH2 0x3642 PUSH1 0x1 NUMBER PUSH2 0x5061 JUMP JUMPDEST PUSH1 0x40 DUP1 MLOAD SWAP2 BLOCKHASH PUSH1 0x20 DUP4 ADD MSTORE TIMESTAMP SWAP1 DUP3 ADD MSTORE PREVRANDAO PUSH1 0x60 DUP3 ADD MSTORE PUSH1 0x80 DUP2 ADD DUP7 SWAP1 MSTORE PUSH1 0xA0 ADD PUSH1 0x40 MLOAD PUSH1 0x20 DUP2 DUP4 SUB SUB DUP2 MSTORE SWAP1 PUSH1 0x40 MSTORE DUP1 MLOAD SWAP1 PUSH1 0x20 ADD KECCAK256 PUSH0 SHR PUSH2 0x3684 SWAP2 SWAP1 PUSH2 0x5139 JUMP JUMPDEST PUSH2 0x368F SWAP1 PUSH1 0x1 PUSH2 0x50AA JUMP JUMPDEST PUSH1 0x3 DUP4 ADD DUP1 SLOAD PUSH1 0xFF DUP4 AND PUSH1 0xFF NOT SWAP1 SWAP2 AND OR SWAP1 SSTORE SWAP1 POP PUSH2 0x36BF DUP3 PUSH1 0x6 ADD DUP1 SLOAD PUSH1 0xFF NOT DUP2 AND PUSH1 0xFF SWAP1 SWAP2 AND OR PUSH1 0x2 OR SWAP1 SSTORE JUMP JUMPDEST PUSH2 0x36C8 DUP2 PUSH2 0x422F JUMP JUMPDEST PUSH1 0x40 MLOAD PUSH1 0xFF DUP3 AND DUP2 MSTORE DUP5 SWAP1 PUSH32 0x523A23427AAFE34095E33BA2702FEAA83701E0AAC1990F107796434F0263886C SWAP1 PUSH1 0x20 ADD PUSH1 0x40 MLOAD DUP1 SWAP2 SUB SWAP1 LOG2 PUSH1 0x40 DUP1 MLOAD PUSH1 0xFF DUP4 AND DUP2 MSTORE PUSH1 0x20 DUP2 ADD DUP3 SWAP1 MSTORE PUSH1 0x9 DUP2 DUP4 ADD MSTORE PUSH9 0x456D657267656E6379 PUSH1 0xB8 SHL PUSH1 0x60 DUP3 ADD MSTORE SWAP1 MLOAD DUP6 SWAP2 PUSH32 0xCC8842F120D538B92091AD9AFB91B92274288F32FBD1AD2009AF1483780D2B1F SWAP2 SWAP1 DUP2 SWAP1 SUB PUSH1 0x80 ADD SWAP1 LOG2 SWAP4 SWAP3 POP POP POP JUMP JUMPDEST PUSH0 DUP3 DUP2 MSTORE PUSH1 0x18 PUSH1 0x20 MSTORE PUSH1 0x40 DUP2 KECCAK256 PUSH1 0x2 DUP2 ADD SLOAD SWAP1 SWAP2 DUP2 SWAP1 SUB PUSH2 0x3783 JUMPI PUSH2 0x1207 DUP3 PUSH2 0x404E JUMP JUMPDEST PUSH0 DUP5 DUP2 MSTORE PUSH1 0x1A PUSH1 0x20 SWAP1 DUP2 MSTORE PUSH1 0x40 DUP1 DUP4 KECCAK256 PUSH1 0xFF DUP1 DUP9 AND DUP6 MSTORE SWAP1 DUP4 MSTORE DUP2 DUP5 KECCAK256 SLOAD DUP3 MLOAD DUP1 DUP5 ADD DUP5 MSTORE DUP6 DUP2 MSTORE DUP1 DUP6 ADD SWAP6 SWAP1 SWAP6 MSTORE DUP3 MLOAD DUP1 DUP5 ADD SWAP1 SWAP4 MSTORE DUP2 DUP4 MSTORE SWAP3 DUP3 ADD MSTORE PUSH1 0x1 PUSH1 0x1 PUSH1 0xA0 SHL SUB SWAP1 SWAP2 AND SWAP2 SWAP1 PUSH1 0x1 JUMPDEST PUSH1 0xC SLOAD PUSH1 0xFF PUSH2 0x100 SWAP1 SWAP2 DIV DUP2 AND SWAP1 DUP3 AND GT PUSH2 0x391C JUMPI DUP7 PUSH1 0xFF AND DUP2 PUSH1 0xFF AND SUB ISZERO PUSH2 0x390A JUMPI PUSH0 DUP9 DUP2 MSTORE PUSH1 0x1A PUSH1 0x20 SWAP1 DUP2 MSTORE PUSH1 0x40 DUP1 DUP4 KECCAK256 PUSH1 0xFF DUP6 AND DUP5 MSTORE SWAP1 SWAP2 MSTORE SWAP1 KECCAK256 SLOAD PUSH1 0x1 PUSH1 0x1 PUSH1 0xA0 SHL SUB AND DUP1 PUSH2 0x3824 JUMPI POP PUSH2 0x390A JUMP JUMPDEST PUSH0 DUP9 PUSH1 0xFF AND DUP4 PUSH1 0xFF AND GT ISZERO PUSH2 0x386D JUMPI PUSH2 0x3866 PUSH2 0x3840 DUP11 DUP6 PUSH2 0x514C JUMP JUMPDEST PUSH1 0xC SLOAD DUP6 SWAP1 PUSH2 0x3857 SWAP1 PUSH2 0x100 SWAP1 DIV PUSH1 0xFF AND DUP14 PUSH2 0x5165 JUMP JUMPDEST PUSH2 0x3861 SWAP2 SWAP1 PUSH2 0x514C JUMP JUMPDEST PUSH2 0x471A JUMP JUMPDEST SWAP1 POP PUSH2 0x3894 JUMP JUMPDEST PUSH2 0x3891 PUSH2 0x387A DUP5 DUP12 PUSH2 0x514C JUMP JUMPDEST PUSH1 0xC SLOAD DUP12 SWAP1 PUSH2 0x3857 SWAP1 PUSH2 0x100 SWAP1 DIV PUSH1 0xFF AND DUP8 PUSH2 0x5165 JUMP JUMPDEST SWAP1 POP JUMPDEST DUP4 MLOAD PUSH1 0xFF SWAP1 DUP2 AND SWAP1 DUP3 AND LT ISZERO PUSH2 0x38D6 JUMPI DUP4 MLOAD PUSH1 0xFF SWAP1 DUP2 AND PUSH1 0x20 DUP1 DUP8 ADD SWAP2 SWAP1 SWAP2 MSTORE DUP7 MLOAD PUSH1 0x1 PUSH1 0x1 PUSH1 0xA0 SHL SUB SWAP1 DUP2 AND SWAP2 DUP9 ADD SWAP2 SWAP1 SWAP2 MSTORE SWAP1 DUP3 AND DUP6 MSTORE DUP3 AND DUP6 MSTORE PUSH2 0x3907 JUMP JUMPDEST DUP4 PUSH1 0x1 PUSH1 0x20 MUL ADD MLOAD PUSH1 0xFF AND DUP2 PUSH1 0xFF AND LT ISZERO PUSH2 0x3907 JUMPI PUSH1 0xFF DUP2 AND PUSH1 0x20 DUP1 DUP7 ADD SWAP2 SWAP1 SWAP2 MSTORE PUSH1 0x1 PUSH1 0x1 PUSH1 0xA0 SHL SUB DUP4 AND SWAP1 DUP7 ADD MSTORE JUMPDEST POP POP JUMPDEST DUP1 PUSH2 0x3914 DUP2 PUSH2 0x508C JUMP JUMPDEST SWAP2 POP POP PUSH2 0x37D1 JUMP JUMPDEST POP PUSH0 DUP1 DUP1 PUSH1 0x1 PUSH1 0x1 PUSH1 0xA0 SHL SUB DUP7 AND ISZERO PUSH2 0x39F2 JUMPI PUSH1 0xD SLOAD PUSH2 0x3949 SWAP1 PUSH2 0x2710 SWAP1 PUSH2 0xB62 SWAP1 DUP11 SWAP1 PUSH2 0xFFFF AND PUSH2 0x33E0 JUMP JUMPDEST PUSH1 0xD SLOAD SWAP1 SWAP4 POP PUSH2 0x396C SWAP1 PUSH2 0x2710 SWAP1 PUSH2 0xB62 SWAP1 DUP11 SWAP1 PUSH3 0x10000 SWAP1 DIV PUSH2 0xFFFF AND PUSH2 0x33E0 JUMP JUMPDEST PUSH1 0xD SLOAD SWAP1 SWAP3 POP PUSH2 0x3990 SWAP1 PUSH2 0x2710 SWAP1 PUSH2 0xB62 SWAP1 DUP11 SWAP1 PUSH1 0x1 PUSH1 0x30 SHL SWAP1 DIV PUSH2 0xFFFF AND PUSH2 0x33E0 JUMP JUMPDEST PUSH1 0x1 PUSH1 0x1 PUSH1 0xA0 SHL SUB DUP8 AND PUSH0 SWAP1 DUP2 MSTORE PUSH1 0x1C PUSH1 0x20 MSTORE PUSH1 0x40 SWAP1 KECCAK256 SLOAD SWAP1 SWAP2 POP PUSH2 0x39B5 SWAP1 DUP5 PUSH2 0x3EBC JUMP JUMPDEST PUSH1 0x1 PUSH1 0x1 PUSH1 0xA0 SHL SUB DUP8 AND PUSH0 DUP2 DUP2 MSTORE PUSH1 0x1C PUSH1 0x20 MSTORE PUSH1 0x40 SWAP1 KECCAK256 SWAP2 SWAP1 SWAP2 SSTORE PUSH1 0x3 DUP10 ADD DUP1 SLOAD PUSH2 0x100 PUSH1 0x1 PUSH1 0xA8 SHL SUB NOT AND PUSH2 0x100 SWAP1 SWAP3 MUL SWAP2 SWAP1 SWAP2 OR SWAP1 SSTORE PUSH2 0x3A3E JUMP JUMPDEST PUSH1 0xD SLOAD PUSH0 SWAP4 POP PUSH2 0x3A17 SWAP1 PUSH2 0x2710 SWAP1 PUSH2 0xB62 SWAP1 DUP11 SWAP1 PUSH5 0x100000000 SWAP1 DIV PUSH2 0xFFFF AND PUSH2 0x33E0 JUMP JUMPDEST PUSH1 0xD SLOAD SWAP1 SWAP3 POP PUSH2 0x3A3B SWAP1 PUSH2 0x2710 SWAP1 PUSH2 0xB62 SWAP1 DUP11 SWAP1 PUSH1 0x1 PUSH1 0x40 SHL SWAP1 DIV PUSH2 0xFFFF AND PUSH2 0x33E0 JUMP JUMPDEST SWAP1 POP JUMPDEST PUSH0 DUP1 JUMPDEST PUSH1 0x2 DUP2 PUSH1 0xFF AND LT ISZERO PUSH2 0x3B24 JUMPI PUSH0 DUP8 PUSH1 0xFF DUP4 AND PUSH1 0x2 DUP2 LT PUSH2 0x3A63 JUMPI PUSH2 0x3A63 PUSH2 0x4FD8 JUMP JUMPDEST PUSH1 0x20 MUL ADD MLOAD PUSH1 0x1 PUSH1 0x1 PUSH1 0xA0 SHL SUB AND EQ PUSH2 0x3B0F JUMPI PUSH2 0x3AC5 DUP5 PUSH1 0x1C PUSH0 DUP11 DUP6 PUSH1 0xFF AND PUSH1 0x2 DUP2 LT PUSH2 0x3A92 JUMPI PUSH2 0x3A92 PUSH2 0x4FD8 JUMP JUMPDEST PUSH1 0x20 MUL ADD MLOAD PUSH1 0x1 PUSH1 0x1 PUSH1 0xA0 SHL SUB AND PUSH1 0x1 PUSH1 0x1 PUSH1 0xA0 SHL SUB AND DUP2 MSTORE PUSH1 0x20 ADD SWAP1 DUP2 MSTORE PUSH1 0x20 ADD PUSH0 KECCAK256 SLOAD PUSH2 0x3EBC SWAP1 SWAP2 SWAP1 PUSH4 0xFFFFFFFF AND JUMP JUMPDEST PUSH1 0x1C PUSH0 DUP10 DUP5 PUSH1 0xFF AND PUSH1 0x2 DUP2 LT PUSH2 0x3ADD JUMPI PUSH2 0x3ADD PUSH2 0x4FD8 JUMP JUMPDEST PUSH1 0x20 SWAP1 DUP2 MUL SWAP2 SWAP1 SWAP2 ADD MLOAD PUSH1 0x1 PUSH1 0x1 PUSH1 0xA0 SHL SUB AND DUP3 MSTORE DUP2 ADD SWAP2 SWAP1 SWAP2 MSTORE PUSH1 0x40 ADD PUSH0 KECCAK256 SSTORE PUSH2 0x3B08 DUP3 DUP6 PUSH2 0x3EBC JUMP JUMPDEST SWAP2 POP PUSH2 0x3B1C JUMP JUMPDEST PUSH2 0x3B19 DUP4 DUP6 PUSH2 0x3EBC JUMP JUMPDEST SWAP3 POP JUMPDEST PUSH1 0x1 ADD PUSH2 0x3A41 JUMP JUMPDEST POP PUSH2 0x3B34 PUSH1 0x4 DUP11 ADD DUP8 PUSH1 0x2 PUSH2 0x47C4 JUMP JUMPDEST POP DUP2 ISZERO PUSH2 0x3BE9 JUMPI PUSH1 0xD SLOAD PUSH0 SWAP1 PUSH2 0x3B5E SWAP1 PUSH2 0x2710 SWAP1 PUSH2 0xB62 SWAP1 DUP7 SWAP1 PUSH1 0x1 PUSH1 0x50 SHL SWAP1 DIV PUSH2 0xFFFF AND PUSH2 0x33E0 JUMP JUMPDEST SWAP1 POP PUSH0 PUSH2 0x3B6B DUP5 DUP4 PUSH2 0x3C4C JUMP JUMPDEST SWAP1 POP DUP1 ISZERO PUSH2 0x3BE6 JUMPI PUSH0 DUP1 SLOAD PUSH1 0x40 MLOAD PUSH1 0x1 PUSH1 0x1 PUSH1 0xA0 SHL SUB SWAP1 SWAP2 AND SWAP1 DUP4 SWAP1 DUP4 DUP2 DUP2 DUP2 DUP6 DUP8 GAS CALL SWAP3 POP POP POP RETURNDATASIZE DUP1 PUSH0 DUP2 EQ PUSH2 0x3BBD JUMPI PUSH1 0x40 MLOAD SWAP2 POP PUSH1 0x1F NOT PUSH1 0x3F RETURNDATASIZE ADD AND DUP3 ADD PUSH1 0x40 MSTORE RETURNDATASIZE DUP3 MSTORE RETURNDATASIZE PUSH0 PUSH1 0x20 DUP5 ADD RETURNDATACOPY PUSH2 0x3BC2 JUMP JUMPDEST PUSH1 0x60 SWAP2 POP JUMPDEST POP POP SWAP1 POP DUP1 PUSH2 0x3BE4 JUMPI PUSH1 0x40 MLOAD PUSH4 0x27C94E21 PUSH1 0xE1 SHL DUP2 MSTORE PUSH1 0x4 ADD PUSH1 0x40 MLOAD DUP1 SWAP2 SUB SWAP1 REVERT JUMPDEST POP JUMPDEST POP POP JUMPDEST PUSH2 0x3BF2 DUP10 PUSH2 0x404E JUMP JUMPDEST PUSH1 0x40 MLOAD DUP12 SWAP1 PUSH32 0x5E2A1D89766A75CE71EDD56466E97B6F79EBD9B2900EAC9DA0808DC577412E37 SWAP1 PUSH2 0x3C37 SWAP1 DUP11 SWAP1 DUP11 SWAP1 DUP10 SWAP1 DUP10 SWAP1 PUSH1 0x1 PUSH1 0x1 PUSH1 0xA0 SHL SUB DUP6 AND ISZERO ISZERO SWAP1 PUSH2 0x517E JUMP JUMPDEST PUSH1 0x40 MLOAD DUP1 SWAP2 SUB SWAP1 LOG2 POP POP POP POP POP POP POP POP POP POP POP JUMP JUMPDEST PUSH0 PUSH2 0x33EB DUP3 DUP5 PUSH2 0x5061 JUMP JUMPDEST PUSH1 0x12 SLOAD PUSH0 SWAP1 DUP2 MSTORE PUSH1 0x18 PUSH1 0x20 MSTORE PUSH1 0x40 SWAP1 KECCAK256 TIMESTAMP PUSH1 0x1 DUP3 ADD SSTORE PUSH2 0x3C88 DUP2 PUSH1 0x6 ADD DUP1 SLOAD PUSH1 0xFF NOT DUP2 AND PUSH1 0xFF SWAP1 SWAP2 AND OR PUSH1 0x8 OR SWAP1 SSTORE JUMP JUMPDEST PUSH1 0x4 DUP1 SLOAD PUSH1 0x2 PUSH1 0xFF NOT DUP3 AND DUP2 OR SWAP1 SWAP3 SSTORE PUSH1 0x40 MLOAD PUSH1 0xFF SWAP1 SWAP2 AND SWAP2 PUSH0 DUP1 MLOAD PUSH1 0x20 PUSH2 0x522D DUP4 CODECOPY DUP2 MLOAD SWAP2 MSTORE SWAP2 PUSH2 0x3CBD SWAP2 DUP5 SWAP2 TIMESTAMP SWAP1 PUSH2 0x4FAF JUMP JUMPDEST PUSH1 0x40 MLOAD DUP1 SWAP2 SUB SWAP1 LOG1 PUSH1 0x12 SLOAD PUSH1 0x2 DUP4 ADD SLOAD PUSH1 0x40 DUP1 MLOAD TIMESTAMP DUP2 MSTORE PUSH1 0x20 DUP2 ADD SWAP3 SWAP1 SWAP3 MSTORE PUSH32 0xC5285DB7D8A9C3A0CE0E8982FF9A84FE8DF355101D9545735558C69EFB4AAD57 SWAP2 ADD JUMPDEST PUSH1 0x40 MLOAD DUP1 SWAP2 SUB SWAP1 LOG2 POP POP JUMP JUMPDEST PUSH1 0x12 SLOAD PUSH0 SWAP1 DUP2 MSTORE PUSH1 0x18 PUSH1 0x20 MSTORE PUSH1 0x40 SWAP1 KECCAK256 PUSH1 0x2 DUP2 ADD SLOAD ISZERO PUSH2 0x3E7E JUMPI PUSH1 0x2 SLOAD PUSH1 0x40 DUP1 MLOAD PUSH1 0xC0 DUP2 ADD DUP3 MSTORE PUSH1 0x6 SLOAD DUP2 MSTORE PUSH1 0x5 SLOAD PUSH1 0x20 DUP1 DUP4 ADD SWAP2 SWAP1 SWAP2 MSTORE PUSH1 0x3 DUP3 DUP5 ADD MSTORE PUSH3 0x2625A0 PUSH1 0x60 DUP4 ADD MSTORE PUSH1 0x1 PUSH1 0x80 DUP4 ADD MSTORE DUP3 MLOAD SWAP1 DUP2 ADD SWAP1 SWAP3 MSTORE PUSH0 DUP1 DUP4 MSTORE SWAP3 PUSH1 0x1 PUSH1 0x1 PUSH1 0xA0 SHL SUB AND SWAP2 PUSH4 0x9B1C385E SWAP2 SWAP1 PUSH1 0xA0 DUP3 ADD SWAP1 PUSH2 0x3D86 SWAP1 PUSH2 0x4735 JUMP JUMPDEST DUP2 MSTORE POP PUSH1 0x40 MLOAD DUP3 PUSH4 0xFFFFFFFF AND PUSH1 0xE0 SHL DUP2 MSTORE PUSH1 0x4 ADD PUSH2 0x3DA5 SWAP2 SWAP1 PUSH2 0x51B9 JUMP JUMPDEST PUSH1 0x20 PUSH1 0x40 MLOAD DUP1 DUP4 SUB DUP2 PUSH0 DUP8 GAS CALL ISZERO DUP1 ISZERO PUSH2 0x3DC1 JUMPI RETURNDATASIZE PUSH0 DUP1 RETURNDATACOPY RETURNDATASIZE PUSH0 REVERT JUMPDEST POP POP POP POP PUSH1 0x40 MLOAD RETURNDATASIZE PUSH1 0x1F NOT PUSH1 0x1F DUP3 ADD AND DUP3 ADD DUP1 PUSH1 0x40 MSTORE POP DUP2 ADD SWAP1 PUSH2 0x3DE5 SWAP2 SWAP1 PUSH2 0x5215 JUMP JUMPDEST PUSH1 0x12 SLOAD PUSH0 DUP3 DUP2 MSTORE PUSH1 0x7 PUSH1 0x20 MSTORE PUSH1 0x40 SWAP1 KECCAK256 SSTORE SWAP1 POP PUSH2 0x3E13 DUP3 PUSH1 0x6 ADD DUP1 SLOAD PUSH1 0xFF NOT DUP2 AND PUSH1 0xFF SWAP1 SWAP2 AND OR PUSH1 0x4 OR SWAP1 SSTORE JUMP JUMPDEST PUSH1 0x12 SLOAD PUSH1 0x40 MLOAD DUP3 DUP2 MSTORE PUSH32 0x5A7714FFA9C24D72553C49C132DB52354EB21DF8A76CEFA9DEF229B276FEEB4 SWAP1 PUSH1 0x20 ADD PUSH1 0x40 MLOAD DUP1 SWAP2 SUB SWAP1 LOG2 PUSH1 0x4 DUP1 SLOAD PUSH1 0x3 PUSH1 0xFF NOT DUP3 AND DUP2 OR SWAP1 SWAP3 SSTORE PUSH1 0x40 MLOAD PUSH1 0xFF SWAP1 SWAP2 AND SWAP2 PUSH0 DUP1 MLOAD PUSH1 0x20 PUSH2 0x522D DUP4 CODECOPY DUP2 MLOAD SWAP2 MSTORE SWAP2 PUSH2 0xE85 SWAP2 DUP5 SWAP2 TIMESTAMP SWAP1 PUSH2 0x4FAF JUMP JUMPDEST PUSH2 0x3E87 DUP2 PUSH2 0x404E JUMP JUMPDEST PUSH1 0x4 DUP1 SLOAD PUSH1 0x3 PUSH1 0xFF NOT DUP3 AND DUP2 OR SWAP1 SWAP3 SSTORE PUSH1 0x40 MLOAD PUSH1 0xFF SWAP1 SWAP2 AND SWAP2 PUSH0 DUP1 MLOAD PUSH1 0x20 PUSH2 0x522D DUP4 CODECOPY DUP2 MLOAD SWAP2 MSTORE SWAP2 PUSH2 0x28F5 SWAP2 DUP5 SWAP2 TIMESTAMP SWAP1 PUSH2 0x4FAF JUMP JUMPDEST PUSH0 PUSH2 0x33EB DUP3 DUP5 PUSH2 0x50AA JUMP JUMPDEST PUSH1 0x4 DUP1 SLOAD PUSH1 0x1 PUSH1 0xFF NOT DUP3 AND DUP2 OR SWAP1 SWAP3 SSTORE PUSH1 0x40 MLOAD PUSH1 0xFF SWAP1 SWAP2 AND SWAP2 PUSH0 DUP1 MLOAD PUSH1 0x20 PUSH2 0x522D DUP4 CODECOPY DUP2 MLOAD SWAP2 MSTORE SWAP2 PUSH2 0x3EFC SWAP2 DUP5 SWAP2 TIMESTAMP SWAP1 PUSH2 0x4FAF JUMP JUMPDEST PUSH1 0x40 MLOAD DUP1 SWAP2 SUB SWAP1 LOG1 PUSH1 0x12 SLOAD PUSH2 0x3F12 SWAP1 PUSH1 0x1 PUSH2 0x3EBC JUMP JUMPDEST PUSH1 0x12 SSTORE TIMESTAMP PUSH1 0x13 DUP2 SWAP1 SSTORE PUSH1 0x9 SLOAD PUSH2 0x3F28 SWAP2 SWAP1 PUSH2 0x3EBC JUMP JUMPDEST PUSH1 0x14 DUP2 SWAP1 SSTORE PUSH1 0x40 DUP1 MLOAD PUSH1 0xE0 DUP2 ADD DUP3 MSTORE PUSH1 0x13 SLOAD DUP2 MSTORE PUSH1 0x20 DUP1 DUP3 ADD SWAP4 DUP5 MSTORE PUSH0 DUP3 DUP5 ADD DUP2 DUP2 MSTORE PUSH1 0x60 DUP5 ADD DUP3 DUP2 MSTORE PUSH1 0x80 DUP6 ADD DUP4 DUP2 MSTORE DUP7 MLOAD DUP1 DUP9 ADD DUP9 MSTORE DUP5 DUP2 MSTORE DUP1 DUP7 ADD DUP6 SWAP1 MSTORE PUSH1 0xA0 DUP8 ADD SWAP1 DUP2 MSTORE PUSH1 0xC0 DUP8 ADD DUP6 SWAP1 MSTORE PUSH1 0x12 SLOAD DUP6 MSTORE PUSH1 0x18 SWAP1 SWAP6 MSTORE SWAP6 SWAP1 SWAP3 KECCAK256 DUP5 MLOAD DUP2 SSTORE SWAP6 MLOAD PUSH1 0x1 DUP8 ADD SSTORE MLOAD PUSH1 0x2 DUP1 DUP8 ADD SWAP2 SWAP1 SWAP2 SSTORE SWAP1 MLOAD PUSH1 0x3 DUP7 ADD DUP1 SLOAD SWAP6 MLOAD PUSH1 0x1 PUSH1 0x1 PUSH1 0xA0 SHL SUB AND PUSH2 0x100 MUL PUSH1 0x1 PUSH1 0x1 PUSH1 0xA8 SHL SUB NOT SWAP1 SWAP7 AND PUSH1 0xFF SWAP3 SWAP1 SWAP3 AND SWAP2 SWAP1 SWAP2 OR SWAP5 SWAP1 SWAP5 OR SWAP1 SWAP4 SSTORE MLOAD SWAP1 SWAP3 SWAP2 PUSH2 0x3FE0 SWAP2 PUSH1 0x4 DUP5 ADD SWAP2 PUSH2 0x47C4 JUMP JUMPDEST POP PUSH1 0xC0 SWAP2 SWAP1 SWAP2 ADD MLOAD PUSH1 0x6 SWAP1 SWAP2 ADD DUP1 SLOAD PUSH1 0xFF NOT AND PUSH1 0xFF SWAP1 SWAP3 AND SWAP2 SWAP1 SWAP2 OR SWAP1 SSTORE PUSH1 0x12 SLOAD PUSH1 0x13 SLOAD PUSH1 0x14 SLOAD PUSH1 0x40 DUP1 MLOAD SWAP3 DUP4 MSTORE PUSH1 0x20 DUP4 ADD SWAP2 SWAP1 SWAP2 MSTORE PUSH1 0x1 PUSH1 0x1 PUSH1 0xA0 SHL SUB DUP6 AND SWAP1 DUP3 ADD MSTORE PUSH32 0x193D08EE6856C7F1F6AEB8755E405619768FC664C613B4C793347F3BBE627B25 SWAP1 PUSH1 0x60 ADD PUSH2 0x3D00 JUMP JUMPDEST PUSH1 0x6 ADD DUP1 SLOAD PUSH1 0xFF NOT DUP2 AND PUSH1 0xFF SWAP1 SWAP2 AND OR PUSH1 0x1 OR SWAP1 SSTORE JUMP JUMPDEST CALLER PUSH1 0x1 PUSH1 0x1 PUSH1 0xA0 SHL SUB DUP3 AND SUB PUSH2 0x40BD JUMPI PUSH1 0x40 MLOAD PUSH3 0x461BCD PUSH1 0xE5 SHL DUP2 MSTORE PUSH1 0x20 PUSH1 0x4 DUP3 ADD MSTORE PUSH1 0x17 PUSH1 0x24 DUP3 ADD MSTORE PUSH32 0x43616E6E6F74207472616E7366657220746F2073656C66000000000000000000 PUSH1 0x44 DUP3 ADD MSTORE PUSH1 0x64 ADD PUSH2 0xD51 JUMP JUMPDEST PUSH1 0x1 DUP1 SLOAD PUSH1 0x1 PUSH1 0x1 PUSH1 0xA0 SHL SUB NOT AND PUSH1 0x1 PUSH1 0x1 PUSH1 0xA0 SHL SUB DUP4 DUP2 AND SWAP2 DUP3 OR SWAP1 SWAP3 SSTORE PUSH0 DUP1 SLOAD PUSH1 0x40 MLOAD SWAP3 SWAP4 AND SWAP2 PUSH32 0xED8889F560326EB138920D842192F0EB3DD22B4F139C87A2C57538E05BAE1278 SWAP2 SWAP1 LOG3 POP JUMP JUMPDEST PUSH0 DUP4 DUP2 MSTORE PUSH1 0x7 PUSH1 0x20 MSTORE PUSH1 0x40 DUP2 KECCAK256 SLOAD SWAP1 DUP2 SWAP1 SUB PUSH2 0x413C JUMPI PUSH1 0x40 MLOAD PUSH4 0x2E81453 PUSH1 0xE6 SHL DUP2 MSTORE PUSH1 0x4 ADD PUSH1 0x40 MLOAD DUP1 SWAP2 SUB SWAP1 REVERT JUMPDEST PUSH0 DUP2 DUP2 MSTORE PUSH1 0x18 PUSH1 0x20 MSTORE PUSH1 0x40 SWAP1 KECCAK256 PUSH1 0x6 DUP2 ADD SLOAD PUSH1 0x2 AND ISZERO PUSH2 0x416F JUMPI PUSH1 0x40 MLOAD PUSH4 0x66B05B07 PUSH1 0xE1 SHL DUP2 MSTORE PUSH1 0x4 ADD PUSH1 0x40 MLOAD DUP1 SWAP2 SUB SWAP1 REVERT JUMPDEST PUSH1 0xC SLOAD DUP5 MLOAD PUSH0 SWAP2 PUSH2 0x100 SWAP1 DIV PUSH1 0xFF AND SWAP1 DUP7 SWAP1 DUP4 SWAP1 PUSH2 0x418F JUMPI PUSH2 0x418F PUSH2 0x4FD8 JUMP JUMPDEST PUSH1 0x20 MUL PUSH1 0x20 ADD ADD MLOAD PUSH2 0x41A1 SWAP2 SWAP1 PUSH2 0x5139 JUMP JUMPDEST PUSH2 0x41AC SWAP1 PUSH1 0x1 PUSH2 0x50AA JUMP JUMPDEST PUSH1 0x3 DUP4 ADD DUP1 SLOAD PUSH1 0xFF DUP4 AND PUSH1 0xFF NOT SWAP1 SWAP2 AND OR SWAP1 SSTORE SWAP1 POP PUSH2 0x41DC DUP3 PUSH1 0x6 ADD DUP1 SLOAD PUSH1 0xFF NOT DUP2 AND PUSH1 0xFF SWAP1 SWAP2 AND OR PUSH1 0x2 OR SWAP1 SSTORE JUMP JUMPDEST PUSH2 0x41E5 DUP2 PUSH2 0x422F JUMP JUMPDEST PUSH1 0x40 MLOAD PUSH1 0xFF DUP3 AND DUP2 MSTORE DUP4 SWAP1 PUSH32 0x523A23427AAFE34095E33BA2702FEAA83701E0AAC1990F107796434F0263886C SWAP1 PUSH1 0x20 ADD PUSH1 0x40 MLOAD DUP1 SWAP2 SUB SWAP1 LOG2 PUSH2 0x4227 DUP4 DUP3 PUSH2 0x375F JUMP JUMPDEST POP POP POP POP POP POP JUMP JUMPDEST PUSH1 0xFF DUP2 AND PUSH0 SWAP1 DUP2 MSTORE PUSH1 0x17 PUSH1 0x20 MSTORE PUSH1 0x40 SWAP1 KECCAK256 SLOAD PUSH2 0x424C SWAP1 PUSH1 0x1 PUSH2 0x3EBC JUMP JUMPDEST PUSH1 0xFF DUP1 DUP4 AND PUSH0 SWAP1 DUP2 MSTORE PUSH1 0x17 PUSH1 0x20 MSTORE PUSH1 0x40 DUP2 KECCAK256 SWAP3 SWAP1 SWAP3 SSTORE PUSH1 0xC SLOAD PUSH2 0x100 SWAP1 DIV AND PUSH1 0x1 PUSH1 0x1 PUSH1 0x40 SHL SUB DUP2 GT ISZERO PUSH2 0x4282 JUMPI PUSH2 0x4282 PUSH2 0x5039 JUMP JUMPDEST PUSH1 0x40 MLOAD SWAP1 DUP1 DUP3 MSTORE DUP1 PUSH1 0x20 MUL PUSH1 0x20 ADD DUP3 ADD PUSH1 0x40 MSTORE DUP1 ISZERO PUSH2 0x42AB JUMPI DUP2 PUSH1 0x20 ADD PUSH1 0x20 DUP3 MUL DUP1 CALLDATASIZE DUP4 CALLDATACOPY ADD SWAP1 POP JUMPDEST POP PUSH1 0xC SLOAD SWAP1 SWAP2 POP PUSH0 SWAP1 PUSH2 0x100 SWAP1 DIV PUSH1 0xFF AND PUSH1 0x1 PUSH1 0x1 PUSH1 0x40 SHL SUB DUP2 GT ISZERO PUSH2 0x42D3 JUMPI PUSH2 0x42D3 PUSH2 0x5039 JUMP JUMPDEST PUSH1 0x40 MLOAD SWAP1 DUP1 DUP3 MSTORE DUP1 PUSH1 0x20 MUL PUSH1 0x20 ADD DUP3 ADD PUSH1 0x40 MSTORE DUP1 ISZERO PUSH2 0x42FC JUMPI DUP2 PUSH1 0x20 ADD PUSH1 0x20 DUP3 MUL DUP1 CALLDATASIZE DUP4 CALLDATACOPY ADD SWAP1 POP JUMPDEST POP SWAP1 POP PUSH1 0x1 JUMPDEST PUSH1 0xC SLOAD PUSH1 0xFF PUSH2 0x100 SWAP1 SWAP2 DIV DUP2 AND SWAP1 DUP3 AND GT PUSH2 0x4398 JUMPI DUP1 DUP4 PUSH2 0x4324 PUSH1 0x1 DUP4 PUSH2 0x514C JUMP JUMPDEST PUSH1 0xFF AND DUP2 MLOAD DUP2 LT PUSH2 0x4337 JUMPI PUSH2 0x4337 PUSH2 0x4FD8 JUMP JUMPDEST PUSH1 0xFF SWAP3 DUP4 AND PUSH1 0x20 SWAP2 DUP3 MUL SWAP3 SWAP1 SWAP3 ADD DUP2 ADD SWAP2 SWAP1 SWAP2 MSTORE SWAP1 DUP3 AND PUSH0 SWAP1 DUP2 MSTORE PUSH1 0x17 SWAP1 SWAP2 MSTORE PUSH1 0x40 SWAP1 KECCAK256 SLOAD DUP3 PUSH2 0x4368 PUSH1 0x1 DUP5 PUSH2 0x514C JUMP JUMPDEST PUSH1 0xFF AND DUP2 MLOAD DUP2 LT PUSH2 0x437B JUMPI PUSH2 0x437B PUSH2 0x4FD8 JUMP JUMPDEST PUSH1 0x20 SWAP1 DUP2 MUL SWAP2 SWAP1 SWAP2 ADD ADD MSTORE DUP1 PUSH2 0x4390 DUP2 PUSH2 0x508C JUMP JUMPDEST SWAP2 POP POP PUSH2 0x4302 JUMP JUMPDEST POP PUSH1 0xC SLOAD PUSH0 SWAP1 PUSH2 0x100 SWAP1 DIV PUSH1 0xFF AND PUSH1 0x14 GT PUSH2 0x43B4 JUMPI PUSH1 0x14 PUSH2 0x43C0 JUMP JUMPDEST PUSH1 0xC SLOAD PUSH2 0x100 SWAP1 DIV PUSH1 0xFF AND JUMPDEST SWAP1 POP PUSH0 JUMPDEST DUP2 PUSH1 0xFF AND DUP2 LT ISZERO PUSH2 0x4543 JUMPI DUP1 PUSH0 PUSH2 0x43DC DUP3 PUSH1 0x1 PUSH2 0x50AA JUMP JUMPDEST SWAP1 POP JUMPDEST PUSH1 0xC SLOAD PUSH2 0x100 SWAP1 DIV PUSH1 0xFF AND DUP2 LT ISZERO PUSH2 0x4437 JUMPI DUP5 DUP3 DUP2 MLOAD DUP2 LT PUSH2 0x4403 JUMPI PUSH2 0x4403 PUSH2 0x4FD8 JUMP JUMPDEST PUSH1 0x20 MUL PUSH1 0x20 ADD ADD MLOAD DUP6 DUP3 DUP2 MLOAD DUP2 LT PUSH2 0x441D JUMPI PUSH2 0x441D PUSH2 0x4FD8 JUMP JUMPDEST PUSH1 0x20 MUL PUSH1 0x20 ADD ADD MLOAD GT ISZERO PUSH2 0x442F JUMPI DUP1 SWAP2 POP JUMPDEST PUSH1 0x1 ADD PUSH2 0x43DF JUMP JUMPDEST POP DUP2 DUP2 EQ PUSH2 0x453A JUMPI PUSH0 DUP5 DUP4 DUP2 MLOAD DUP2 LT PUSH2 0x4452 JUMPI PUSH2 0x4452 PUSH2 0x4FD8 JUMP JUMPDEST PUSH1 0x20 MUL PUSH1 0x20 ADD ADD MLOAD SWAP1 POP DUP5 DUP3 DUP2 MLOAD DUP2 LT PUSH2 0x446E JUMPI PUSH2 0x446E PUSH2 0x4FD8 JUMP JUMPDEST PUSH1 0x20 MUL PUSH1 0x20 ADD ADD MLOAD DUP6 DUP5 DUP2 MLOAD DUP2 LT PUSH2 0x4488 JUMPI PUSH2 0x4488 PUSH2 0x4FD8 JUMP JUMPDEST PUSH1 0x20 MUL PUSH1 0x20 ADD ADD DUP2 DUP2 MSTORE POP POP DUP1 DUP6 DUP4 DUP2 MLOAD DUP2 LT PUSH2 0x44A7 JUMPI PUSH2 0x44A7 PUSH2 0x4FD8 JUMP JUMPDEST PUSH1 0x20 MUL PUSH1 0x20 ADD ADD DUP2 DUP2 MSTORE POP POP PUSH0 DUP7 DUP5 DUP2 MLOAD DUP2 LT PUSH2 0x44C6 JUMPI PUSH2 0x44C6 PUSH2 0x4FD8 JUMP JUMPDEST PUSH1 0x20 MUL PUSH1 0x20 ADD ADD MLOAD SWAP1 POP DUP7 DUP4 DUP2 MLOAD DUP2 LT PUSH2 0x44E2 JUMPI PUSH2 0x44E2 PUSH2 0x4FD8 JUMP JUMPDEST PUSH1 0x20 MUL PUSH1 0x20 ADD ADD MLOAD DUP8 DUP6 DUP2 MLOAD DUP2 LT PUSH2 0x44FC JUMPI PUSH2 0x44FC PUSH2 0x4FD8 JUMP JUMPDEST PUSH1 0x20 MUL PUSH1 0x20 ADD ADD SWAP1 PUSH1 0xFF AND SWAP1 DUP2 PUSH1 0xFF AND DUP2 MSTORE POP POP DUP1 DUP8 DUP5 DUP2 MLOAD DUP2 LT PUSH2 0x4523 JUMPI PUSH2 0x4523 PUSH2 0x4FD8 JUMP JUMPDEST PUSH1 0x20 MUL PUSH1 0x20 ADD ADD SWAP1 PUSH1 0xFF AND SWAP1 DUP2 PUSH1 0xFF AND DUP2 MSTORE POP POP POP POP JUMPDEST POP PUSH1 0x1 ADD PUSH2 0x43C4 JUMP JUMPDEST POP PUSH2 0x454F PUSH1 0x15 PUSH0 PUSH2 0x481C JUMP JUMPDEST DUP1 PUSH1 0xFF AND PUSH1 0x1 PUSH1 0x1 PUSH1 0x40 SHL SUB DUP2 GT ISZERO PUSH2 0x456A JUMPI PUSH2 0x456A PUSH2 0x5039 JUMP JUMPDEST PUSH1 0x40 MLOAD SWAP1 DUP1 DUP3 MSTORE DUP1 PUSH1 0x20 MUL PUSH1 0x20 ADD DUP3 ADD PUSH1 0x40 MSTORE DUP1 ISZERO PUSH2 0x4593 JUMPI DUP2 PUSH1 0x20 ADD PUSH1 0x20 DUP3 MUL DUP1 CALLDATASIZE DUP4 CALLDATACOPY ADD SWAP1 POP JUMPDEST POP DUP1 MLOAD PUSH2 0x45A8 SWAP2 PUSH1 0x15 SWAP2 PUSH1 0x20 SWAP1 SWAP2 ADD SWAP1 PUSH2 0x483E JUMP JUMPDEST POP PUSH0 JUMPDEST DUP2 PUSH1 0xFF AND DUP2 LT ISZERO PUSH2 0x4618 JUMPI DUP4 DUP2 DUP2 MLOAD DUP2 LT PUSH2 0x45C8 JUMPI PUSH2 0x45C8 PUSH2 0x4FD8 JUMP JUMPDEST PUSH1 0x20 MUL PUSH1 0x20 ADD ADD MLOAD PUSH1 0x15 DUP3 DUP2 SLOAD DUP2 LT PUSH2 0x45E3 JUMPI PUSH2 0x45E3 PUSH2 0x4FD8 JUMP JUMPDEST SWAP1 PUSH0 MSTORE PUSH1 0x20 PUSH0 KECCAK256 SWAP1 PUSH1 0x20 SWAP2 DUP3 DUP3 DIV ADD SWAP2 SWAP1 MOD PUSH2 0x100 EXP DUP2 SLOAD DUP2 PUSH1 0xFF MUL NOT AND SWAP1 DUP4 PUSH1 0xFF AND MUL OR SWAP1 SSTORE POP DUP1 DUP1 PUSH1 0x1 ADD SWAP2 POP POP PUSH2 0x45AB JUMP JUMPDEST POP PUSH2 0x4624 PUSH1 0x16 PUSH0 PUSH2 0x481C JUMP JUMPDEST DUP1 PUSH1 0xFF AND PUSH1 0x1 PUSH1 0x1 PUSH1 0x40 SHL SUB DUP2 GT ISZERO PUSH2 0x463F JUMPI PUSH2 0x463F PUSH2 0x5039 JUMP JUMPDEST PUSH1 0x40 MLOAD SWAP1 DUP1 DUP3 MSTORE DUP1 PUSH1 0x20 MUL PUSH1 0x20 ADD DUP3 ADD PUSH1 0x40 MSTORE DUP1 ISZERO PUSH2 0x4668 JUMPI DUP2 PUSH1 0x20 ADD PUSH1 0x20 DUP3 MUL DUP1 CALLDATASIZE DUP4 CALLDATACOPY ADD SWAP1 POP JUMPDEST POP DUP1 MLOAD PUSH2 0x467D SWAP2 PUSH1 0x16 SWAP2 PUSH1 0x20 SWAP1 SWAP2 ADD SWAP1 PUSH2 0x483E JUMP JUMPDEST POP PUSH0 JUMPDEST DUP2 PUSH1 0xFF AND DUP2 LT ISZERO PUSH2 0x4713 JUMPI PUSH1 0xC SLOAD DUP5 SWAP1 DUP3 SWAP1 PUSH2 0x46A6 SWAP1 PUSH1 0x1 SWAP1 PUSH2 0x100 SWAP1 DIV PUSH1 0xFF AND PUSH2 0x514C JUMP JUMPDEST PUSH1 0xFF AND PUSH2 0x46B3 SWAP2 SWAP1 PUSH2 0x5061 JUMP JUMPDEST DUP2 MLOAD DUP2 LT PUSH2 0x46C3 JUMPI PUSH2 0x46C3 PUSH2 0x4FD8 JUMP JUMPDEST PUSH1 0x20 MUL PUSH1 0x20 ADD ADD MLOAD PUSH1 0x16 DUP3 DUP2 SLOAD DUP2 LT PUSH2 0x46DE JUMPI PUSH2 0x46DE PUSH2 0x4FD8 JUMP JUMPDEST SWAP1 PUSH0 MSTORE PUSH1 0x20 PUSH0 KECCAK256 SWAP1 PUSH1 0x20 SWAP2 DUP3 DUP3 DIV ADD SWAP2 SWAP1 MOD PUSH2 0x100 EXP DUP2 SLOAD DUP2 PUSH1 0xFF MUL NOT AND SWAP1 DUP4 PUSH1 0xFF AND MUL OR SWAP1 SSTORE POP DUP1 DUP1 PUSH1 0x1 ADD SWAP2 POP POP PUSH2 0x4680 JUMP JUMPDEST POP POP POP POP POP JUMP JUMPDEST PUSH0 DUP2 PUSH1 0xFF AND DUP4 PUSH1 0xFF AND LT PUSH2 0x472E JUMPI DUP2 PUSH2 0x33EB JUMP JUMPDEST POP SWAP1 SWAP2 SWAP1 POP JUMP JUMPDEST PUSH1 0x60 PUSH32 0x92FD13387C7FE7BEFBC38D303D6468778FB9731BC4583F17D92989C6FCFDEAAA DUP3 PUSH1 0x40 MLOAD PUSH1 0x24 ADD PUSH2 0x476E SWAP2 MLOAD ISZERO ISZERO DUP2 MSTORE PUSH1 0x20 ADD SWAP1 JUMP JUMPDEST PUSH1 0x40 DUP1 MLOAD PUSH1 0x1F NOT DUP2 DUP5 SUB ADD DUP2 MSTORE SWAP2 SWAP1 MSTORE PUSH1 0x20 DUP2 ADD DUP1 MLOAD PUSH1 0x1 PUSH1 0x1 PUSH1 0xE0 SHL SUB AND PUSH1 0x1 PUSH1 0x1 PUSH1 0xE0 SHL SUB NOT SWAP1 SWAP4 AND SWAP3 SWAP1 SWAP3 OR SWAP1 SWAP2 MSTORE SWAP3 SWAP2 POP POP JUMP JUMPDEST PUSH1 0x40 MLOAD DUP1 PUSH1 0x40 ADD PUSH1 0x40 MSTORE DUP1 PUSH1 0x2 SWAP1 PUSH1 0x20 DUP3 MUL DUP1 CALLDATASIZE DUP4 CALLDATACOPY POP SWAP2 SWAP3 SWAP2 POP POP JUMP JUMPDEST DUP3 PUSH1 0x2 DUP2 ADD SWAP3 DUP3 ISZERO PUSH2 0x480C JUMPI SWAP2 PUSH1 0x20 MUL DUP3 ADD JUMPDEST DUP3 DUP2 GT ISZERO PUSH2 0x480C JUMPI DUP3 MLOAD DUP3 SLOAD PUSH1 0x1 PUSH1 0x1 PUSH1 0xA0 SHL SUB NOT AND PUSH1 0x1 PUSH1 0x1 PUSH1 0xA0 SHL SUB SWAP1 SWAP2 AND OR DUP3 SSTORE PUSH1 0x20 SWAP1 SWAP3 ADD SWAP2 PUSH1 0x1 SWAP1 SWAP2 ADD SWAP1 PUSH2 0x47D7 JUMP JUMPDEST POP PUSH2 0x4818 SWAP3 SWAP2 POP PUSH2 0x48D6 JUMP JUMPDEST POP SWAP1 JUMP JUMPDEST POP DUP1 SLOAD PUSH0 DUP3 SSTORE PUSH1 0x1F ADD PUSH1 0x20 SWAP1 DIV SWAP1 PUSH0 MSTORE PUSH1 0x20 PUSH0 KECCAK256 SWAP1 DUP2 ADD SWAP1 PUSH2 0xFB7 SWAP2 SWAP1 PUSH2 0x48D6 JUMP JUMPDEST DUP3 DUP1 SLOAD DUP3 DUP3 SSTORE SWAP1 PUSH0 MSTORE PUSH1 0x20 PUSH0 KECCAK256 SWAP1 PUSH1 0x1F ADD PUSH1 0x20 SWAP1 DIV DUP2 ADD SWAP3 DUP3 ISZERO PUSH2 0x480C JUMPI SWAP2 PUSH1 0x20 MUL DUP3 ADD PUSH0 JUMPDEST DUP4 DUP3 GT ISZERO PUSH2 0x48A1 JUMPI DUP4 MLOAD DUP4 DUP3 PUSH2 0x100 EXP DUP2 SLOAD DUP2 PUSH1 0xFF MUL NOT AND SWAP1 DUP4 PUSH1 0xFF AND MUL OR SWAP1 SSTORE POP SWAP3 PUSH1 0x20 ADD SWAP3 PUSH1 0x1 ADD PUSH1 0x20 DUP2 PUSH0 ADD DIV SWAP3 DUP4 ADD SWAP3 PUSH1 0x1 SUB MUL PUSH2 0x4864 JUMP JUMPDEST DUP1 ISZERO PUSH2 0x48CD JUMPI DUP3 DUP2 PUSH2 0x100 EXP DUP2 SLOAD SWAP1 PUSH1 0xFF MUL NOT AND SWAP1 SSTORE PUSH1 0x1 ADD PUSH1 0x20 DUP2 PUSH0 ADD DIV SWAP3 DUP4 ADD SWAP3 PUSH1 0x1 SUB MUL PUSH2 0x48A1 JUMP JUMPDEST POP POP PUSH2 0x4818 SWAP3 SWAP2 POP JUMPDEST JUMPDEST DUP1 DUP3 GT ISZERO PUSH2 0x4818 JUMPI PUSH0 DUP2 SSTORE PUSH1 0x1 ADD PUSH2 0x48D7 JUMP JUMPDEST PUSH0 PUSH1 0x20 DUP3 DUP5 SUB SLT ISZERO PUSH2 0x48FA JUMPI PUSH0 DUP1 REVERT JUMPDEST POP CALLDATALOAD SWAP2 SWAP1 POP JUMP JUMPDEST PUSH0 DUP1 DUP4 PUSH1 0x1F DUP5 ADD SLT PUSH2 0x4911 JUMPI PUSH0 DUP1 REVERT JUMPDEST POP DUP2 CALLDATALOAD PUSH1 0x1 PUSH1 0x1 PUSH1 0x40 SHL SUB DUP2 GT ISZERO PUSH2 0x4927 JUMPI PUSH0 DUP1 REVERT JUMPDEST PUSH1 0x20 DUP4 ADD SWAP2 POP DUP4 PUSH1 0x20 DUP3 PUSH1 0x5 SHL DUP6 ADD ADD GT ISZERO PUSH2 0x1968 JUMPI PUSH0 DUP1 REVERT JUMPDEST PUSH0 DUP1 PUSH0 PUSH1 0x40 DUP5 DUP7 SUB SLT ISZERO PUSH2 0x4953 JUMPI PUSH0 DUP1 REVERT JUMPDEST DUP4 CALLDATALOAD SWAP3 POP PUSH1 0x20 DUP5 ADD CALLDATALOAD PUSH1 0x1 PUSH1 0x1 PUSH1 0x40 SHL SUB DUP2 GT ISZERO PUSH2 0x496F JUMPI PUSH0 DUP1 REVERT JUMPDEST PUSH2 0x497B DUP7 DUP3 DUP8 ADD PUSH2 0x4901 JUMP JUMPDEST SWAP5 SWAP8 SWAP1 SWAP7 POP SWAP4 SWAP5 POP POP POP POP JUMP JUMPDEST DUP1 CALLDATALOAD DUP1 ISZERO ISZERO DUP2 EQ PUSH2 0x4997 JUMPI PUSH0 DUP1 REVERT JUMPDEST SWAP2 SWAP1 POP JUMP JUMPDEST PUSH0 DUP1 PUSH1 0x40 DUP4 DUP6 SUB SLT ISZERO PUSH2 0x49AD JUMPI PUSH0 DUP1 REVERT JUMPDEST DUP3 CALLDATALOAD PUSH1 0x4 DUP2 LT PUSH2 0x49BB JUMPI PUSH0 DUP1 REVERT JUMPDEST SWAP2 POP PUSH2 0x49C9 PUSH1 0x20 DUP5 ADD PUSH2 0x4988 JUMP JUMPDEST SWAP1 POP SWAP3 POP SWAP3 SWAP1 POP JUMP JUMPDEST PUSH0 DUP1 PUSH1 0x20 DUP4 DUP6 SUB SLT ISZERO PUSH2 0x49E3 JUMPI PUSH0 DUP1 REVERT JUMPDEST DUP3 CALLDATALOAD PUSH1 0x1 PUSH1 0x1 PUSH1 0x40 SHL SUB DUP2 GT ISZERO PUSH2 0x49F8 JUMPI PUSH0 DUP1 REVERT JUMPDEST DUP4 ADD PUSH1 0x1F DUP2 ADD DUP6 SGT PUSH2 0x4A08 JUMPI PUSH0 DUP1 REVERT JUMPDEST DUP1 CALLDATALOAD PUSH1 0x1 PUSH1 0x1 PUSH1 0x40 SHL SUB DUP2 GT ISZERO PUSH2 0x4A1D JUMPI PUSH0 DUP1 REVERT JUMPDEST DUP6 PUSH1 0x20 DUP3 DUP5 ADD ADD GT ISZERO PUSH2 0x4A2E JUMPI PUSH0 DUP1 REVERT JUMPDEST PUSH1 0x20 SWAP2 SWAP1 SWAP2 ADD SWAP6 SWAP1 SWAP5 POP SWAP3 POP POP POP JUMP JUMPDEST PUSH0 DUP1 PUSH1 0x20 DUP4 DUP6 SUB SLT ISZERO PUSH2 0x4A4F JUMPI PUSH0 DUP1 REVERT JUMPDEST DUP3 CALLDATALOAD PUSH1 0x1 PUSH1 0x1 PUSH1 0x40 SHL SUB DUP2 GT ISZERO PUSH2 0x4A64 JUMPI PUSH0 DUP1 REVERT JUMPDEST PUSH2 0x4A70 DUP6 DUP3 DUP7 ADD PUSH2 0x4901 JUMP JUMPDEST SWAP1 SWAP7 SWAP1 SWAP6 POP SWAP4 POP POP POP POP JUMP JUMPDEST PUSH0 DUP1 PUSH1 0x40 DUP4 DUP6 SUB SLT ISZERO PUSH2 0x4A8D JUMPI PUSH0 DUP1 REVERT JUMPDEST DUP3 CALLDATALOAD SWAP2 POP PUSH2 0x49C9 PUSH1 0x20 DUP5 ADD PUSH2 0x4988 JUMP JUMPDEST PUSH0 DUP2 MLOAD DUP1 DUP5 MSTORE DUP1 PUSH1 0x20 DUP5 ADD PUSH1 0x20 DUP7 ADD MCOPY PUSH0 PUSH1 0x20 DUP3 DUP7 ADD ADD MSTORE PUSH1 0x20 PUSH1 0x1F NOT PUSH1 0x1F DUP4 ADD AND DUP6 ADD ADD SWAP2 POP POP SWAP3 SWAP2 POP POP JUMP JUMPDEST DUP3 ISZERO ISZERO DUP2 MSTORE PUSH1 0x40 PUSH1 0x20 DUP3 ADD MSTORE PUSH0 PUSH2 0x4AE5 PUSH1 0x40 DUP4 ADD DUP5 PUSH2 0x4A9D JUMP JUMPDEST SWAP5 SWAP4 POP POP POP POP JUMP JUMPDEST DUP1 CALLDATALOAD PUSH1 0xFF DUP2 AND DUP2 EQ PUSH2 0x4997 JUMPI PUSH0 DUP1 REVERT JUMPDEST PUSH0 DUP1 PUSH0 DUP1 PUSH0 PUSH1 0xA0 DUP7 DUP9 SUB SLT ISZERO PUSH2 0x4B11 JUMPI PUSH0 DUP1 REVERT JUMPDEST DUP6 CALLDATALOAD SWAP5 POP PUSH1 0x20 DUP7 ADD CALLDATALOAD SWAP4 POP PUSH1 0x40 DUP7 ADD CALLDATALOAD SWAP3 POP PUSH2 0x4B2F PUSH1 0x60 DUP8 ADD PUSH2 0x4AED JUMP JUMPDEST SWAP2 POP PUSH2 0x4B3D PUSH1 0x80 DUP8 ADD PUSH2 0x4AED JUMP JUMPDEST SWAP1 POP SWAP3 SWAP6 POP SWAP3 SWAP6 SWAP1 SWAP4 POP JUMP JUMPDEST DUP1 CALLDATALOAD PUSH1 0x1 PUSH1 0x1 PUSH1 0xA0 SHL SUB DUP2 AND DUP2 EQ PUSH2 0x4997 JUMPI PUSH0 DUP1 REVERT JUMPDEST PUSH0 PUSH1 0x20 DUP3 DUP5 SUB SLT ISZERO PUSH2 0x4B6F JUMPI PUSH0 DUP1 REVERT JUMPDEST PUSH2 0x33EB DUP3 PUSH2 0x4B49 JUMP JUMPDEST PUSH0 DUP1 PUSH1 0x40 DUP4 DUP6 SUB SLT ISZERO PUSH2 0x4B89 JUMPI PUSH0 DUP1 REVERT JUMPDEST POP POP DUP1 CALLDATALOAD SWAP3 PUSH1 0x20 SWAP1 SWAP2 ADD CALLDATALOAD SWAP2 POP JUMP JUMPDEST DUP1 PUSH0 JUMPDEST PUSH1 0x2 DUP2 LT ISZERO PUSH2 0x1207 JUMPI DUP2 MLOAD PUSH1 0x1 PUSH1 0x1 PUSH1 0xA0 SHL SUB AND DUP5 MSTORE PUSH1 0x20 SWAP4 DUP5 ADD SWAP4 SWAP1 SWAP2 ADD SWAP1 PUSH1 0x1 ADD PUSH2 0x4B9B JUMP JUMPDEST DUP9 DUP2 MSTORE PUSH1 0x20 DUP2 ADD DUP9 SWAP1 MSTORE PUSH1 0x40 DUP2 ADD DUP8 SWAP1 MSTORE PUSH1 0xFF DUP7 AND PUSH1 0x60 DUP3 ADD MSTORE PUSH1 0x1 PUSH1 0x1 PUSH1 0xA0 SHL SUB DUP6 AND PUSH1 0x80 DUP3 ADD MSTORE PUSH2 0x120 DUP2 ADD PUSH2 0x4BFE PUSH1 0xA0 DUP4 ADD DUP7 PUSH2 0x4B98 JUMP JUMPDEST SWAP3 ISZERO ISZERO PUSH1 0xE0 DUP3 ADD MSTORE SWAP1 ISZERO ISZERO PUSH2 0x100 SWAP1 SWAP2 ADD MSTORE SWAP7 SWAP6 POP POP POP POP POP POP JUMP JUMPDEST PUSH0 PUSH1 0x20 DUP3 DUP5 SUB SLT ISZERO PUSH2 0x4C2A JUMPI PUSH0 DUP1 REVERT JUMPDEST PUSH2 0x33EB DUP3 PUSH2 0x4988 JUMP JUMPDEST PUSH0 DUP1 PUSH1 0x40 DUP4 DUP6 SUB SLT ISZERO PUSH2 0x4C44 JUMPI PUSH0 DUP1 REVERT JUMPDEST DUP3 CALLDATALOAD SWAP2 POP PUSH2 0x49C9 PUSH1 0x20 DUP5 ADD PUSH2 0x4AED JUMP JUMPDEST PUSH0 DUP1 PUSH1 0x40 DUP4 DUP6 SUB SLT ISZERO PUSH2 0x4C65 JUMPI PUSH0 DUP1 REVERT JUMPDEST PUSH2 0x4C6E DUP4 PUSH2 0x4B49 JUMP JUMPDEST SWAP5 PUSH1 0x20 SWAP4 SWAP1 SWAP4 ADD CALLDATALOAD SWAP4 POP POP POP JUMP JUMPDEST PUSH0 DUP2 MLOAD DUP1 DUP5 MSTORE PUSH1 0x20 DUP5 ADD SWAP4 POP PUSH1 0x20 DUP4 ADD PUSH0 JUMPDEST DUP3 DUP2 LT ISZERO PUSH2 0x4CAF JUMPI DUP2 MLOAD PUSH1 0xFF AND DUP7 MSTORE PUSH1 0x20 SWAP6 DUP7 ADD SWAP6 SWAP1 SWAP2 ADD SWAP1 PUSH1 0x1 ADD PUSH2 0x4C8E JUMP JUMPDEST POP SWAP4 SWAP5 SWAP4 POP POP POP POP JUMP JUMPDEST PUSH1 0x60 DUP2 MSTORE PUSH0 PUSH2 0x4CCB PUSH1 0x60 DUP4 ADD DUP7 PUSH2 0x4C7C JUMP JUMPDEST PUSH1 0x20 DUP4 ADD SWAP5 SWAP1 SWAP5 MSTORE POP SWAP1 ISZERO ISZERO PUSH1 0x40 SWAP1 SWAP2 ADD MSTORE SWAP2 SWAP1 POP JUMP JUMPDEST PUSH0 DUP1 PUSH1 0x40 DUP4 DUP6 SUB SLT ISZERO PUSH2 0x4CF3 JUMPI PUSH0 DUP1 REVERT JUMPDEST DUP3 CALLDATALOAD SWAP2 POP PUSH2 0x49C9 PUSH1 0x20 DUP5 ADD PUSH2 0x4B49 JUMP JUMPDEST PUSH4 0x4E487B71 PUSH1 0xE0 SHL PUSH0 MSTORE PUSH1 0x21 PUSH1 0x4 MSTORE PUSH1 0x24 PUSH0 REVERT JUMPDEST PUSH1 0x4 DUP2 LT PUSH2 0x4D33 JUMPI PUSH4 0x4E487B71 PUSH1 0xE0 SHL PUSH0 MSTORE PUSH1 0x21 PUSH1 0x4 MSTORE PUSH1 0x24 PUSH0 REVERT JUMPDEST SWAP1 MSTORE JUMP JUMPDEST DUP5 DUP2 MSTORE PUSH1 0x20 DUP2 ADD DUP5 SWAP1 MSTORE PUSH1 0x40 DUP2 ADD DUP4 SWAP1 MSTORE PUSH1 0x80 DUP2 ADD PUSH2 0x4D59 PUSH1 0x60 DUP4 ADD DUP5 PUSH2 0x4D17 JUMP JUMPDEST SWAP6 SWAP5 POP POP POP POP POP JUMP JUMPDEST PUSH1 0x20 DUP2 MSTORE PUSH0 PUSH2 0x33EB PUSH1 0x20 DUP4 ADD DUP5 PUSH2 0x4C7C JUMP JUMPDEST PUSH1 0x20 DUP2 ADD PUSH2 0x33EE DUP3 DUP5 PUSH2 0x4D17 JUMP JUMPDEST PUSH0 DUP1 PUSH0 PUSH1 0x60 DUP5 DUP7 SUB SLT ISZERO PUSH2 0x4D94 JUMPI PUSH0 DUP1 REVERT JUMPDEST PUSH2 0x4D9D DUP5 PUSH2 0x4B49 JUMP JUMPDEST SWAP6 PUSH1 0x20 DUP6 ADD CALLDATALOAD SWAP6 POP PUSH1 0x40 SWAP1 SWAP5 ADD CALLDATALOAD SWAP4 SWAP3 POP POP POP JUMP JUMPDEST PUSH0 DUP2 MLOAD DUP1 DUP5 MSTORE PUSH1 0x20 DUP5 ADD SWAP4 POP PUSH1 0x20 DUP4 ADD PUSH0 JUMPDEST DUP3 DUP2 LT ISZERO PUSH2 0x4CAF JUMPI DUP2 MLOAD DUP7 MSTORE PUSH1 0x20 SWAP6 DUP7 ADD SWAP6 SWAP1 SWAP2 ADD SWAP1 PUSH1 0x1 ADD PUSH2 0x4DC4 JUMP JUMPDEST PUSH1 0x60 DUP2 MSTORE PUSH0 PUSH2 0x4DF4 PUSH1 0x60 DUP4 ADD DUP7 PUSH2 0x4DB2 JUMP JUMPDEST DUP3 DUP2 SUB PUSH1 0x20 DUP5 ADD MSTORE DUP1 DUP6 MLOAD DUP1 DUP4 MSTORE PUSH1 0x20 DUP4 ADD SWAP2 POP PUSH1 0x20 DUP2 PUSH1 0x5 SHL DUP5 ADD ADD PUSH1 0x20 DUP9 ADD PUSH0 JUMPDEST DUP4 DUP2 LT ISZERO PUSH2 0x4E49 JUMPI PUSH1 0x1F NOT DUP7 DUP5 SUB ADD DUP6 MSTORE PUSH2 0x4E33 DUP4 DUP4 MLOAD PUSH2 0x4C7C JUMP JUMPDEST PUSH1 0x20 SWAP6 DUP7 ADD SWAP6 SWAP1 SWAP4 POP SWAP2 SWAP1 SWAP2 ADD SWAP1 PUSH1 0x1 ADD PUSH2 0x4E17 JUMP JUMPDEST POP POP DUP6 DUP2 SUB PUSH1 0x40 DUP8 ADD MSTORE PUSH2 0x4E5D DUP2 DUP9 PUSH2 0x4DB2 JUMP JUMPDEST SWAP10 SWAP9 POP POP POP POP POP POP POP POP POP JUMP JUMPDEST DUP1 CALLDATALOAD PUSH2 0xFFFF DUP2 AND DUP2 EQ PUSH2 0x4997 JUMPI PUSH0 DUP1 REVERT JUMPDEST PUSH0 DUP1 PUSH0 DUP1 PUSH0 DUP1 PUSH1 0xC0 DUP8 DUP10 SUB SLT ISZERO PUSH2 0x4E90 JUMPI PUSH0 DUP1 REVERT JUMPDEST PUSH2 0x4E99 DUP8 PUSH2 0x4E6A JUMP JUMPDEST SWAP6 POP PUSH2 0x4EA7 PUSH1 0x20 DUP9 ADD PUSH2 0x4E6A JUMP JUMPDEST SWAP5 POP PUSH2 0x4EB5 PUSH1 0x40 DUP9 ADD PUSH2 0x4E6A JUMP JUMPDEST SWAP4 POP PUSH2 0x4EC3 PUSH1 0x60 DUP9 ADD PUSH2 0x4E6A JUMP JUMPDEST SWAP3 POP PUSH2 0x4ED1 PUSH1 0x80 DUP9 ADD PUSH2 0x4E6A JUMP JUMPDEST SWAP2 POP PUSH2 0x4EDF PUSH1 0xA0 DUP9 ADD PUSH2 0x4E6A JUMP JUMPDEST SWAP1 POP SWAP3 SWAP6 POP SWAP3 SWAP6 POP SWAP3 SWAP6 JUMP JUMPDEST PUSH0 PUSH1 0x20 DUP3 DUP5 SUB SLT ISZERO PUSH2 0x4EFB JUMPI PUSH0 DUP1 REVERT JUMPDEST PUSH2 0x33EB DUP3 PUSH2 0x4AED JUMP JUMPDEST PUSH1 0x80 DUP2 MSTORE PUSH0 PUSH2 0x4F16 PUSH1 0x80 DUP4 ADD DUP8 PUSH2 0x4DB2 JUMP JUMPDEST DUP3 DUP2 SUB PUSH1 0x20 DUP5 ADD MSTORE PUSH2 0x4F28 DUP2 DUP8 PUSH2 0x4C7C JUMP JUMPDEST SWAP1 POP DUP3 DUP2 SUB PUSH1 0x40 DUP5 ADD MSTORE PUSH2 0x4F3C DUP2 DUP7 PUSH2 0x4DB2 JUMP JUMPDEST DUP4 DUP2 SUB PUSH1 0x60 DUP6 ADD MSTORE DUP5 MLOAD DUP1 DUP3 MSTORE PUSH1 0x20 DUP1 DUP8 ADD SWAP4 POP SWAP1 SWAP2 ADD SWAP1 PUSH0 JUMPDEST DUP2 DUP2 LT ISZERO PUSH2 0x4F7D JUMPI DUP4 MLOAD PUSH1 0x1 PUSH1 0x1 PUSH1 0xA0 SHL SUB AND DUP4 MSTORE PUSH1 0x20 SWAP4 DUP5 ADD SWAP4 SWAP1 SWAP3 ADD SWAP2 PUSH1 0x1 ADD PUSH2 0x4F56 JUMP JUMPDEST POP SWAP1 SWAP9 SWAP8 POP POP POP POP POP POP POP POP JUMP JUMPDEST PUSH1 0x40 DUP2 MSTORE PUSH0 PUSH2 0x4F9D PUSH1 0x40 DUP4 ADD DUP6 PUSH2 0x4C7C JUMP JUMPDEST DUP3 DUP2 SUB PUSH1 0x20 DUP5 ADD MSTORE PUSH2 0x4D59 DUP2 DUP6 PUSH2 0x4C7C JUMP JUMPDEST PUSH1 0x60 DUP2 ADD PUSH2 0x4FBD DUP3 DUP7 PUSH2 0x4D17 JUMP JUMPDEST PUSH2 0x4FCA PUSH1 0x20 DUP4 ADD DUP6 PUSH2 0x4D17 JUMP JUMPDEST DUP3 PUSH1 0x40 DUP4 ADD MSTORE SWAP5 SWAP4 POP POP POP POP JUMP JUMPDEST PUSH4 0x4E487B71 PUSH1 0xE0 SHL PUSH0 MSTORE PUSH1 0x32 PUSH1 0x4 MSTORE PUSH1 0x24 PUSH0 REVERT JUMPDEST PUSH1 0x40 DUP1 DUP3 MSTORE DUP2 ADD DUP4 SWAP1 MSTORE PUSH0 DUP5 PUSH1 0x60 DUP4 ADD DUP3 JUMPDEST DUP7 DUP2 LT ISZERO PUSH2 0x5026 JUMPI PUSH1 0xFF PUSH2 0x5011 DUP5 PUSH2 0x4AED JUMP JUMPDEST AND DUP3 MSTORE PUSH1 0x20 SWAP3 DUP4 ADD SWAP3 SWAP1 SWAP2 ADD SWAP1 PUSH1 0x1 ADD PUSH2 0x4FFE JUMP JUMPDEST POP PUSH1 0x20 SWAP4 SWAP1 SWAP4 ADD SWAP4 SWAP1 SWAP4 MSTORE POP SWAP4 SWAP3 POP POP POP JUMP JUMPDEST PUSH4 0x4E487B71 PUSH1 0xE0 SHL PUSH0 MSTORE PUSH1 0x41 PUSH1 0x4 MSTORE PUSH1 0x24 PUSH0 REVERT JUMPDEST PUSH4 0x4E487B71 PUSH1 0xE0 SHL PUSH0 MSTORE PUSH1 0x11 PUSH1 0x4 MSTORE PUSH1 0x24 PUSH0 REVERT JUMPDEST DUP2 DUP2 SUB DUP2 DUP2 GT ISZERO PUSH2 0x33EE JUMPI PUSH2 0x33EE PUSH2 0x504D JUMP JUMPDEST PUSH0 PUSH1 0x1 DUP3 ADD PUSH2 0x5085 JUMPI PUSH2 0x5085 PUSH2 0x504D JUMP JUMPDEST POP PUSH1 0x1 ADD SWAP1 JUMP JUMPDEST PUSH0 PUSH1 0xFF DUP3 AND PUSH1 0xFF DUP2 SUB PUSH2 0x50A1 JUMPI PUSH2 0x50A1 PUSH2 0x504D JUMP JUMPDEST PUSH1 0x1 ADD SWAP3 SWAP2 POP POP JUMP JUMPDEST DUP1 DUP3 ADD DUP1 DUP3 GT ISZERO PUSH2 0x33EE JUMPI PUSH2 0x33EE PUSH2 0x504D JUMP JUMPDEST PUSH2 0xFFFF DUP2 DUP2 AND DUP4 DUP3 AND MUL SWAP1 DUP2 AND SWAP1 DUP2 DUP2 EQ PUSH2 0x50DA JUMPI PUSH2 0x50DA PUSH2 0x504D JUMP JUMPDEST POP SWAP3 SWAP2 POP POP JUMP JUMPDEST PUSH2 0xFFFF DUP2 DUP2 AND DUP4 DUP3 AND ADD SWAP1 DUP2 GT ISZERO PUSH2 0x33EE JUMPI PUSH2 0x33EE PUSH2 0x504D JUMP JUMPDEST DUP1 DUP3 MUL DUP2 ISZERO DUP3 DUP3 DIV DUP5 EQ OR PUSH2 0x33EE JUMPI PUSH2 0x33EE PUSH2 0x504D JUMP JUMPDEST PUSH4 0x4E487B71 PUSH1 0xE0 SHL PUSH0 MSTORE PUSH1 0x12 PUSH1 0x4 MSTORE PUSH1 0x24 PUSH0 REVERT JUMPDEST PUSH0 DUP3 PUSH2 0x5134 JUMPI PUSH2 0x5134 PUSH2 0x5112 JUMP JUMPDEST POP DIV SWAP1 JUMP JUMPDEST PUSH0 DUP3 PUSH2 0x5147 JUMPI PUSH2 0x5147 PUSH2 0x5112 JUMP JUMPDEST POP MOD SWAP1 JUMP JUMPDEST PUSH1 0xFF DUP3 DUP2 AND DUP3 DUP3 AND SUB SWAP1 DUP2 GT ISZERO PUSH2 0x33EE JUMPI PUSH2 0x33EE PUSH2 0x504D JUMP JUMPDEST PUSH1 0xFF DUP2 DUP2 AND DUP4 DUP3 AND ADD SWAP1 DUP2 GT ISZERO PUSH2 0x33EE JUMPI PUSH2 0x33EE PUSH2 0x504D JUMP JUMPDEST PUSH1 0x1 PUSH1 0x1 PUSH1 0xA0 SHL SUB DUP7 AND DUP2 MSTORE PUSH1 0xC0 DUP2 ADD PUSH2 0x519B PUSH1 0x20 DUP4 ADD DUP8 PUSH2 0x4B98 JUMP JUMPDEST DUP5 PUSH1 0x60 DUP4 ADD MSTORE DUP4 PUSH1 0x80 DUP4 ADD MSTORE DUP3 ISZERO ISZERO PUSH1 0xA0 DUP4 ADD MSTORE SWAP7 SWAP6 POP POP POP POP POP POP JUMP JUMPDEST PUSH1 0x20 DUP2 MSTORE DUP2 MLOAD PUSH1 0x20 DUP3 ADD MSTORE PUSH1 0x20 DUP3 ADD MLOAD PUSH1 0x40 DUP3 ADD MSTORE PUSH2 0xFFFF PUSH1 0x40 DUP4 ADD MLOAD AND PUSH1 0x60 DUP3 ADD MSTORE PUSH4 0xFFFFFFFF PUSH1 0x60 DUP4 ADD MLOAD AND PUSH1 0x80 DUP3 ADD MSTORE PUSH4 0xFFFFFFFF PUSH1 0x80 DUP4 ADD MLOAD AND PUSH1 0xA0 DUP3 ADD MSTORE PUSH0 PUSH1 0xA0 DUP4 ADD MLOAD PUSH1 0xC0 DUP1 DUP5 ADD MSTORE PUSH2 0x4AE5 PUSH1 0xE0 DUP5 ADD DUP3 PUSH2 0x4A9D JUMP JUMPDEST PUSH0 PUSH1 0x20 DUP3 DUP5 SUB SLT ISZERO PUSH2 0x5225 JUMPI PUSH0 DUP1 REVERT JUMPDEST POP MLOAD SWAP2 SWAP1 POP JUMP INVALID PUSH16 0xBDE3892AF9AB6C926C43D926F872E5FF LOG0 SWAP16 MOD SELFDESTRUCT 0xB3 0xC9 POP 0xA7 0x2D PUSH17 0x5B1B70E36C85EEF197750993023482CB89 0xB0 SWAP11 ISZERO 0xE9 PUSH31 0x7B33CFEEBD3870AD19854A47B6759FCCC094E5197CB87B7CCE187295EDFE46 0x22 DUP9 DUP2 0xD ADD 0x2F 0xDC SELFBALANCE ADDMOD 0xCF PUSH10 0x82CD1607D5A39C7EB371 TSTORE PUSH5 0xE66FEA8BBD SHR MSTORE 0xCA 0xE8 0xEB SWAP2 ORIGIN MCOPY 0x4D 0xE7 0x4E SWAP15 SMOD 0xCB PUSH22 0x92FC25711EA26469706673582212202239EEAE08DB41 0x23 0xE 0xAB 0xE5 REVERT 0xDF 0x4C PUSH3 0x450DF5 0xD8 0x27 0xC1 0x2C 0xDF 0xED BYTE 0xE9 0xDF 0x2D LOG2 KECCAK256 0x27 0xB4 PUSH5 0x736F6C6343 STOP ADDMOD BYTE STOP CALLER "
		},
		"gasEstimates": {
			"creation": {
				"codeDepositCost": "4243600",
				"executionCost": "infinite",
				"totalCost": "infinite"
			},
			"external": {
				"": "1711",
				"acceptOwnership()": "52365",
				"adminControlsLocked()": "2410",
				"automationForwarder()": "2470",
				"checkUpkeep(bytes)": "infinite",
				"claimPayouts()": "infinite",
				"currentRoundNumber()": "2351",
				"emergencyCompleteRound(uint256,bool)": "infinite",
				"emergencyForceState(uint8,bool)": "infinite",
				"emergencyPerformUpkeep(uint256,bool)": "infinite",
				"emergencyResetGame(bool)": "infinite",
				"emergencySweepRoundFunds(uint256)": "infinite",
				"emergencyWithdraw()": "infinite",
				"emergencyWithdrawAll()": "infinite",
				"gameActive()": "2397",
				"gameConfig()": "8922",
				"gameState()": "2539",
				"getAvailableNumbers()": "infinite",
				"getContractBalance()": "294",
				"getGameState()": "infinite",
				"getHotColdNumbers(uint8)": "infinite",
				"getMinimumRequiredBalance()": "infinite",
				"getPlayerHistory(address,uint256,uint256)": "infinite",
				"getPlayerSelectionsForRound(address,uint256)": "infinite",
				"getRecentRounds(uint8)": "infinite",
				"getRoundInfo(uint256)": "infinite",
				"isNumberSelected(uint256,uint8)": "2704",
				"lockAdminControls()": "29114",
				"numberToPlayer(uint256,uint8)": "2707",
				"owner()": "2440",
				"ownerWithdraw(uint256)": "infinite",
				"pendingPayouts(address)": "2665",
				"performUpkeep(bytes)": "infinite",
				"playerSelectionsPerRound(uint256,address)": "4921",
				"prizeConfig()": "2631",
				"rawFulfillRandomWords(uint256,uint256[])": "infinite",
				"roundEndTime()": "2350",
				"roundStartTime()": "2416",
				"rounds(uint256)": "11172",
				"s_vrfCoordinator()": "2448",
				"safetyConfig()": "6720",
				"selectNumbers(uint8[])": "infinite",
				"setAutomationForwarder(address)": "infinite",
				"setCoordinator(address)": "30102",
				"setGameActive(bool)": "infinite",
				"setStatsVisibleToPlayers(bool)": "infinite",
				"transferOwnership(address)": "30546",
				"updateGameParameters(uint256,uint256,uint256,uint8,uint8)": "infinite",
				"updatePrizeParameters(uint16,uint16,uint16,uint16,uint16,uint16)": "infinite",
				"updateSafetyParameters(uint256,uint256)": "infinite",
				"updateVrfParameters(uint256,bytes32)": "infinite"
			},
			"internal": {
				"_determineWinnersAndDistributePrizes(uint256,uint8)": "infinite",
				"_emergencySweepFunds(uint256)": "infinite",
				"_endRound()": "infinite",
				"_generatePseudoRandomWinningNumber(uint256)": "infinite",
				"_isCompleted(struct OneHundred.Round storage pointer)": "infinite",
				"_isEntropyRequested(struct OneHundred.Round storage pointer)": "infinite",
				"_isNumberGenerated(struct OneHundred.Round storage pointer)": "infinite",
				"_isRoundEnded(struct OneHundred.Round storage pointer)": "infinite",
				"_requestRandomNumber()": "infinite",
				"_setCompleted(struct OneHundred.Round storage pointer)": "24254",
				"_setEntropyRequested(struct OneHundred.Round storage pointer)": "infinite",
				"_setNumberGenerated(struct OneHundred.Round storage pointer)": "infinite",
				"_setRoundEnded(struct OneHundred.Round storage pointer)": "infinite",
				"_startNewRound(address)": "infinite",
				"_updateHotColdNumbers(uint8)": "infinite",
				"fulfillRandomWords(uint256,uint256[] calldata)": "infinite",
				"fulfillRandomWordsV2Plus(uint256,uint256[] memory,bytes memory)": "infinite",
				"min(uint8,uint8)": "76"
			}
		},
		"methodIdentifiers": {
			"acceptOwnership()": "79ba5097",
			"adminControlsLocked()": "311e5492",
			"automationForwarder()": "3b2786cb",
			"checkUpkeep(bytes)": "6e04ff0d",
			"claimPayouts()": "10ce1c5a",
			"currentRoundNumber()": "9c4780d8",
			"emergencyCompleteRound(uint256,bool)": "4e789a8b",
			"emergencyForceState(uint8,bool)": "2daff459",
			"emergencyPerformUpkeep(uint256,bool)": "fed7467b",
			"emergencyResetGame(bool)": "b8578e44",
			"emergencySweepRoundFunds(uint256)": "0d578d18",
			"emergencyWithdraw()": "db2e21bc",
			"emergencyWithdrawAll()": "dd191719",
			"gameActive()": "f020044f",
			"gameConfig()": "1176829d",
			"gameState()": "d1f9c24d",
			"getAvailableNumbers()": "bb486d75",
			"getContractBalance()": "6f9fb98a",
			"getGameState()": "b7d0628b",
			"getHotColdNumbers(uint8)": "e8a38986",
			"getMinimumRequiredBalance()": "0462d291",
			"getPlayerHistory(address,uint256,uint256)": "d46588bf",
			"getPlayerSelectionsForRound(address,uint256)": "a7c06732",
			"getRecentRounds(uint8)": "e72ec30b",
			"getRoundInfo(uint256)": "88c3ffb0",
			"isNumberSelected(uint256,uint8)": "9d5b1e72",
			"lockAdminControls()": "874369cf",
			"numberToPlayer(uint256,uint8)": "eb79f1ad",
			"owner()": "8da5cb5b",
			"ownerWithdraw(uint256)": "33f707d1",
			"pendingPayouts(address)": "784712f2",
			"performUpkeep(bytes)": "4585e33b",
			"playerSelectionsPerRound(uint256,address)": "b1bc1b57",
			"prizeConfig()": "0c8587e1",
			"rawFulfillRandomWords(uint256,uint256[])": "1fe543e3",
			"roundEndTime()": "e40205d6",
			"roundStartTime()": "dd4f8f74",
			"rounds(uint256)": "8c65c81f",
			"s_vrfCoordinator()": "9eccacf6",
			"safetyConfig()": "1eaed4ff",
			"selectNumbers(uint8[])": "4ad6562d",
			"setAutomationForwarder(address)": "d40d17bc",
			"setCoordinator(address)": "8ea98117",
			"setGameActive(bool)": "ccc08974",
			"setStatsVisibleToPlayers(bool)": "926eae5b",
			"transferOwnership(address)": "f2fde38b",
			"updateGameParameters(uint256,uint256,uint256,uint8,uint8)": "72bfbe86",
			"updatePrizeParameters(uint16,uint16,uint16,uint16,uint16,uint16)": "de8ebc57",
			"updateSafetyParameters(uint256,uint256)": "7b18de37",
			"updateVrfParameters(uint256,bytes32)": "c72187fd"
		}
	},
	"abi": [
		{
			"inputs": [
				{
					"internalType": "address",
					"name": "vrfCoordinator",
					"type": "address"
				},
				{
					"internalType": "uint256",
					"name": "subscriptionId",
					"type": "uint256"
				},
				{
					"internalType": "bytes32",
					"name": "keyHash",
					"type": "bytes32"
				}
			],
			"stateMutability": "nonpayable",
			"type": "constructor"
		},
		{
			"inputs": [],
			"name": "AdminControlsLocked",
			"type": "error"
		},
		{
			"inputs": [],
			"name": "ContractFeePercentageTooHigh",
			"type": "error"
		},
		{
			"inputs": [],
			"name": "EmergencyFundSweepFailed",
			"type": "error"
		},
		{
			"inputs": [],
			"name": "GamePaused",
			"type": "error"
		},
		{
			"inputs": [],
			"name": "InClosingWindow",
			"type": "error"
		},
		{
			"inputs": [],
			"name": "IncorrectPayment",
			"type": "error"
		},
		{
			"inputs": [],
			"name": "InsufficientWithdrawableBalance",
			"type": "error"
		},
		{
			"inputs": [],
			"name": "InvalidCount",
			"type": "error"
		},
		{
			"inputs": [],
			"name": "InvalidNumber",
			"type": "error"
		},
		{
			"inputs": [],
			"name": "InvalidRequestId",
			"type": "error"
		},
		{
			"inputs": [],
			"name": "InvalidRoundRange",
			"type": "error"
		},
		{
			"inputs": [],
			"name": "NoPayouts",
			"type": "error"
		},
		{
			"inputs": [],
			"name": "NoWinnerPercentagesMustSum",
			"type": "error"
		},
		{
			"inputs": [],
			"name": "NotReadyForNewRound",
			"type": "error"
		},
		{
			"inputs": [],
			"name": "NotReadyForRandomGeneration",
			"type": "error"
		},
		{
			"inputs": [],
			"name": "NumberAlreadyGenerated",
			"type": "error"
		},
		{
			"inputs": [],
			"name": "NumberAlreadySelected",
			"type": "error"
		},
		{
			"inputs": [],
			"name": "NumberGenerationFailed",
			"type": "error"
		},
		{
			"inputs": [
				{
					"internalType": "address",
					"name": "have",
					"type": "address"
				},
				{
					"internalType": "address",
					"name": "want",
					"type": "address"
				}
			],
			"name": "OnlyCoordinatorCanFulfill",
			"type": "error"
		},
		{
			"inputs": [
				{
					"internalType": "address",
					"name": "have",
					"type": "address"
				},
				{
					"internalType": "address",
					"name": "owner",
					"type": "address"
				},
				{
					"internalType": "address",
					"name": "coordinator",
					"type": "address"
				}
			],
			"name": "OnlyOwnerOrCoordinator",
			"type": "error"
		},
		{
			"inputs": [],
			"name": "OwnerTransferFailed",
			"type": "error"
		},
		{
			"inputs": [],
			"name": "RoundExceedsCurrentRound",
			"type": "error"
		},
		{
			"inputs": [],
			"name": "RoundNotActive",
			"type": "error"
		},
		{
			"inputs": [],
			"name": "RoundNotReadyToEnd",
			"type": "error"
		},
		{
			"inputs": [],
			"name": "StatisticsNotVisible",
			"type": "error"
		},
		{
			"inputs": [],
			"name": "TooManySelections",
			"type": "error"
		},
		{
			"inputs": [],
			"name": "TransferFailed",
			"type": "error"
		},
		{
			"inputs": [],
			"name": "UnauthorizedUpkeep",
			"type": "error"
		},
		{
			"inputs": [],
			"name": "WinnerPercentagesMustSum",
			"type": "error"
		},
		{
			"inputs": [],
			"name": "WouldExceedMaxSelections",
			"type": "error"
		},
		{
			"inputs": [],
			"name": "ZeroAddress",
			"type": "error"
		},
		{
			"inputs": [],
			"name": "ZeroNumbersSelected",
			"type": "error"
		},
		{
			"inputs": [],
			"name": "ZeroWithdrawalAmount",
			"type": "error"
		},
		{
			"anonymous": false,
			"inputs": [
				{
					"indexed": true,
					"internalType": "address",
					"name": "sender",
					"type": "address"
				},
				{
					"indexed": false,
					"internalType": "uint256",
					"name": "amount",
					"type": "uint256"
				}
			],
			"name": "ContractFunded",
			"type": "event"
		},
		{
			"anonymous": false,
			"inputs": [
				{
					"indexed": false,
					"internalType": "address",
					"name": "vrfCoordinator",
					"type": "address"
				}
			],
			"name": "CoordinatorSet",
			"type": "event"
		},
		{
			"anonymous": false,
			"inputs": [
				{
					"indexed": false,
					"internalType": "string",
					"name": "actionType",
					"type": "string"
				},
				{
					"indexed": false,
					"internalType": "uint256",
					"name": "timestamp",
					"type": "uint256"
				}
			],
			"name": "EmergencyActionExecuted",
			"type": "event"
		},
		{
			"anonymous": false,
			"inputs": [
				{
					"indexed": true,
					"internalType": "uint256",
					"name": "roundNumber",
					"type": "uint256"
				},
				{
					"indexed": false,
					"internalType": "uint256",
					"name": "amount",
					"type": "uint256"
				}
			],
			"name": "EmergencyFundSwept",
			"type": "event"
		},
		{
			"anonymous": false,
			"inputs": [
				{
					"indexed": false,
					"internalType": "enum OneHundred.GameState",
					"name": "previousState",
					"type": "uint8"
				},
				{
					"indexed": false,
					"internalType": "enum OneHundred.GameState",
					"name": "newState",
					"type": "uint8"
				},
				{
					"indexed": false,
					"internalType": "uint256",
					"name": "timestamp",
					"type": "uint256"
				}
			],
			"name": "GameStateChanged",
			"type": "event"
		},
		{
			"anonymous": false,
			"inputs": [
				{
					"indexed": true,
					"internalType": "address",
					"name": "player",
					"type": "address"
				},
				{
					"indexed": true,
					"internalType": "uint256",
					"name": "roundNumber",
					"type": "uint256"
				},
				{
					"indexed": false,
					"internalType": "uint8[]",
					"name": "numbers",
					"type": "uint8[]"
				},
				{
					"indexed": false,
					"internalType": "uint256",
					"name": "cost",
					"type": "uint256"
				}
			],
			"name": "NumberSelected",
			"type": "event"
		},
		{
			"anonymous": false,
			"inputs": [
				{
					"indexed": false,
					"internalType": "uint256",
					"name": "amount",
					"type": "uint256"
				}
			],
			"name": "OwnerWithdrawal",
			"type": "event"
		},
		{
			"anonymous": false,
			"inputs": [
				{
					"indexed": true,
					"internalType": "address",
					"name": "from",
					"type": "address"
				},
				{
					"indexed": true,
					"internalType": "address",
					"name": "to",
					"type": "address"
				}
			],
			"name": "OwnershipTransferRequested",
			"type": "event"
		},
		{
			"anonymous": false,
			"inputs": [
				{
					"indexed": true,
					"internalType": "address",
					"name": "from",
					"type": "address"
				},
				{
					"indexed": true,
					"internalType": "address",
					"name": "to",
					"type": "address"
				}
			],
			"name": "OwnershipTransferred",
			"type": "event"
		},
		{
			"anonymous": false,
			"inputs": [
				{
					"indexed": false,
					"internalType": "string",
					"name": "parameterName",
					"type": "string"
				},
				{
					"indexed": false,
					"internalType": "uint256",
					"name": "oldValue",
					"type": "uint256"
				},
				{
					"indexed": false,
					"internalType": "uint256",
					"name": "newValue",
					"type": "uint256"
				},
				{
					"indexed": false,
					"internalType": "address",
					"name": "updater",
					"type": "address"
				}
			],
			"name": "ParametersUpdated",
			"type": "event"
		},
		{
			"anonymous": false,
			"inputs": [
				{
					"indexed": true,
					"internalType": "uint256",
					"name": "roundNumber",
					"type": "uint256"
				},
				{
					"indexed": false,
					"internalType": "address",
					"name": "winner",
					"type": "address"
				},
				{
					"indexed": false,
					"internalType": "address[2]",
					"name": "runnerUps",
					"type": "address[2]"
				},
				{
					"indexed": false,
					"internalType": "uint256",
					"name": "winnerPrize",
					"type": "uint256"
				},
				{
					"indexed": false,
					"internalType": "uint256",
					"name": "runnerUpPrize",
					"type": "uint256"
				},
				{
					"indexed": false,
					"internalType": "bool",
					"name": "winningNumberSelected",
					"type": "bool"
				}
			],
			"name": "PrizesDistributed",
			"type": "event"
		},
		{
			"anonymous": false,
			"inputs": [
				{
					"indexed": true,
					"internalType": "uint256",
					"name": "roundNumber",
					"type": "uint256"
				},
				{
					"indexed": false,
					"internalType": "uint256",
					"name": "requestId",
					"type": "uint256"
				}
			],
			"name": "RandomNumberRequested",
			"type": "event"
		},
		{
			"anonymous": false,
			"inputs": [
				{
					"indexed": true,
					"internalType": "uint256",
					"name": "roundNumber",
					"type": "uint256"
				},
				{
					"indexed": false,
					"internalType": "uint8",
					"name": "winningNumber",
					"type": "uint8"
				},
				{
					"indexed": false,
					"internalType": "string",
					"name": "method",
					"type": "string"
				}
			],
			"name": "RandomWinnerGenerated",
			"type": "event"
		},
		{
			"anonymous": false,
			"inputs": [
				{
					"indexed": true,
					"internalType": "uint256",
					"name": "roundNumber",
					"type": "uint256"
				},
				{
					"indexed": false,
					"internalType": "uint256",
					"name": "endTime",
					"type": "uint256"
				},
				{
					"indexed": false,
					"internalType": "uint256",
					"name": "potSize",
					"type": "uint256"
				}
			],
			"name": "RoundEnded",
			"type": "event"
		},
		{
			"anonymous": false,
			"inputs": [
				{
					"indexed": true,
					"internalType": "uint256",
					"name": "roundNumber",
					"type": "uint256"
				},
				{
					"indexed": false,
					"internalType": "uint256",
					"name": "startTime",
					"type": "uint256"
				},
				{
					"indexed": false,
					"internalType": "uint256",
					"name": "endTime",
					"type": "uint256"
				},
				{
					"indexed": false,
					"internalType": "address",
					"name": "firstPlayer",
					"type": "address"
				}
			],
			"name": "RoundStarted",
			"type": "event"
		},
		{
			"anonymous": false,
			"inputs": [
				{
					"indexed": false,
					"internalType": "address",
					"name": "caller",
					"type": "address"
				},
				{
					"indexed": false,
					"internalType": "uint256",
					"name": "timestamp",
					"type": "uint256"
				},
				{
					"indexed": false,
					"internalType": "uint256",
					"name": "action",
					"type": "uint256"
				}
			],
			"name": "UpkeepAttempted",
			"type": "event"
		},
		{
			"anonymous": false,
			"inputs": [
				{
					"indexed": false,
					"internalType": "string",
					"name": "reason",
					"type": "string"
				}
			],
			"name": "UpkeepFailed",
			"type": "event"
		},
		{
			"anonymous": false,
			"inputs": [
				{
					"indexed": true,
					"internalType": "uint256",
					"name": "roundNumber",
					"type": "uint256"
				},
				{
					"indexed": false,
					"internalType": "uint8",
					"name": "winningNumber",
					"type": "uint8"
				}
			],
			"name": "WinningNumberGenerated",
			"type": "event"
		},
		{
			"anonymous": false,
			"inputs": [
				{
					"indexed": true,
					"internalType": "address",
					"name": "player",
					"type": "address"
				},
				{
					"indexed": false,
					"internalType": "uint256",
					"name": "amount",
					"type": "uint256"
				},
				{
					"indexed": false,
					"internalType": "uint256",
					"name": "roundNumber",
					"type": "uint256"
				}
			],
			"name": "WinningsClaimed",
			"type": "event"
		},
		{
			"stateMutability": "payable",
			"type": "fallback"
		},
		{
			"inputs": [],
			"name": "acceptOwnership",
			"outputs": [],
			"stateMutability": "nonpayable",
			"type": "function"
		},
		{
			"inputs": [],
			"name": "adminControlsLocked",
			"outputs": [
				{
					"internalType": "bool",
					"name": "",
					"type": "bool"
				}
			],
			"stateMutability": "view",
			"type": "function"
		},
		{
			"inputs": [],
			"name": "automationForwarder",
			"outputs": [
				{
					"internalType": "address",
					"name": "",
					"type": "address"
				}
			],
			"stateMutability": "view",
			"type": "function"
		},
		{
			"inputs": [
				{
					"internalType": "bytes",
					"name": "checkData",
					"type": "bytes"
				}
			],
			"name": "checkUpkeep",
			"outputs": [
				{
					"internalType": "bool",
					"name": "upkeepNeeded",
					"type": "bool"
				},
				{
					"internalType": "bytes",
					"name": "performData",
					"type": "bytes"
				}
			],
			"stateMutability": "view",
			"type": "function"
		},
		{
			"inputs": [],
			"name": "claimPayouts",
			"outputs": [],
			"stateMutability": "nonpayable",
			"type": "function"
		},
		{
			"inputs": [],
			"name": "currentRoundNumber",
			"outputs": [
				{
					"internalType": "uint256",
					"name": "",
					"type": "uint256"
				}
			],
			"stateMutability": "view",
			"type": "function"
		},
		{
			"inputs": [
				{
					"internalType": "uint256",
					"name": "roundNumber",
					"type": "uint256"
				},
				{
					"internalType": "bool",
					"name": "generateRandomWinner",
					"type": "bool"
				}
			],
			"name": "emergencyCompleteRound",
			"outputs": [],
			"stateMutability": "nonpayable",
			"type": "function"
		},
		{
			"inputs": [
				{
					"internalType": "enum OneHundred.GameState",
					"name": "newState",
					"type": "uint8"
				},
				{
					"internalType": "bool",
					"name": "generateRandomWinner",
					"type": "bool"
				}
			],
			"name": "emergencyForceState",
			"outputs": [],
			"stateMutability": "nonpayable",
			"type": "function"
		},
		{
			"inputs": [
				{
					"internalType": "uint256",
					"name": "action",
					"type": "uint256"
				},
				{
					"internalType": "bool",
					"name": "generateRandomWinner",
					"type": "bool"
				}
			],
			"name": "emergencyPerformUpkeep",
			"outputs": [],
			"stateMutability": "nonpayable",
			"type": "function"
		},
		{
			"inputs": [
				{
					"internalType": "bool",
					"name": "generateRandomWinner",
					"type": "bool"
				}
			],
			"name": "emergencyResetGame",
			"outputs": [],
			"stateMutability": "nonpayable",
			"type": "function"
		},
		{
			"inputs": [
				{
					"internalType": "uint256",
					"name": "roundNumber",
					"type": "uint256"
				}
			],
			"name": "emergencySweepRoundFunds",
			"outputs": [],
			"stateMutability": "nonpayable",
			"type": "function"
		},
		{
			"inputs": [],
			"name": "emergencyWithdraw",
			"outputs": [],
			"stateMutability": "nonpayable",
			"type": "function"
		},
		{
			"inputs": [],
			"name": "emergencyWithdrawAll",
			"outputs": [],
			"stateMutability": "nonpayable",
			"type": "function"
		},
		{
			"inputs": [],
			"name": "gameActive",
			"outputs": [
				{
					"internalType": "bool",
					"name": "",
					"type": "bool"
				}
			],
			"stateMutability": "view",
			"type": "function"
		},
		{
			"inputs": [],
			"name": "gameConfig",
			"outputs": [
				{
					"internalType": "uint256",
					"name": "roundDuration",
					"type": "uint256"
				},
				{
					"internalType": "uint256",
					"name": "restPeriod",
					"type": "uint256"
				},
				{
					"internalType": "uint256",
					"name": "selectionCost",
					"type": "uint256"
				},
				{
					"internalType": "uint8",
					"name": "maxSelectionsPerPlayer",
					"type": "uint8"
				},
				{
					"internalType": "uint8",
					"name": "totalNumbers",
					"type": "uint8"
				},
				{
					"internalType": "uint8",
					"name": "closingWindow",
					"type": "uint8"
				}
			],
			"stateMutability": "view",
			"type": "function"
		},
		{
			"inputs": [],
			"name": "gameState",
			"outputs": [
				{
					"internalType": "enum OneHundred.GameState",
					"name": "",
					"type": "uint8"
				}
			],
			"stateMutability": "view",
			"type": "function"
		},
		{
			"inputs": [],
			"name": "getAvailableNumbers",
			"outputs": [
				{
					"internalType": "uint8[]",
					"name": "",
					"type": "uint8[]"
				}
			],
			"stateMutability": "view",
			"type": "function"
		},
		{
			"inputs": [],
			"name": "getContractBalance",
			"outputs": [
				{
					"internalType": "uint256",
					"name": "",
					"type": "uint256"
				}
			],
			"stateMutability": "view",
			"type": "function"
		},
		{
			"inputs": [],
			"name": "getGameState",
			"outputs": [
				{
					"internalType": "uint256",
					"name": "roundNum",
					"type": "uint256"
				},
				{
					"internalType": "uint256",
					"name": "timeRemaining",
					"type": "uint256"
				},
				{
					"internalType": "uint256",
					"name": "currentPot",
					"type": "uint256"
				},
				{
					"internalType": "enum OneHundred.GameState",
					"name": "state",
					"type": "uint8"
				}
			],
			"stateMutability": "view",
			"type": "function"
		},
		{
			"inputs": [
				{
					"internalType": "uint8",
					"name": "count",
					"type": "uint8"
				}
			],
			"name": "getHotColdNumbers",
			"outputs": [
				{
					"internalType": "uint8[]",
					"name": "hot",
					"type": "uint8[]"
				},
				{
					"internalType": "uint8[]",
					"name": "cold",
					"type": "uint8[]"
				}
			],
			"stateMutability": "view",
			"type": "function"
		},
		{
			"inputs": [],
			"name": "getMinimumRequiredBalance",
			"outputs": [
				{
					"internalType": "uint256",
					"name": "",
					"type": "uint256"
				}
			],
			"stateMutability": "view",
			"type": "function"
		},
		{
			"inputs": [
				{
					"internalType": "address",
					"name": "player",
					"type": "address"
				},
				{
					"internalType": "uint256",
					"name": "startRound",
					"type": "uint256"
				},
				{
					"internalType": "uint256",
					"name": "endRound",
					"type": "uint256"
				}
			],
			"name": "getPlayerHistory",
			"outputs": [
				{
					"internalType": "uint256[]",
					"name": "roundNumbers",
					"type": "uint256[]"
				},
				{
					"internalType": "uint8[][]",
					"name": "selections",
					"type": "uint8[][]"
				},
				{
					"internalType": "uint256[]",
					"name": "wagered",
					"type": "uint256[]"
				}
			],
			"stateMutability": "view",
			"type": "function"
		},
		{
			"inputs": [
				{
					"internalType": "address",
					"name": "player",
					"type": "address"
				},
				{
					"internalType": "uint256",
					"name": "roundNumber",
					"type": "uint256"
				}
			],
			"name": "getPlayerSelectionsForRound",
			"outputs": [
				{
					"internalType": "uint8[]",
					"name": "",
					"type": "uint8[]"
				},
				{
					"internalType": "uint256",
					"name": "",
					"type": "uint256"
				},
				{
					"internalType": "bool",
					"name": "",
					"type": "bool"
				}
			],
			"stateMutability": "view",
			"type": "function"
		},
		{
			"inputs": [
				{
					"internalType": "uint8",
					"name": "count",
					"type": "uint8"
				}
			],
			"name": "getRecentRounds",
			"outputs": [
				{
					"internalType": "uint256[]",
					"name": "roundNumbers",
					"type": "uint256[]"
				},
				{
					"internalType": "uint8[]",
					"name": "winningNumbers",
					"type": "uint8[]"
				},
				{
					"internalType": "uint256[]",
					"name": "potSizes",
					"type": "uint256[]"
				},
				{
					"internalType": "address[]",
					"name": "winners",
					"type": "address[]"
				}
			],
			"stateMutability": "view",
			"type": "function"
		},
		{
			"inputs": [
				{
					"internalType": "uint256",
					"name": "roundNumber",
					"type": "uint256"
				}
			],
			"name": "getRoundInfo",
			"outputs": [
				{
					"internalType": "uint256",
					"name": "startTime",
					"type": "uint256"
				},
				{
					"internalType": "uint256",
					"name": "endTime",
					"type": "uint256"
				},
				{
					"internalType": "uint256",
					"name": "potSize",
					"type": "uint256"
				},
				{
					"internalType": "uint8",
					"name": "winningNumber",
					"type": "uint8"
				},
				{
					"internalType": "address",
					"name": "winner",
					"type": "address"
				},
				{
					"internalType": "address[2]",
					"name": "runnerUps",
					"type": "address[2]"
				},
				{
					"internalType": "bool",
					"name": "completed",
					"type": "bool"
				},
				{
					"internalType": "bool",
					"name": "numberGenerated",
					"type": "bool"
				}
			],
			"stateMutability": "view",
			"type": "function"
		},
		{
			"inputs": [
				{
					"internalType": "uint256",
					"name": "",
					"type": "uint256"
				},
				{
					"internalType": "uint8",
					"name": "",
					"type": "uint8"
				}
			],
			"name": "isNumberSelected",
			"outputs": [
				{
					"internalType": "bool",
					"name": "",
					"type": "bool"
				}
			],
			"stateMutability": "view",
			"type": "function"
		},
		{
			"inputs": [],
			"name": "lockAdminControls",
			"outputs": [],
			"stateMutability": "nonpayable",
			"type": "function"
		},
		{
			"inputs": [
				{
					"internalType": "uint256",
					"name": "",
					"type": "uint256"
				},
				{
					"internalType": "uint8",
					"name": "",
					"type": "uint8"
				}
			],
			"name": "numberToPlayer",
			"outputs": [
				{
					"internalType": "address",
					"name": "",
					"type": "address"
				}
			],
			"stateMutability": "view",
			"type": "function"
		},
		{
			"inputs": [],
			"name": "owner",
			"outputs": [
				{
					"internalType": "address",
					"name": "",
					"type": "address"
				}
			],
			"stateMutability": "view",
			"type": "function"
		},
		{
			"inputs": [
				{
					"internalType": "uint256",
					"name": "amount",
					"type": "uint256"
				}
			],
			"name": "ownerWithdraw",
			"outputs": [],
			"stateMutability": "nonpayable",
			"type": "function"
		},
		{
			"inputs": [
				{
					"internalType": "address",
					"name": "",
					"type": "address"
				}
			],
			"name": "pendingPayouts",
			"outputs": [
				{
					"internalType": "uint256",
					"name": "",
					"type": "uint256"
				}
			],
			"stateMutability": "view",
			"type": "function"
		},
		{
			"inputs": [
				{
					"internalType": "bytes",
					"name": "performData",
					"type": "bytes"
				}
			],
			"name": "performUpkeep",
			"outputs": [],
			"stateMutability": "nonpayable",
			"type": "function"
		},
		{
			"inputs": [
				{
					"internalType": "uint256",
					"name": "",
					"type": "uint256"
				},
				{
					"internalType": "address",
					"name": "",
					"type": "address"
				}
			],
			"name": "playerSelectionsPerRound",
			"outputs": [
				{
					"internalType": "uint256",
					"name": "totalWagered",
					"type": "uint256"
				},
				{
					"internalType": "bool",
					"name": "hasClaimed",
					"type": "bool"
				}
			],
			"stateMutability": "view",
			"type": "function"
		},
		{
			"inputs": [],
			"name": "prizeConfig",
			"outputs": [
				{
					"internalType": "uint16",
					"name": "winnerPercentage",
					"type": "uint16"
				},
				{
					"internalType": "uint16",
					"name": "runnerUpPercentage",
					"type": "uint16"
				},
				{
					"internalType": "uint16",
					"name": "noWinnerRunnerUpPercentage",
					"type": "uint16"
				},
				{
					"internalType": "uint16",
					"name": "houseWinnerSelectedPercentage",
					"type": "uint16"
				},
				{
					"internalType": "uint16",
					"name": "houseNoWinnerSelectedPercentage",
					"type": "uint16"
				},
				{
					"internalType": "uint16",
					"name": "contractFeePercentage",
					"type": "uint16"
				}
			],
			"stateMutability": "view",
			"type": "function"
		},
		{
			"inputs": [
				{
					"internalType": "uint256",
					"name": "requestId",
					"type": "uint256"
				},
				{
					"internalType": "uint256[]",
					"name": "randomWords",
					"type": "uint256[]"
				}
			],
			"name": "rawFulfillRandomWords",
			"outputs": [],
			"stateMutability": "nonpayable",
			"type": "function"
		},
		{
			"inputs": [],
			"name": "roundEndTime",
			"outputs": [
				{
					"internalType": "uint256",
					"name": "",
					"type": "uint256"
				}
			],
			"stateMutability": "view",
			"type": "function"
		},
		{
			"inputs": [],
			"name": "roundStartTime",
			"outputs": [
				{
					"internalType": "uint256",
					"name": "",
					"type": "uint256"
				}
			],
			"stateMutability": "view",
			"type": "function"
		},
		{
			"inputs": [
				{
					"internalType": "uint256",
					"name": "",
					"type": "uint256"
				}
			],
			"name": "rounds",
			"outputs": [
				{
					"internalType": "uint256",
					"name": "startTime",
					"type": "uint256"
				},
				{
					"internalType": "uint256",
					"name": "endTime",
					"type": "uint256"
				},
				{
					"internalType": "uint256",
					"name": "potSize",
					"type": "uint256"
				},
				{
					"internalType": "uint8",
					"name": "winningNumber",
					"type": "uint8"
				},
				{
					"internalType": "address",
					"name": "winner",
					"type": "address"
				},
				{
					"internalType": "uint8",
					"name": "flags",
					"type": "uint8"
				}
			],
			"stateMutability": "view",
			"type": "function"
		},
		{
			"inputs": [],
			"name": "s_vrfCoordinator",
			"outputs": [
				{
					"internalType": "contract IVRFCoordinatorV2Plus",
					"name": "",
					"type": "address"
				}
			],
			"stateMutability": "view",
			"type": "function"
		},
		{
			"inputs": [],
			"name": "safetyConfig",
			"outputs": [
				{
					"internalType": "uint256",
					"name": "vrfRequestBuffer",
					"type": "uint256"
				},
				{
					"internalType": "uint256",
					"name": "safetyBufferPercentage",
					"type": "uint256"
				},
				{
					"internalType": "bool",
					"name": "statsVisibleToPlayers",
					"type": "bool"
				}
			],
			"stateMutability": "view",
			"type": "function"
		},
		{
			"inputs": [
				{
					"internalType": "uint8[]",
					"name": "numbers",
					"type": "uint8[]"
				}
			],
			"name": "selectNumbers",
			"outputs": [],
			"stateMutability": "payable",
			"type": "function"
		},
		{
			"inputs": [
				{
					"internalType": "address",
					"name": "_forwarder",
					"type": "address"
				}
			],
			"name": "setAutomationForwarder",
			"outputs": [],
			"stateMutability": "nonpayable",
			"type": "function"
		},
		{
			"inputs": [
				{
					"internalType": "address",
					"name": "_vrfCoordinator",
					"type": "address"
				}
			],
			"name": "setCoordinator",
			"outputs": [],
			"stateMutability": "nonpayable",
			"type": "function"
		},
		{
			"inputs": [
				{
					"internalType": "bool",
					"name": "_gameActive",
					"type": "bool"
				}
			],
			"name": "setGameActive",
			"outputs": [],
			"stateMutability": "nonpayable",
			"type": "function"
		},
		{
			"inputs": [
				{
					"internalType": "bool",
					"name": "_statsVisibleToPlayers",
					"type": "bool"
				}
			],
			"name": "setStatsVisibleToPlayers",
			"outputs": [],
			"stateMutability": "nonpayable",
			"type": "function"
		},
		{
			"inputs": [
				{
					"internalType": "address",
					"name": "to",
					"type": "address"
				}
			],
			"name": "transferOwnership",
			"outputs": [],
			"stateMutability": "nonpayable",
			"type": "function"
		},
		{
			"inputs": [
				{
					"internalType": "uint256",
					"name": "_roundDuration",
					"type": "uint256"
				},
				{
					"internalType": "uint256",
					"name": "_restPeriod",
					"type": "uint256"
				},
				{
					"internalType": "uint256",
					"name": "_selectionCost",
					"type": "uint256"
				},
				{
					"internalType": "uint8",
					"name": "_maxSelectionsPerPlayer",
					"type": "uint8"
				},
				{
					"internalType": "uint8",
					"name": "_closingWindow",
					"type": "uint8"
				}
			],
			"name": "updateGameParameters",
			"outputs": [],
			"stateMutability": "nonpayable",
			"type": "function"
		},
		{
			"inputs": [
				{
					"internalType": "uint16",
					"name": "_winnerPercentage",
					"type": "uint16"
				},
				{
					"internalType": "uint16",
					"name": "_runnerUpPercentage",
					"type": "uint16"
				},
				{
					"internalType": "uint16",
					"name": "_noWinnerRunnerUpPercentage",
					"type": "uint16"
				},
				{
					"internalType": "uint16",
					"name": "_houseWinnerSelectedPercentage",
					"type": "uint16"
				},
				{
					"internalType": "uint16",
					"name": "_houseNoWinnerSelectedPercentage",
					"type": "uint16"
				},
				{
					"internalType": "uint16",
					"name": "_contractFeePercentage",
					"type": "uint16"
				}
			],
			"name": "updatePrizeParameters",
			"outputs": [],
			"stateMutability": "nonpayable",
			"type": "function"
		},
		{
			"inputs": [
				{
					"internalType": "uint256",
					"name": "_vrfRequestBuffer",
					"type": "uint256"
				},
				{
					"internalType": "uint256",
					"name": "_safetyBufferPercentage",
					"type": "uint256"
				}
			],
			"name": "updateSafetyParameters",
			"outputs": [],
			"stateMutability": "nonpayable",
			"type": "function"
		},
		{
			"inputs": [
				{
					"internalType": "uint256",
					"name": "subscriptionId",
					"type": "uint256"
				},
				{
					"internalType": "bytes32",
					"name": "keyHash",
					"type": "bytes32"
				}
			],
			"name": "updateVrfParameters",
			"outputs": [],
			"stateMutability": "nonpayable",
			"type": "function"
		},
		{
			"stateMutability": "payable",
			"type": "receive"
		}
	]
}